:100000000EC1000034C1000032C1000030C1000048
:100010002EC100002CC100000C949A0D28C10000D4
:1000200026C1000024C1000022C1000020C1000040
:100030001EC100001CC100001AC1000018C1000050
:100040002BC4000014C1000021C30000FAC200004C
:100050000EC100000CC100000AC1000008C1000070
:100060000C944E0804C100000E0F090F340F340F1A
:10007000340F340F030F650FFD0E650F1B0F090FB3
:10008000150F0E0F650F650F650F650F650F650F77
:10009000650F650F650F650F650F650F650F230F02
:1000A000650F230F650F650F650F650F650F650FF2
:1000B000650F650F650F650F0E0F340F0E0F0E0FD6
:1000C000650F230FFD0E650F650F650F650F650F3B
:1000D000650F650F650F650F570F570F570F570FB8
:1000E000650F650F250F0E0F5E0F0E0F090F0E0F18
:1000F0000E0F0E0F0E0F0E0F0E0F230F230F650F97
:10010000650F650F0E0F650F650F650F650F650FA6
:10011000650F230F650F0E0F090F480F290F650F8D
:10012000650F2D0F2D0F230F52145D1463146914E6
:100130006F14761479147D14256C752C25582C2594
:10014000643B25643B256400256C752C25582C25C3
:100150006C6400256C752C25582C256C7500256C5D
:10016000752C25582C256400000000002400270071
:100170002A0000000000250028002B0025303258FE
:10018000253032580D000000000023002600290011
:10019000040404040404040402020202020203032D
:1001A0000303030301020408102040800102040835
:1001B00010200102040810200000000800020100C5
:1001C00000030407000000000000000041544252F8
:1001D00032256C750D004154425231256C750D006D
:1001E0004E414E494E495459494E46CDCCCC3D0A1C
:1001F000D7233C17B7D13877CC2B329595E6241FFF
:10020000B14F0A000020410000C84200401C4620B7
:10021000BCBE4CCA1B0E5AAEC59D7400A011112461
:100220001FBECFEFD8E0DEBFCDBF13E0A0E0B1E04E
:10023000E4EAFAE302C005900D92A033B107D9F7C2
:1002400024E0A0E3B3E001C01D92AA3CB207E1F7AD
:1002500011E0CFE0D1E004C02197FE010E945116C9
:10026000CE30D107C9F70E94D50D0C94501DC8CED1
:10027000CF92DF92EF92FF920F931F93CF93DF9372
:100280006C017A018B01C0E0D0E0CE15DF0589F06A
:10029000D8016D918D01D601ED91FC910190F08115
:1002A000E02DC6010995892B11F47E0102C021962B
:1002B000ECCFC701DF91CF911F910F91FF90EF908D
:1002C000DF90CF900895089580E090E00895FC01BC
:1002D000538D448D252F30E0842F90E0821B930BAB
:1002E000541710F0CF96089501970895FC01918D51
:1002F000828D981761F0828DDF01A80FB11D5D9688
:100300008C91928D9F5F9F73928F90E008958FEFF5
:100310009FEF0895FC01918D828D981731F0828DA9
:10032000E80FF11D858D90E008958FEF9FEF089500
:10033000FC01918D228D892F90E0805C9F4F821B64
:1003400091098F739927089586E993E0F1DF21E001
:10035000892B09F420E0822F0895FC01848DDF01B0
:10036000A80FB11DA35ABF4F2C91848D90E0019628
:100370008F739927848FA689B7892C93A089B18917
:100380008C9180648C93938D848D981306C0028821
:10039000F389E02D80818F7D80830895EF92FF9215
:1003A0000F931F93CF93DF93EC0181E0888F9B8D98
:1003B0008C8D981305C0E889F989808185FD23C05B
:1003C000F62E0B8D10E00F5F1F4F0F731127E02EDD
:1003D0008C8DE8120BC00FB607FCFACFE889F989BB
:1003E000808185FFF5CFCE01B8DFF2CF8B8DFE0186
:1003F000E80FF11DE35AFF4FF0820B8FEA89FB896A
:100400008081806207C0EE89FF896083E889F9896D
:1004100080818064808381E090E0DF91CF911F91A3
:100420000F91FF90EF900895CF93DF93EC01888DAB
:100430008823C1F0EA89FB89808185FD05C0A889F0
:10044000B9898C9186FD0EC00FB607FCF5CF80816F
:1004500085FFF2CFA889B9898C9185FFEDCFCE01B8
:100460007CDFE8CFDF91CF91089580E090E0892B89
:1004700021F06ADF81110C9400000895FC01878946
:10048000089580E0089508950895089581E00895FD
:1004900081E008953FB7F89480913B0390913C032D
:1004A000A0913D03B0913E0326B5A89B05C02F3F08
:1004B00019F00196A11DB11D3FBFBA2FA92F982F8A
:1004C0008827820F911DA11DB11DBC01CD0142E005
:1004D000660F771F881F991F4A95D1F70895CF930C
:1004E000DF931F92CDB7DEB781E08093410388E6AA
:1004F00080936303109242031092640388E893E0B0
:1005000049835FD74981642F88E893E05AD781E017
:100510000F90DF91CF91FAC481E08093410388E688
:1005200080936303109242031092640388E893E07F
:1005300048D780E0EBD481E0A7D4109240038093A9
:100540003F0388E893E035C208950E9455170F9342
:100550001F93CF93DF93CDB7DEB768970FB6F894AC
:10056000DEBF0FBECDBF8C015F934F937F936F9320
:10057000FC0183818F9382818F9381818F9380810E
:100580008F938EE591E09F938F93CE0101969F9379
:100590008F930E94E317F80184819581A681B7812A
:1005A0000196A11DB11D84839583A683B7830FB6E1
:1005B000F894DEBF0FBECDBF68960FB6F894DEBFCD
:1005C0000FBECDBFDF91CF911F910F910895EF9294
:1005D000FF920F931F93CF93DF93142F022FE32EDD
:1005E00081E08093410388E6809363031092420385
:1005F0001092640388E893E0E4D680E087D4812FEA
:10060000113208F080E240D41092400380933F03FF
:10061000F02EC02FDE2D90913F038091400398175C
:1006200049F08C2F8F19811728F488E893E0C1D105
:100630008993F1CFDF91CF911F910F91FF90EF90B0
:1006400008951F920F920FB60F9211242F933F938C
:100650004F935F936F937F938F939F93AF93BF93CA
:10066000EF93FF9386E993E078DEFF91EF91BF91DE
:10067000AF919F918F917F916F915F914F913F913A
:100680002F910F900FBE0F901F9018951F920F92F1
:100690000FB60F9211242F938F939F93EF93FF9395
:1006A000E091A603F091A7038081E091AC03F09163
:1006B000AD0382FD12C090818091AF038F5F8F7375
:1006C0002091B003821751F0E091AF03F0E0EA56B9
:1006D000FC4F958F8093AF0301C08081FF91EF9114
:1006E0009F918F912F910F900FBE0F901F90189593
:1006F0008F929F92AF92BF92CF92DF92EF92FF9232
:100700006B017C01C7DE4B015C01C114D104E10423
:10071000F104E9F0BFDEDC01CB0188199909AA09CF
:10072000BB09883E9340A105B10578F321E0C21AC8
:10073000D108E108F10888EE880E83E0981EA11C1C
:10074000B11CC114D104E104F10421F7DECFFF9004
:10075000EF90DF90CF90BF90AF909F908F900895D3
:100760001F93CF93DF93EC011092400310923F034D
:1007700010924203109264031092870381E08093E9
:1007800086031092850361E082E11DD461E083E17C
:100790001AD48091B9008E7F8093B9008091B900FE
:1007A0008D7F8093B90088E48093B80085E48093BE
:1007B000BC008CE08093B80065E7CE01ADDE182F59
:1007C000883619F0813709F044C040E06BE6CE016D
:1007D00086DE64E670E080E090E08ADF41E06BE670
:1007E000CE017DDE68EC70E080E090E081DF43E0E8
:1007F0006AE1CE0174DE44E069E1CE0170DE6BE1B6
:10080000CE018ADE482F457E6BE1CE0168DE6CE1C9
:10081000CE0182DE482F477E6CE1CE0160DE6DE1C5
:10082000CE017ADE807F482F43606DE1CE0157DE36
:1008300042E267E3CE0153DE41E068E3CE014FDEE2
:1008400064E670E080E090E053DF113721F081E052
:1008500003C080E001C082E0DF91CF911F91089535
:1008600080E090E045CF9B0188EE93E0289FB001A7
:10087000299F700D389F700D112480E090E038CFD3
:100880002FB7F89460913703709138038091390342
:1008900090913A032FBF08951F920F920FB60F92B7
:1008A00011242F933F938F939F93AF93BF93809186
:1008B000370390913803A0913903B0913A033091F6
:1008C000360323E0230F2D3720F40196A11DB11D1F
:1008D00005C026E8230F0296A11DB11D2093360303
:1008E0008093370390933803A0933903B0933A036E
:1008F00080913B0390913C03A0913D03B0913E0356
:100900000196A11DB11D80933B0390933C03A093DE
:100910003D03B0933E03BF91AF919F918F913F9163
:100920002F910F900FBE0F901F901895833081F07C
:1009300028F4813099F08230A1F008958730A9F031
:100940008830B9F08430D1F4809180008F7D03C06D
:10095000809180008F7780938000089584B58F7791
:1009600002C084B58F7D84BD08958091B0008F77DB
:1009700003C08091B0008F7D8093B000089585ED15
:100980008093BC008091BC0084FDFCCF1092870353
:1009900008950895E091400380913F03E81730F4F3
:1009A000F0E0EB59FC4F808190E008958FEF9FEFCE
:1009B00008959091400380913F03981750F4E92FD8
:1009C000F0E0EB59FC4F208130E09F5F90934003B3
:1009D00002C02FEF3FEFC9010895009761F0FC01BD
:1009E00001900020E9F73197AF01481B590BBC017A
:1009F00086E993E03DCC80E090E008958F929F924D
:100A0000AF92BF920F931F93CF93DF93CDB7DEB713
:100A1000A1970FB6F894DEBF0FBECDBF19A242302A
:100A200008F44AE08E010F5D1F4F842E912CA12CFB
:100A3000B12CA50194010E941316E62FB901CA0139
:100A400001501109EA3014F4E05D01C0E95CD801FD
:100A5000EC93232B242B252B61F7C801BEDFA19635
:100A60000FB6F894DEBF0FBECDBFDF91CF911F91BF
:100A70000F91BF90AF909F908F900895CF93DF9389
:100A8000ACDFEC0186E292E0A8DF8C0F9D1FDF91C6
:100A9000CF910895E0919603F09197030190F08132
:100AA000E02D682F86E993E00994CF93DF93EEEB76
:100AB000F1E08491EAEAF1E0D491E6E9F1E0C49151
:100AC000CC2389F0811132DFEC2FF0E0EE0FFF1F15
:100AD000EA57FE4FA591B491EC91ED2381E090E0AF
:100AE00021F480E002C080E090E0DF91CF91089592
:100AF0002F923F924F925F926F927F928F929F922E
:100B0000AF92BF92CF92DF92EF92FF920F931F931B
:100B1000CF93DF93CDB7DEB7CF54D1090FB6F8949A
:100B2000DEBF0FBECDBF7C0186E0E0E0F1E0DE017C
:100B3000A75BBF4F01900D928A95E1F7D7015596BB
:100B40001C921E925497FE01E75BFF4F6F014F010D
:100B5000F6E08F0E911CB12CD6016D917D916D0147
:100B600000ED17E020E4AE014F5F5F4FC70109D7EA
:100B7000811101C0B394C814D90471F7BB2021F0CE
:100B8000C701B2D780E09BC000E117E220E4AE01CC
:100B90004F5F5F4F6DE372E0C701F3D6882381F3A7
:100BA000BE016F5F7F4FC70165D78111E9CF80E13B
:100BB000F7013496DF011D928A95E9F78F01C12C68
:100BC000D12C712C1E01B1E42B0E311C6096CFAEDE
:100BD0006097DF92CF92F70182811F928F93ACE7EB
:100BE000B1E0BF93AF933F922F920E94E317D701DA
:100BF00056961C92B101C70147D520E137E240E487
:100C000050E0BE016F5F7F4FC70195D50FB6F894D6
:100C1000DEBF0FBECDBF181619060CF044C0BE01D2
:100C20006F5F7F4FC70126D781113DC09E012F5FA7
:100C30003F4F490169E272E0C4010E9482175C01E2
:100C4000892B39F1450133E0830E911CC401C3D4D3
:100C500060969FAD60978913EDCF4501A5E08A0EA0
:100C6000911C2401B1E1AB0EB11C3801D2018C9171
:100C7000803261F4C2010196AED4F30181933F0149
:100C8000F3E04F0E511C4A145B0481F777247394F0
:100C9000D1CFB0E2CB0ED11C0C5F1F4FE0E8CE16D7
:100CA000D10409F093CF772049F082E090E0D7019A
:100CB00055969C938E93549713961C92872DC15BE7
:100CC000DF4F0FB6F894DEBF0FBECDBFDF91CF91DF
:100CD0001F910F91FF90EF90DF90CF90BF90AF905A
:100CE0009F908F907F906F905F904F903F902F904C
:100CF000089583E394E0FCDE811120C040E050E0E1
:100D0000BA0183E394E00E94A31480915B04857F81
:100D100080935B0484E592E0B1DE83E394E0E8DE57
:100D2000811108C08EE2B6DE60E177E280E090E0FB
:100D3000DFDCF3CF8CE592E0A1DE01C00895EF92F5
:100D4000FF920F931F93CF93DF93CDB7DEB7C058B9
:100D5000D1090FB6F894DEBF0FBECDBF80915B0402
:100D600084FD14C083E692E038DE60E083E594E021
:100D7000F7DC882341F080915B04806180935B0401
:100D800089E692E002C08CE692E078DE8FE692E09F
:100D900024DE83E394E0ACDE882321F089E692E050
:100DA0006DDE04C08CE692E069DEA3DF80915B0417
:100DB000826080935B0484E792E00FDE40E052ECB7
:100DC00061E070E083E394E00E94A314882341F083
:100DD00080915B04846080935B0489E692E002C0AA
:100DE0008CE692E04BDE80915B0481FF3FC0109265
:100DF000490400E117E220E8AE014F5F5F4F69E769
:100E000072E083E394E0BDD5882381F16FE772E05F
:100E1000CE0101960E948217009741F10A969E0129
:100E20002F5F3F4F79018C010F5F1F4FF8018081C9
:100E3000803269F4C8010196CED3F70180838823FC
:100E400019F0FFEFEF1AFF0A0D5F1F4FEFCF6AE3B4
:100E500070E0C8010E947717009729F7F701108208
:100E600085E892E0BADDCE01019608DEC058DF4F7A
:100E70000FB6F894DEBF0FBECDBFDF91CF911F91AB
:100E80000F91FF90EF900895909187039111FCCFFF
:100E900091E090938703909386032FEF2093C604ED
:100EA0001092C504280F2093C4049093C30490911A
:100EB000C304906D9093C30490918503913061F4C5
:100EC000109285039091C3049093BB009091BC0055
:100ED00093FDF8CF95EC01C095EE9093BC009091F6
:100EE00087039130E1F39091C504981710F4809135
:100EF000C504A3EAB4E025E633E0F9019E2F921B76
:100F0000981718F49D919193F9CF0895382F209157
:100F1000640390916303213208F049C080918703F4
:100F20008111FCCF42E040938703309386033FEF6B
:100F30003093C6041092C5042093C404A3E4B3E024
:100F400043EA54E0FA013E2F341B321718F43D9166
:100F50003193F9CF1092C3042091C304990F922BBF
:100F60009093C30490918503913061F410928503AE
:100F70009091C3049093BB009091BC0093FDF8CF77
:100F800095EC01C095EE9093BC0090918703923050
:100F9000E1F39091C6049F3F79F08091C6048032BE
:100FA00041F08091C604803331F084E005C081E0D7
:100FB00003C082E001C083E01092420310926403F8
:100FC0001092410308951F93CF93DF93282F30E0B1
:100FD000F901E854FE4F8491F901EC55FE4FD4918C
:100FE000F901E057FE4FC491CC23C1F0162F8111B7
:100FF0009DDCEC2FF0E0EE0FFF1FEE58FE4FA591A9
:10100000B4918FB7F894111105C09C91ED2FE09524
:10101000E92302C0EC91ED2BEC938FBFDF91CF91D0
:101020001F910895CF93DF9390E0FC01EC55FE4FA4
:101030002491FC01E057FE4F8491882361F190E0F8
:10104000880F991FFC01E859FE4FC591D491FC010E
:10105000EE58FE4FA591B491611109C09FB7F89465
:101060008881209582238883EC912E230BC06230E7
:1010700061F49FB7F8943881822F80958323888309
:10108000EC912E2B2C939FBF06C08FB7F894E8816C
:101090002E2B28838FBFDF91CF9108951F920F923F
:1010A0000FB60F9211242F933F934F935F936F933B
:1010B0007F938F939F93AF93BF93EF93FF93809111
:1010C000B900887F803609F49CC068F5883209F43D
:1010D0005BC090F4803109F454C038F4882309F4DB
:1010E000F6C0883009F44DC0F5C0883109F44CC011
:1010F000803209F45DC0EEC0803409F468C048F461
:10110000803309F455C0883309F0E4C08093C604E5
:10111000D8C0803509F44FC0883509F45DC08834E3
:1011200009F0D8C0D6C0883909F4C7C0A8F48837F8
:1011300009F467C038F4883609F463C0803709F4CD
:1011400060C0C8C0883809F4B8C0803909F45FC0ED
:10115000803809F0BFC05BC0803B09F486C038F41A
:10116000803A09F466C0883A09F47FC0B3C0803C75
:1011700009F4A7C0883C09F4A4C0883B09F48AC0DC
:10118000A9C08091C30410C09091C5048091C4048B
:10119000981770F5E091C50481E08E0F8093C50427
:1011A000F0E0ED55FB4F80818093BB0085EC86C05D
:1011B0008093C6048EC0E091C50481E08E0F8093B9
:1011C000C5048091BB00F0E0ED55FB4F808390910A
:1011D000C5048091C4046EC0E091C50481E08E0F07
:1011E0008093C5048091BB00F0E0ED55FB4F8083F8
:1011F0008091860381116DC081E08093850384EA2C
:1012000061C083E0809387031092A204CFCF8091C6
:10121000A204803208F051C0E091A20481E08E0F58
:101220008093A2048091BB00F0E0EE57FB4F8083D7
:10123000BDCF85EC8093BC00109287038091A204FF
:10124000803230F4E091A204F0E0EE57FB4F1082C0
:101250006091A20470E0E0918004F091810482E842
:1012600094E009951092A20435C084E0809387032E
:1012700010927F0410927E04E0917C04F0917D0432
:10128000099580917E04811105C081E080937E04E0
:1012900010925C04E0917F0481E08E0F80937F04C4
:1012A000F0E0E45AFB4F80818093BB0090917F0473
:1012B00080917E04981708F479CF85E88093BC006C
:1012C00009C085EC8093BC001092870303C0109284
:1012D000C60455DBFF91EF91BF91AF919F918F9124
:1012E0007F916F915F914F913F912F910F900FBE22
:1012F0000F901F90189540917E04262F30E0240F08
:10130000311D21323105DCF4209187032430C9F4EA
:10131000FC0180E090E0861758F430917E04219122
:10132000DC01A45ABB4FA30FB11D2C930196F3CF40
:1013300080917E04680F60937E0480E0089581E0D0
:10134000089582E0089580913F0390E0209140034A
:10135000821B910908958EBD00000DB407FEFDCFDC
:101360008EB50895CF92DF92EF92FF920F931F9365
:10137000CF93DF937C01262F972F8A018091410321
:10138000882391F0C62FD72F6E01C40ED51ECC1521
:10139000DD0569F06991D701ED91FC910190F08133
:1013A000E02DC7010995F3CF642F822FA4DFC80178
:1013B000DF91CF911F910F91FF90EF90DF90CF9031
:1013C0000895CF93DF931F92CDB7DEB76983209145
:1013D00041032223D1F020916403203240F021E028
:1013E00030E0FC013383228380E090E014C08091E0
:1013F0004203E82FF0E0ED5BFC4F998190838F5F13
:10140000809342038093640304C061E0CE0101969F
:1014100072DF81E090E00F90DF91CF910895CF933C
:10142000DF93FC01C0E0D0E0C617D707A4F42191F8
:101430002D3011F02A3069F42196C617D70774F4BD
:10144000FC01EC0FFD1F20812D30B1F32A3031F467
:10145000F3CF2196E9CFEB01D595C795AB014C1B96
:101460005D0BBC016C0F7D1F0E946617CE01DF91E2
:10147000CF910895CF93DF93EB018BE50BDB00DA7F
:101480004AE0BCDA8DE506DBCE01DF91CF91F6CAEA
:101490008F929F92AF92BF92CF92DF92EF92FF9284
:1014A0000F931F93CF93DF9300D000D000D0CDB720
:1014B000DEB75C014B01672B09F452C09E012F5F20
:1014C0003F4F46E06BE383D8698170E0762F662753
:1014D0008A81682BF50173836283CB80D12CDC2C4D
:1014E000CC248C81C82AD582C482ED80F12CFE2CBC
:1014F000EE248E81E82AF782E682072E000C880B04
:10150000990B0E94EA1B20E030E040E858E30E947B
:10151000491CF4016083718382839383B601DD0CDF
:10152000880B990B0E94EA1B20E030E040E858E36A
:101530000E94491CF4016483758386839783B701F5
:10154000FF0C880B990B0E94EA1B20E030E040E87A
:1015500058E30E94491CF401608771878287938752
:101560000115110521F19E012F5F3F4F42E061E41B
:10157000C5012DD8698170E0762F66278A81682B96
:10158000072E000C880B990B0E94EA1B2AE43CE80A
:1015900045E052E40E94BC1620E030E042E553E40E
:1015A0000E9458160E942417F8017183608381E01D
:1015B00026960FB6F894DEBF0FBECDBFDF91CF9158
:1015C0001F910F91FF90EF90DF90CF90BF90AF9061
:1015D0009F908F900895FC01908181812FEB290FBE
:1015E000263010F497500AC02FE9290F263010F446
:1015F000975204C020ED290F2A30E8F4811103C06E
:10160000892F8F7008952FEB280F263010F4875004
:101610000AC02FE9280F263010F4875204C020EDAD
:10162000280F2A3040F4282F2F7030E1939FC001FB
:101630001124822B089580E00895FC01919180E0AF
:1016400020E030E09923F1F08430E4F44FEB490FCF
:10165000463010F497500CC04FE9490F463010F453
:10166000975206C0903261F040ED490F4A3050F475
:1016700044E0220F331F4A95E1F79F70292B8F5FBB
:101680009191E0CFC9010895EF92FF920F931F93BC
:10169000CF93DF93EC018B01EDDEE881F9810680C9
:1016A000F781E02D6AE070E0CE01099560E087E007
:1016B0008ADCE881F9810680F781E02D61E070E045
:1016C000CE01099590919403809195039CBD8DBDA9
:1016D000F80180818432A1F0E12CF12C8E89F70190
:1016E00094E0899FE00DF11D1124E450FE4F8081AC
:1016F00032DEEFEFEE1AFE0AF4E0EF16F10471F7B6
:10170000F80181918F01882311F025DEF9CF8BE15B
:1017100022DEE881F9810680F781E02D61E070E04A
:10172000CE01099561E087E0DF91CF911F910F9184
:10173000FF90EF9048CC3F924F925F926F927F92D2
:101740008F929F92AF92BF92CF92DF92EF92FF92D1
:101750000F931F93CF93DF93CDB7DEB72A970FB6C2
:10176000F894DEBF0FBECDBF7C016B018A01590129
:1017700087D82B013C011A861986480121E0821A7C
:101780009108950140E050E029833A834B835C83C4
:10179000D701ED91FC910680F781E02D61E070E0CA
:1017A000C70109956DD8DC01CB0184199509A609FB
:1017B000B70929813A814B815C81281739074A078B
:1017C0005B0718F465E972E0A4C06FD9019701F3D3
:1017D00060E087E0F8DB8501312C67D9892B09F0BF
:1017E0006AC04ED8DC01CB0184199509A609B70956
:1017F000980140E050E082179307A407B50708F06E
:101800005AC080E2A8DD482F3110E7CF29853A85FC
:10181000232B39F4443209F7D6014C9321E030E010
:101820001BC029853A8527303105CCF0D6011196A9
:101830008C918F34A1F44E3291F42C0D3D1DF901A1
:10184000319780818E3271F4319780818E3251F4DC
:10185000005F184D24E030E03A872987BECF44234B
:1018600009F4BBCF29853A852815390579F4B901E2
:10187000C6014887D4DD29853A85281B390B3A876C
:10188000298765EA72E0C701F5DD4885E985FA85B3
:10189000EC0DFD1D4083493039F4319733243394E6
:1018A00080818E3309F0312C49855A854F5F5F4F17
:1018B0005A87498792CF580161E087E084DB311075
:1018C0002DC00E944004980140E050E0DC01CB01B3
:1018D00084199509A609B70982179307A407B507C4
:1018E00008F44FCF0D833E8348875F830E944004F6
:1018F000DC01CB0184199509A609B7092D813E8128
:1019000048855F8182179307A407B50738F061EB1C
:1019100072E0C701AFDD80E090E01BC0F70186896F
:10192000833041F0332031F029853A852150310947
:101930003A872987E985FA85EC0DFD1D1082D701CC
:1019400056968C91811103C0B601C70193DD89853C
:101950009A852A960FB6F894DEBF0FBECDBFDF91F1
:10196000CF911F910F91FF90EF90DF90CF90BF909C
:10197000AF909F908F907F906F905F904F903F902F
:1019800008952F923F924F925F926F927F928F9223
:101990009F92AF92BF92CF92DF92EF92FF920F93FE
:1019A0001F93CF93DF9300D000D000D0CDB7DEB728
:1019B0009E838D836B017A012C830E9440042B014E
:1019C0003C012C81222E312CC70107969B838A83F0
:1019D0004801A12CB12CB6018D819E8155DE980164
:1019E000A101B7018D819E81A6DE8983882379F0CC
:1019F000D70111968C918F3419F145E050E064E2E3
:101A000073E08A819B810E945917892BC9F4AD81AB
:101A1000BE81ED91FC9111970680F781E02D64E184
:101A200070E0CD0109950E944004DC01CB018419CE
:101A30009509A609B70988159905AA05BB0558F2A5
:101A4000898126960FB6F894DEBF0FBECDBFDF9119
:101A5000CF911F910F91FF90EF90DF90CF90BF90AB
:101A6000AF909F908F907F906F905F904F903F903E
:101A70002F900895CF92DF92EF92FF921F93CF9312
:101A8000DF93CDB7DEB728970FB6F894DEBF0FBE51
:101A9000CDBF6B0198E0E4EFF1E0DE01119601901B
:101AA0000D929A95E1F7CE0101967C0110E0F701C5
:101AB000619171917F01C6010E9482171F5F892B7E
:101AC00011F0812F03C0143091F780E028960FB6F3
:101AD000F894DEBF0FBECDBFDF91CF911F91FF9075
:101AE000EF90DF90CF9008950F931F93CF93DF93E4
:101AF000CDB7DEB7A0970FB6F894DEBF0FBECDBF4F
:101B000000E117E220E2AE014F5F5F4F6AE273E04F
:101B100038DF68EB7BE080E090E00E947803A096DD
:101B20000FB6F894DEBF0FBECDBFDF91CF911F91EE
:101B30000F9108951F920F920FB60F9211248F9359
:101B4000EF93FF930FB6F894A89580916000886199
:101B500080936000109260000FBEA895E0E6F0E070
:101B600080818F7B8083FF91EF918F910F900FBECB
:101B70000F901F901895FC01DB018D919C9111979E
:101B80009183808312962D913C911397DC01989755
:101B90000D90BC91A02DAE0FBF1F2D933C9381E003
:101BA00082831382158A148A0895CF93DF93CDB769
:101BB000DEB7CB55D1090FB6F894DEBF0FBECDBF4F
:101BC000789484B5826084BD84B5816084BD85B518
:101BD000826085BD85B5816085BD80916E00816024
:101BE00080936E00109281008091810082608093CA
:101BF00081008091810081608093810080918000CC
:101C00008160809380008091B10084608093B100F6
:101C10008091B00081608093B00080917A008460F0
:101C200080937A0080917A00826080937A0080911C
:101C30007A00816080937A0080917A008068809336
:101C40007A001092C100E091A603F091A70382E010
:101C50008083E091A203F091A3031082E091A4039A
:101C6000F091A50380E180831092AE03E091AA0376
:101C7000F091AB0386E08083E091A803F091A90383
:101C8000808180618083E091A803F091A903808125
:101C900088608083E091A803F091A9038081806827
:101CA0008083E091A803F091A90380818F7D8083D8
:101CB00088E092E00E943E0568EE73E080E090E0EC
:101CC0000E94780383E394E0E0D6182F87E192E046
:101CD0000E94ED04612F70E080E090E04AE00E94F5
:101CE000FE0486E292E00E94ED0429D81E0127E559
:101CF000220E311C6E0131E4C30ED11C44E0420DB2
:101D00006C964FAF6C9780915B04DE0111965D017C
:101D100081FF62C18CE0F10180838DE0818381E1EC
:101D2000828384E083830E94400460934B04709319
:101D30004C0480934D0490934E04410144244A94F2
:101D4000512CD4011D914D011F921F938091350498
:101D50001F928F93ACE7B1E0BF93AF93BF92AF9266
:101D60000E94E31710924904B50183E394E08CDCF0
:101D700020ED37E040E450E0B50183E394E0DBDCA4
:101D80000FB6F894DEBF0FBECDBF1816190634F09B
:101D9000809136048F5F80933604A1C0B50183E340
:101DA00094E068DE8111F4CF350169E272E0C3018D
:101DB0000E9482177C01892B59F3370133E0630EAF
:101DC000711CC30108DC8113F0CF10923604370177
:101DD00045E0640E711CD70115968C91803229F76D
:101DE000C7010696412F50E0FA013497E036F1051D
:101DF00008F06BC0EC5CFF4F54C71FDC96958795CD
:101E00009695879564C0E7DBB3E08B9FC0011124F2
:101E10005EC0E1DB282F30E0C9014EC0DCDBE4E628
:101E20008E9FC0011124B20103C007DC64E670E09C
:101E3000E6D6CB014CC0CFDB8695282F30E0C90118
:101E40008054910944C0F9DB42C0F7DB68EE73E0CF
:101E5000EFCFF3DB64E170E0EBCFBDDB282F30E0A8
:101E6000C9018D57910933C0B6DB90E080589109C4
:101E7000F4E6F89F9001F99F300D112437FF02C05E
:101E800021583F4FC901880F892F881F990B1FC008
:101E9000D4DBA0E0B0E0BC01CD0179568109910905
:101EA00020E830E040E050E0E0D6C90110C0C5DBDA
:101EB0006AE070E0A4D6CB01889709C0BEDB9C0124
:101EC000A8ECB0E00E94411D02C085DB90E0612FCC
:101ED00070E07160AC018BE494E00E94A7028091F5
:101EE0005B0484FF6AC0E12CF12C00E010E020E0EC
:101EF00030E040E050E0B60183E594E0C9DA8823A1
:101F000009F45BC020E030E048EC52E4D6011896BA
:101F10006D917D918D919C911B970E94491C94D746
:101F20007F936F9320E030E048EC52E4F601648147
:101F30007581868197810E94491C86D77F936F9314
:101F400020E030E048EC52E4D6016D917D918D9116
:101F50009C910E94491C78D77F936F931F92B0E2A7
:101F6000BF9380914E048F9380914D048F93809105
:101F70004C048F9380914B048F93A8E3B1E0BF93FF
:101F8000AF93BF92AF920E94E31780914F0490915C
:101F90005004A0915104B09152040196A11DB11DAD
:101FA00080934F0490935004A0935104B093520433
:101FB0000FB6F894DEBF0FBECDBF6C963FAD6C97E9
:101FC0003811BFCE809136048330C0F083E394E0B3
:101FD0008BDD0E94790612C00E944004611575498C
:101FE0008A4B9A4058F483E394E00E947805882352
:101FF00029F080915B04826080935B041092490415
:1020000000E117E220E2A5016DE272E083E394E0D3
:10201000B8DC882321F0CE01059697D703C060E095
:1020200070E0CB0120E030E048EC52E40E94491C13
:102030000BD7AB0164E270E08BE494E00E94A7024E
:1020400080915B0482FF66C186E1D6011D928A956C
:10205000E9F7B60183E394E0CED3882309F45AC1AB
:102060000E944004162F072FF82EE92E60934B0490
:1020700070934C0480934D0490934E04F601848138
:102080009581A681B7810097A105B10509F442C1E8
:1020900040913203509133036091340370913503C2
:1020A00084179507A607B70709F434C170806180CB
:1020B00052804380809130039091310364E670E058
:1020C0009ED54C01672D762D852D942D20E137E28C
:1020D00040E050E0A8D530E08216930651F14F92CF
:1020E0005F926F927F921F9281E18F93EF92FF92A6
:1020F0000F931F9383E591E09F938F93BF92AF92CD
:1021000062D780914F0490915004A0915104B091F6
:1021100052040196A11DB11D80934F049093500469
:10212000A0935104B09352040FB6F894DEBF0FBED3
:10213000CDBFD60117968C9117978F9316968C91D9
:1021400016978F9315968C9115978F9314968C9163
:102150008F931F9280E18F9380914E048F93809193
:102160004D048F9380914C048F9380914B048F93F7
:1021700083E591E09F938F93BF92AF9224D7809194
:102180004F0490915004A0915104B09152040196D3
:10219000A11DB11D80934F0490935004A09351044E
:1021A000B0935204F60183858F9382858F93818546
:1021B0008F9380858F931F928AE08F9380914E0436
:1021C0008F9380914D048F9380914C048F938091D5
:1021D0004B048F9308E411E01F930F93BF92AF92CB
:1021E000F2D680914F0490915004A0915104B09187
:1021F00052040196A11DB11D80934F049093500489
:10220000A0935104B0935204D6011F968C911F974E
:102210008F931E968C911E978F931D968C911D9770
:102220008F931C968C918F931F928BE08F9380914C
:102230004E048F9380914D048F9380914C048F9323
:1022400080914B048F931F930F93BF92AF92BBD695
:1022500080914F0490915004A0915104B091520488
:102260000196A11DB11D80934F0490935004A0933B
:102270005104B09352040FB6F894DEBF0FBECDBF29
:10228000D60150964D915C9151976CE070E08BE4D3
:1022900094E00E94A702F601428950E06DE070E0F0
:1022A0008BE494E00E94A702D60153964C9150E033
:1022B0006FE070E08BE494E00E94A702F601608179
:1022C00071818281938124E630E040E050E0ABD41C
:1022D000F60184819581A681B78180933203909322
:1022E0003303A0933403B0933503C90164E670E06F
:1022F00086D444E6489F9001499F300D1124620F17
:10230000731F709331036093300380915B04886086
:1023100080935B0460914F0470915004809151044C
:10232000909152044AE00E94FE0483E392E00E94EE
:10233000ED0486E292E00E94ED040E943502E3CCB7
:10234000CF93DF93E8E8F3E01382128288EE93E004
:10235000A0E0B0E084839583A683B78324E531E0D1
:1023600031832083E4E9F3E021E520831182E6E96B
:10237000F3E01382128284839583A683B78386E673
:1023800091E09183808385EC90E09587848784EC4D
:1023900090E09787868780EC90E0918B808B81EC32
:1023A00090E0938B828B82EC90E0958B848B86EC13
:1023B00090E0978B868B118E128E138E148EC3E352
:1023C000D4E082ED91E09983888368EC71E0CE01DE
:1023D000D2DB188E198E1A8E1B8E1C8E1D8E1E8EB1
:1023E0001F8E86E0E5E5F4E0DF011D928A95E9F7AE
:1023F0008CE991E09983888382EC91E099A388A38A
:1024000018A6DF91CF910895DC01ED91FC91008C2D
:10241000F18DE02D099428E16115710509F43CC0A6
:102420006830710520F06850710989E003C061507F
:10243000710986E0982F987011F498E001C098E235
:102440008770892B0FB6F894A895209360000FBE73
:1024500080936000A8958091600080648093600004
:1024600083B7817F846083BF83B7816083BF889592
:1024700083B78E7F83BF0FB6F894A89580916000D4
:10248000886180936000109260000FBE80916000B0
:102490008F7B80936000C0CF08952F923F924F9220
:1024A0005F926F927F928F929F92AF92BF92CF92E4
:1024B000DF92EF92FF920F931F93CF93DF93CDB7ED
:1024C000DEB729970FB6F894DEBF0FBECDBF1C0153
:1024D0006B012A013901E9820E9440044B015C0131
:1024E000198618869201205131093B832A83C30142
:1024F000A0E0B0E08C839D83AE83BF83A885B985BF
:10250000EA81FB81AE17BF0754F0BD01C6010E94EE
:102510000F0A28853985281B390B39872887D1016F
:10252000ED91FC910680F781E02D62E370E0C1013E
:102530000995688479846C0C7D1CD101ED91FC9126
:10254000A20128853985421B530B41505109068849
:10255000F789E02D24E630E0B301C10109957C0143
:10256000181619060CF03DC044E050E06AE872E02D
:10257000C3019FD4892BB9F545E050E064E273E0D4
:102580008885998506968C0D9D1D93D4892B59F1CC
:1025900034E0E31AF108688579856C5F7F4F6C0D34
:1025A0007D1DA701C30192D4488559854E0D5F1D3D
:1025B00059874887FA01EC0DFD1D10827801712CB6
:1025C000B9817B1681F0D7016D917D917D01739466
:1025D00061157105A9F3C60195D4892B89F3872D5F
:1025E0001AC0019691F00E944004DC01CB018819C9
:1025F0009909AA09BB092C813D814E815F8182170F
:102600009307A407B50708F479CFE885F985EC0DA1
:10261000FD1D108280E029960FB6F894DEBF0FBE34
:10262000CDBFDF91CF911F910F91FF90EF90DF9081
:10263000CF90BF90AF909F908F907F906F905F9062
:102640004F903F902F90089580E090E00C94780395
:10265000CF93DF93EC0182E08E8BCE0115D8E88119
:10266000F9810680F781E02D6AE070E0CE01DF910C
:10267000CF91099421E0FC01268B06C8FC01168A43
:102680006FE872E001C8EF92FF920F931F93CF9310
:10269000DF9300D000D0CDB7DEB77C018B01FC0109
:1026A000168A6EEB72E02B833C8349835A830E9427
:1026B000440B2B813C8149815A81B801C7010F909D
:1026C0000F900F900F90DF91CF911F910F91FF907E
:1026D000EF9031C80F931F93CF93DF93CDB7DEB741
:1026E000C054D1090FB6F894DEBF0FBECDBFFC01B8
:1026F000168A00E117E220E4AE014F5F5F4F65EC00
:1027000072E03FD9C05CDF4F0FB6F894DEBF0FBE5A
:10271000CDBFDF91CF911F910F9108950F931F931C
:10272000CF93DF93CDB7DEB760970FB6F894DEBFD7
:102730000FBECDBFFC01168A00E117E220E1AE0119
:102740004F5F5F4F6FEC72E01CD960960FB6F89444
:10275000DEBF0FBECDBFDF91CF911F910F910895C6
:10276000CF92DF92EF92FF920F931F93CF93DF935D
:10277000CDB7DEB760970FB6F894DEBF0FBECDBF02
:102780007C017F936F935F934F9386ED91E09F93CE
:102790008F939E012F5F3F4F69013F932F9313D477
:1027A000D70156961C9200E117E220E1A601B6017E
:1027B000C701E7D80FB6F894DEBF0FBECDBF8823A0
:1027C00051F0D701ED91FC91068CF78DE02DC701FA
:1027D000099581E001C080E060960FB6F894DEBFF5
:1027E0000FBECDBFDF91CF911F910F91FF90EF9062
:1027F000DF90CF9008954F925F926F927F92BF9239
:10280000CF92DF92EF92FF920F931F93CF93DF93BC
:10281000CDB7DEB7C058D1090FB6F894DEBF0FBEF2
:10282000CDBF7B01FC01168A08EC10E020E8AE0168
:102830004F5F5F4F69ED72E0A4D8882309F46DC043
:1028400045E050E060EE72E0CE01019632D3892B74
:1028500009F063C08E010A5F1F4FC801BB24B39407
:10286000C12C24E6422E512C612C712CF801D19000
:102870008F01DD2009F44BC0BB2009F44EC0FCE2FF
:10288000DF1631F02EE3D21619F0EDE0ED1574F3FA
:102890005FD32C2D30E02830310590F5F901EC564E
:1028A000FF4FFFC1611571058105910549F1F701E0
:1028B000608371838283938324C0F701648375836B
:1028C000868397831EC0F70160877187828793870D
:1028D00018C0F701648775878687978712C0A301A0
:1028E0009201C3D1F701318B208B0BC0F701628BB2
:1028F00008C0F701758B648B04C0F701638B01C0BE
:10290000B12CC394FCE2DF1202C0C801AFCFBB20E0
:1029100021F081E0F7E0FC1508F080E0C058DF4FBF
:102920000FB6F894DEBF0FBECDBFDF91CF911F91E0
:102930000F91FF90EF90DF90CF90BF907F906F90BE
:102940005F904F9008958F929F92AF92BF92CF92D7
:10295000DF92EF92FF920F931F93CF93DF93CDB748
:10296000DEB7C058D1090FB6F894DEBF0FBECDBF99
:102970007C014A015B01FC01168A178ACE0101968F
:102980006C01452B462B472B09F450C000E117E2A0
:1029900020E8AC0166EE72E0C7010E94C10C811113
:1029A00002C0B12C45C0BF92AF929F928F928CEC27
:1029B00091E09F938F93DF92CF9205D300E117E2CE
:1029C00020E8A601B601C7010E94C10C0E94400484
:1029D0004B015C0164E670E080E090E00E947803C7
:1029E0000FB6F894DEBF0FBECDBFF701168A08EC14
:1029F00010E020E8A6016FEE72E0C7010E94C10C52
:102A000090E08330910544F0EFEFFFEFEC0FFD1FF6
:102A1000E80FF91F108202C0892BA9F066EF72E05F
:102A2000C60170D2892B79F081E01BC0BB24B3941E
:102A300000E117E220E8A6016AEF72E0C7010E94F8
:102A4000C10C8B2D0EC00E944004DC01CB01881903
:102A50009909AA09BB09803D9740A105B10528F253
:102A6000A0CFC058DF4F0FB6F894DEBF0FBECDBF6A
:102A7000DF91CF911F910F91FF90EF90DF90CF905A
:102A8000BF90AF909F908F900895DF92EF92FF924A
:102A90000F931F93CF93DF93CDB7DEB7A0970FB6F9
:102AA000F894DEBF0FBECDBF7C0180917A008F7796
:102AB00080937A00F701168A60E086E00E9412088F
:102AC00061E087E00E94120861E087E00E94E3076E
:102AD0001FB7F8948091C704811127C0EAE9F1E09B
:102AE0008491EEEAF1E09491E82FF0E0EE0FFF1F01
:102AF000E859FE4FA591B491EC91E92321F461E0EE
:102B00008AE00E94E30761E08AE00E9412088CB527
:102B100080618CBD8CB580648CBD61E08DE00E94CD
:102B2000120861E08BE00E9412088091C7048F5F59
:102B30008093C7041FBF8CB58C7F81608CBD8DB521
:102B40008E7F8DBD64E670E080E090E00E947803A7
:102B5000F701168A83E0D82E04EF11E020E2AE01DF
:102B60004F5F5F4F64E073E0C7010E94C10C882390
:102B700099F069E073E0CE010196C4D1009761F04D
:102B8000FC01238520538185880F8056982F990F4B
:102B9000990F890F820F21F4DA94D110DDCF80E0F4
:102BA000A0960FB6F894DEBF0FBECDBFDF91CF91D8
:102BB0001F910F91FF90EF90DF9008950F931F9357
:102BC000CF93DF93CDB7DEB760970FB6F894DEBF33
:102BD0000FBECDBF00E117E220E1AE014F5F5F4FB6
:102BE00061E173E00E94C10C60960FB6F894DEBFFD
:102BF0000FBECDBFDF91CF911F910F910895AA1BFA
:102C0000BB1B51E107C0AA1FBB1FA617B70710F0D7
:102C1000A61BB70B881F991F5A95A9F78095909509
:102C2000BC01CD010895A1E21A2EAA1BBB1BFD0118
:102C30000DC0AA1FBB1FEE1FFF1FA217B307E4079B
:102C4000F50720F0A21BB30BE40BF50B661F771FF3
:102C5000881F991F1A9469F76095709580959095D3
:102C60009B01AC01BD01CF010895052E97FB16F421
:102C700000940FD057FD05D0D6DF07FC02D046F4F4
:102C800008C050954095309521953F4F4F4F5F4F6D
:102C9000089590958095709561957F4F8F4F9F4FC8
:102CA0000895EE0FFF1F0590F491E02D0994505800
:102CB000BB27AA270ED06AC65BD630F060D620F0BC
:102CC00031F49F3F11F41EF450C60EF4E095E7FB7B
:102CD00046C6E92F6CD680F3BA17620773078407DC
:102CE000950718F071F49EF584C60EF4E0950B2E4E
:102CF000BA2FA02D0B01B90190010C01CA01A0014E
:102D00001124FF27591B99F0593F50F4503E68F1A8
:102D10001A16F040A22F232F342F4427585FF3CFE9
:102D2000469537952795A795F0405395C9F77EF4BA
:102D30001F16BA0B620B730B840BBAF09150A1F003
:102D4000FF0FBB1F661F771F881FC2F70EC0BA0F89
:102D5000621F731F841F48F4879577956795B79511
:102D6000F7959E3F08F0B3CF9395880F08F0992709
:102D7000EE0F9795879508950CD008C600D640F0C1
:102D8000F7D530F021F45F3F19F0E9C5511132C693
:102D9000ECC50DD698F39923C9F35523B1F3951BD0
:102DA000550BBB27AA2762177307840738F09F5F6C
:102DB0005F4F220F331F441FAA1FA9F333D00E2EDB
:102DC0003AF0E0E830D091505040E695001CCAF748
:102DD00029D0FE2F27D0660F771F881FBB1F26170D
:102DE00037074807AB07B0E809F0BB0B802DBF01E0
:102DF000FF2793585F4F2AF09E3F510568F0AFC5FB
:102E0000F9C55F3FECF3983EDCF3869577956795BF
:102E1000B795F7959F5FC9F7880F911D9695879590
:102E200097F90895E1E0660F771F881FBB1F6217AF
:102E300073078407BA0720F0621B730B840BBA0B6D
:102E4000EE1F88F7E095089504D06894B111D2C5BB
:102E50000895B5D588F09F5790F0B92F9927B751AD
:102E6000A0F0D1F0660F771F881F991F1AF0BA954E
:102E7000C9F712C0B13081F0BCD5B1E00895B9C531
:102E8000672F782F8827B85F39F0B93FCCF3869544
:102E900077956795B395D9F73EF4909580957095A1
:102EA00061957F4F8F4F9F4F089581E090E0F89498
:102EB000F7C5FB01DC0104C08D910190801921F45C
:102EC00041505040C8F7881B990B0895681779073F
:102ED00068F4FB01DC01E40FF51FA40FB51F02C06D
:102EE00002900E9241505040D8F7089525C0FC0141
:102EF0008191861721F08823D9F799270895319772
:102F0000CF010895FB0151915523A9F0BF01DC01C8
:102F10004D9145174111E1F759F4CD010190002081
:102F200049F04D9140154111C9F3FB014111EFCF1B
:102F300081E090E001970895FB01DC0102C001905F
:102F40000D9241505040D8F70895662777271EC24A
:102F50001F93FC0199278827BC01E8941191103236
:102F6000E9F3193010F01E30C8F31B3249F01D325E
:102F700041F4689405C012D0610F711D811D911D2F
:102F8000119110531A30B8F33EF4909580957095D6
:102F900061957F4F8F4F9F4F1F910895592F482F55
:102FA000372F262F660F771F881F991F660F771FF1
:102FB000881F991F620F731F841F951F660F771F4D
:102FC000881F991F0895AEE0B0E0E8EEF7E130C544
:102FD0000D891E898EE08C831A8309838FEF9FE70A
:102FE0009E838D83AE01475E5F4F6F89788DCE01E2
:102FF000019609D02F813885F801E20FF31F108266
:103000002E96E4E031C5ACE0B0E0E8E0F8E102C5BE
:103010007C016B018A01FC0117821682838181FF8A
:10302000B0C1CE0101964C01F7019381F60193FDE9
:10303000859193FF81916F01882309F49EC18532A8
:1030400039F493FD859193FF81916F01853221F4CD
:10305000B70190E023D3E8CF512C312C20E020326F
:10306000A0F48B3269F030F4803259F0833269F485
:1030700020612CC08D3239F0803339F4216026C0B4
:103080002260246023C0286021C027FD27C030EDC6
:10309000380F3A3078F426FF06C0FAE05F9E300D14
:1030A0001124532E13C08AE0389E300D1124332E84
:1030B00020620CC08E3221F426FD5FC1206406C060
:1030C0008C3611F4206802C0883641F4F60193FD75
:1030D000859193FF81916F018111C1CF982F9F7DC1
:1030E0009554933028F40C5F1F4FFFE3F9830DC014
:1030F000833631F0833771F0833509F057C021C032
:10310000F801808189830E5F1F4F44244394512C22
:10311000540114C03801F2E06F0E711CF801A08058
:10312000B18026FF03C0652D70E002C06FEF7FEF16
:10313000C5012C87A8D22C0183012C852F77222E44
:1031400016C03801F2E06F0E711CF801A080B1804A
:1031500026FF03C0652D70E002C06FEF7FEFC50151
:103160002C8786D22C012C852068222E830123FCFB
:1031700019C0832D90E048165906A0F4B70180E2EB
:1031800090E08CD23A94F5CFF50127FC859127FE8B
:1031900081915F01B70190E081D231103A94F1E062
:1031A0004F1A51084114510479F7DEC0843611F0EA
:1031B000893631F5F80127FF07C06081718182816E
:1031C00093810C5F1F4F08C060817181072E000C36
:1031D000880B990B0E5F1F4F2F76722E97FF09C039
:1031E00090958095709561957F4F8F4F9F4F206888
:1031F000722E2AE030E0A40189D2A82EA81843C07C
:10320000853729F42F7EB22E2AE030E025C0F22F38
:10321000F97FBF2E8F36C1F018F4883579F0ADC034
:10322000803719F0883721F0A8C02F2F2061B22EE7
:10323000B4FE0DC08B2D8460B82E09C024FF0AC0D7
:103240009F2F9660B92E06C028E030E005C020E12F
:1032500030E002C020E132E0F801B7FE07C0608133
:103260007181828193810C5F1F4F06C060817181E3
:1032700080E090E00E5F1F4FA40148D2A82EA8184E
:10328000FB2DFF777F2E76FE0BC0372D3E7FA514DA
:1032900050F474FE0AC072FC08C0372D3E7E05C093
:1032A000BA2C372D03C0BA2C01C0B52C34FF0DC089
:1032B000FE01EA0DF11D8081803311F4397E09C0D1
:1032C00032FF06C0B394B39404C0832F867809F00C
:1032D000B39433FD12C030FF06C05A2CB31418F457
:1032E000530C5B18B32CB31460F4B70180E290E088
:1032F0003C87D4D1B3943C85F6CFB31410F43B187B
:1033000001C0312C34FF11C0B70180E390E03C874D
:10331000C5D13C8532FF16C031FD03C088E790E07F
:1033200002C088E590E0B7010CC0832F867851F089
:1033300031FF02C08BE201C080E237FD8DE2B701B0
:1033400090E0ACD1A51430F4B70180E390E0A6D1B1
:103350005A94F8CFAA94F401EA0DF11D8081B701C7
:1033600090E09CD1A110F6CF332009F45DCEB701D7
:1033700080E290E093D13A94F7CFF701868197816C
:1033800002C08FEF9FEF2C96E2E160C3A0E0B0E0B7
:10339000EBECF9E143C3EC017B016115710519F018
:1033A000DB018D939C938E010F5F1F4F7880872DDB
:1033B00090E03ED1892B11F0E801F5CFBDE27B1200
:1033C00005C00F5F1F4F7980C1E008C0EBE27E129D
:1033D00004C08E010E5F1F4F7980C0E06801F1E0EC
:1033E000CF1AD10843E050E068EE71E0C60128D161
:1033F000892BE9F4680122E0C20ED11C45E050E0BF
:1034000063EE71E0C6011CD1892B21F4680187E0CD
:10341000C80ED11CE114F10419F0D701CD92DC9251
:10342000C111F9C060E070E080E89FE7FDC043E0B3
:1034300050E060EE71E0C60103D1892B51F4E11434
:10344000F10409F4EDC00E5F1F4FF70111830083F3
:10345000E7C0680160E070E0CB0100E010E0F60139
:10346000D0EDD70DDA3050F52C2F2260622E2C2FA4
:103470002870C2FF05C0211127C00F5F1F4F24C055
:10348000222311F001501109A5E0B0E09B01AC012D
:10349000B7D24B015C01880C991CAA1CBB1CC5014E
:1034A000B4016D0F711D811D911D6839A9E97A075D
:1034B0008A07A9E19A0740F0C66005C0DE3F51F4D3
:1034C000C3FD44C0C8606C2EBFEFCB1ADB0A70800E
:1034D000C62DC5CF2D2F2F7D2531C1F540814D3211
:1034E00011F4C06106C04B3221F0319621E030E08A
:1034F00006C03296D60111964C9122E030E0A0ED44
:10350000A40FAA3018F0E21BF30B20C040E050E0FB
:103510004038BCE05B075CF49A01220F331F220F96
:10352000331F420F531F440F551F4A0F511D319631
:10353000DF0111972C91A0EDA20FAA3048F3C4FF30
:1035400003C0519541955109040F151FC1FF07C0D4
:10355000E114F10421F03197D701ED93FC9338D1B8
:10356000C370C33019F06B017C0106C06B017C0194
:10357000F7FAF094F7F8F09420E030E0A901C701E1
:10358000B60122D1882309F443C017FF06C0119564
:1035900001951109CFEFD1E002C0C7E1D2E05E0191
:1035A000B8E1AB1AB1084601BE2DAF2D90E2E92E6D
:1035B000F12C0E151F057CF0FE01259135914591EA
:1035C0005491B4018B2F9A2F64D14B01B82FA92F9E
:1035D0000E191F09EECF2497F594E794CA15DB0561
:1035E00041F76401EB2EFA2E8E2D880F8F2D881F48
:1035F0008F3F41F020E030E0A901C701B601E4D0DF
:10360000811106C082E290E09093C9048093C804BF
:10361000C701B60109C060E070E080E89FEF04C018
:1036200060E070E080EC9FE7CDB7DEB7EEE012C25D
:10363000911192C1803219F089508550D0F70895C8
:10364000FB01DC014150504088F08D9181341CF029
:103650008B350CF4805E659161341CF06B350CF495
:10366000605E861B611171F3990B0895881BFCCF76
:10367000FC010590615070400110D8F7809590953D
:103680008E0F9F1F0895FC01615070400190011042
:10369000D8F7809590958E0F9F1F08950F931F93D5
:1036A000CF93DF93FB01238121FD03C08FEF9FEFB9
:1036B00028C022FF16C046815781248135814217D8
:1036C000530744F4A081B1819D012F5F3F4F3183A7
:1036D00020838C93268137812F5F3F4F378326834A
:1036E00010C0EB01092F182F0084F185E02D0995FA
:1036F000892BE1F68E819F8101969F838E83812F96
:10370000902FDF91CF911F910F910895FA01AA2771
:10371000283051F1203181F1E8946F936E7F6E5F14
:103720007F4F8F4F9F4FAF4FB1E03ED0B4E03CD0C2
:10373000670F781F891F9A1FA11D680F791F8A1FA5
:10374000911DA11D6A0F711D811D911DA11D20D00C
:1037500009F468943F912AE0269F11243019305DC6
:103760003193DEF6CF010895462F4770405D4193B7
:10377000B3E00FD0C9F7F6CF462F4F70405D4A3304
:1037800018F0495D31FD4052419302D0A9F7EACFCC
:10379000B4E0A6959795879577956795BA95C9F7FB
:1037A00000976105710508959B01AC010A2E0694EE
:1037B0005795479537952795BA95C9F7620F731FA7
:1037C000841F951FA01D089540D008F481E008953E
:1037D000E89409C097FB3EF49095809570956195AB
:1037E0007F4F8F4F9F4F9923A9F0F92F96E9BB2761
:1037F0009395F695879577956795B795F111F8CFDD
:10380000FAF4BB0F11F460FF1BC06F5F7F4F8F4F47
:103810009F4F16C0882311F096E911C0772321F03D
:103820009EE8872F762F05C0662371F096E8862FD5
:1038300070E060E02AF09A95660F771F881FDAF72C
:10384000880F9695879597F90895990F0008550F59
:10385000AA0BE0E8FEEF16161706E807F907C0F016
:1038600012161306E407F50798F0621B730B840B1E
:10387000950B39F40A2661F0232B242B252B21F4F8
:1038800008950A2609F4A140A6958FEF811D811D98
:1038900008950BD07BC06CD028F071D018F0952320
:1038A00009F05DC062C01124A5C081D0A0F3959F2E
:1038B000D1F3950F50E0551F629FF001729FBB2717
:1038C000F00DB11D639FAA27F00DB11DAA1F649FC3
:1038D0006627B00DA11D661F829F2227B00DA11D76
:1038E000621F739FB00DA11D621F839FA00D611DFC
:1038F000221F749F3327A00D611D231F849F600D1D
:10390000211D822F762F6A2F11249F5750408AF055
:10391000E1F088234AF0EE0FFF1FBB1F661F771FE1
:10392000881F91505040A9F79E3F510570F017C075
:1039300061C05F3FECF3983EDCF386957795679521
:10394000B795F795E7959F5FC1F7FE2B880F911DFF
:103950009695879597F9089599278827089597F957
:103960009F6780E870E060E008959FEF80EC089525
:1039700000240A941616170618060906089500244E
:103980000A9412161306140605060895092E0394C8
:10399000000C11F4882352F0BB0F40F4BF2B11F43C
:1039A00060FF04C06F5F7F4F8F4F9F4F089557FD9B
:1039B0009058440F551F59F05F3F71F04795880F9D
:1039C00097FB991F61F09F3F79F087950895121634
:1039D00013061406551FF2CF4695F1DF08C01616E0
:1039E00017061806991FF1CF869571056105089491
:1039F0000895E894BB2766277727CB0197F90895A8
:103A000040D0A59F900DB49F900DA49F800D911D57
:103A1000112408952F923F924F925F926F927F925E
:103A20008F929F92AF92BF92CF92DF92EF92FF92CE
:103A30000F931F93CF93DF93CDB7DEB7CA1BDB0B7A
:103A40000FB6F894DEBF0FBECDBF09942A8839881F
:103A500048885F846E847D848C849B84AA84B98426
:103A6000C884DF80EE80FD800C811B81AA81B98132
:103A7000CE0FD11D0FB6F894DEBF0FBECDBFED0146
:103A80000895A29FB001B39FC001A39F700D811D37
:103A90001124911DB29F700D811D1124911D089557
:043AA000F894FFCFC8
:103AA400430248024E020000000000000000000033
:103AB4000000000000000000000000000000000002
:103AC4000000000000000000000000000000451598
:103AD40046020B1224133E13DE15A314FB133A13F0
:103AE4003E02B0134313281304124D128E136A13AB
:103AF40000000000E109B2096401C904A309D90462
:103B0400CA0400000000CE013801670114029801C4
:103B140076018A010000000000000000000000009F
:103B24000000000000000000000000000000000091
:103B340000000000000000000000000045154602DF
:103B44000B1224133E13DE15A314FB133A133E0287
:103B5400B0134313281304124D128E136A13E0FF9B
:103B64000000B003480A9C012E012E019C010000B4
:103B74000000480246023304300445024402A50210
:103B8400A50243024102A502A502A502A502A502BF
:103B9400A502A50215031C03B6022203244F4244C6
:103BA400244750532447534D467265656D617469CB
:103BB4006373204F4E45004669726D7761726520CC
:103BC4005665722E20000D0A0034312000415452F3
:103BD400560D002073616D706C65732000303130B8
:103BE400440D0041545A0D00415445300D004154D8
:103BF40048300D005374616E6462790057616B65DF
:103C04007570004D454D5320004F4B004E4F004FF3
:103C1400424420004750532000303930320D0034E4
:103C2400392030320056494E3A002447534D004162
:103C3400544C500D004E4F20524541445920534995
:103C4400474E414C004255464645522046554C4C41
:103C540000524543562054494D454F555400415454
:103C64004752440D00415447534D5057520D0041A3
:103C740054434C5247534D0D0041544750530D008B
:103C8400244750532C0041544750534F4E0D00418C
:103C9400544752520D005324470041544750534F48
:103CA40046460D004154490D004F4244554152547B
:103CB4000041540D00554E41424C45004552524F6F
:103CC40052004E4F2044415441004154520D0000D3
:00000001FF
