:100000001CC1000042C1000040C100003EC1000010
:100010003CC100003AC10000FAC2000036C1000035
:1000200034C1000032C1000030C100002EC1000008
:100030002CC100002AC1000028C1000026C1000018
:10004000AEC7000022C100007AC5000053C5000001
:100050001CC100001AC1000018C1000016C1000038
:100060000C940F1512C100003F2639266B266B2613
:100070006B266B263226A0262B26A0264E26392656
:1000800047263F26A026A026A026A026A026A026FA
:10009000A026A026A026A026A026A026A026572679
:1000A000A0265726A026A026A026A026A026A02669
:1000B000A026A026A026A0263F266B263F263F2668
:1000C000A02657262B26A026A026A026A026A026BE
:1000D000A026A026A026A026902690269026902630
:1000E000A026A0265A263F2698263F2639263F26B8
:1000F0003F263F263F263F263F2657265726A02647
:10010000A026A0263F26A026A026A026A026A02620
:10011000A0265726A0263F26392680265E26A02622
:10012000A026632663265726FC270628322809289E
:100130001A2826283F282C28256C752C25582C2574
:10014000643B25643B256400256C752C25582C25C3
:10015000640000000000250028002B007C3C3E5E6F
:100160002B3D3F2F5B5D3B2C2A225C0000000000F2
:10017000240027002A00444154253035752E43536E
:1001800056002530386C752E435356004154425268
:1001900032256C750D0025303258253032580D004F
:1001A00000000000230026002900040404040404C5
:1001B0000404020202020202030303030303010216
:1001C00004081020408001020408102001020408E5
:1001D00010200000000800020100000304070000D6
:1001E000000000000000256C752C25582C256C752E
:1001F00000256C752C25582C256C64004E414E4909
:100200004E495459494E46CDCCCC3D0AD7233C17D4
:10021000B7D13877CC2B329595E6241FB14F0A0021
:100220000020410000C84200401C4620BCBE4CCA11
:100230001B0E5AAEC59D74006D2911241FBECFEF51
:10024000D8E0DEBFCDBF12E0A0E0B1E0E6E5F5E624
:1002500002C005900D92A439B107D9F726E0A4E9B0
:10026000B2E001C01D92A13DB207E1F711E0CDE17E
:10027000D1E004C02197FE010E946E2ACC31D10743
:10028000C9F70E9451240C94A932BACEDC015996C8
:10029000ED91FC915A973097B9F083899489A5899B
:1002A000B6894285538564857585841B950BA60B9D
:1002B000B70B811520E89207A105B10538F08FEF43
:1002C0009FE7A0E0B0E0089580E090E00895CF932C
:1002D000DF931F92CDB7DEB76983DC01ED91FC910E
:1002E0000280F381E02D41E050E0BE016F5F7F4F5F
:1002F00009950F90DF91CF910895CF92DF92EF9201
:10030000FF920F931F93CF93DF936C017A018B01C0
:10031000C0E0D0E0CE15DF0589F0D8016D918D01E8
:10032000D601ED91FC910190F081E02DC601099577
:10033000892B11F47E0102C02196ECCFC701DF9119
:10034000CF911F910F91FF90EF90DF90CF90089584
:10035000FC01538D448D252F30E0842F90E0821BCB
:10036000930B541710F0CF96089501970895FC0150
:10037000918D828D981761F0828DDF01A80FB11DDC
:100380005D968C91928D9F5F9F73928F90E0089500
:100390008FEF9FEF0895FC01918D828D981731F0BA
:1003A000828DE80FF11D858D90E008958FEF9FEF0E
:1003B0000895FC01918D228D892F90E0805C9F4FE4
:1003C000821B91098F739927089581E795E0F1DFEA
:1003D00021E0892B09F420E0822F0895FC01848D0F
:1003E000DF01A80FB11DA35ABF4F2C91848D90E05F
:1003F00001968F739927848FA689B7892C93A0893A
:10040000B1898C9180648C93938D848D981306C0F0
:100410000288F389E02D80818F7D80830895EF929B
:10042000FF920F931F93CF93DF93EC0181E0888FAE
:100430009B8D8C8D981305C0E889F989808185FD95
:1004400023C0F62E0B8D10E00F5F1F4F0F73112787
:10045000E02E8C8DE8120BC00FB607FCFACFE889AE
:10046000F989808185FFF5CFCE01B8DFF2CF8B8D82
:10047000FE01E80FF11DE35AFF4FF0820B8FEA896E
:10048000FB898081806207C0EE89FF896083E889EB
:10049000F98980818064808381E090E0DF91CF9151
:1004A0001F910F91FF90EF900895CF93DF93EC0190
:1004B000888D8823C1F0EA89FB89808185FD05C08C
:1004C000A889B9898C9186FD0EC00FB607FCF5CFBF
:1004D000808185FFF2CFA889B9898C9185FFEDCF06
:1004E000CE017CDFE8CFDF91CF91089580E090E0EE
:1004F000892B21F06ADF81110C9400000895089582
:1005000080E090E008953FB7F8948091A002909128
:10051000A102A091A202B091A30226B5A89B05C09A
:100520002F3F19F00196A11DB11D3FBFBA2FA92F72
:10053000982F8827820F911DA11DB11DBC01CD01EF
:1005400042E0660F771F881F991F4A95D1F70895DB
:10055000FC01818D928D009709F042C70895CF93D9
:10056000DF93EC01898D9A8D009739F481E090E05A
:100570009B838A8380E090E00BC0FC01138212828F
:100580000E94340FE98DFA8D22813381232B71F77C
:10059000DF91CF9108950E949F2CCF92DF92EF922E
:1005A000FF921F93CF93DF93CDB7DEB728970FB697
:1005B000F894DEBF0FBECDBF6B0198E0EAE0F1E03A
:1005C000DE01119601900D929A95E1F7CE01019608
:1005D0007C0110E0F701619171917F01C6010E94D9
:1005E000DB2C1F5F892B11F0812F03C0143091F792
:1005F00080E028960FB6F894DEBF0FBECDBFDF9126
:10060000CF911F91FF90EF90DF90CF9008951F92B0
:100610000F920FB60F9211248F93EF93FF930FB6A3
:10062000F894A89580916000886180936000109292
:1006300060000FBEA895E0E6F0E080818F7B8083AC
:10064000FF91EF918F910F900FBE0F901F90189513
:1006500008958EBD00000DB407FEFDCF8EB5089540
:100660008CBD9DBD0895EF92FF920F931F93CF9382
:10067000DF9300D0CDB7DEB7142F81E080933B032A
:1006800088E680935D0310923C0310925E0381E63E
:1006900095E029833A830E94111280E00E9475231D
:1006A000612F70E088E690E00E94EB232981022F01
:1006B000E22E3A81F32E9091F2028091F302981784
:1006C00061F08E2D801B811740F481E695E00E9439
:1006D000C611F70181937F01EECF0F900F90DF914C
:1006E000CF911F910F91FF90EF900895EF92FF929D
:1006F0000F931F93CF93DF93EC017B018A011B8241
:100700001A8288EE93E0A0E0B0E08C839D83AE83F4
:10071000BF8382E591E0998388838DE190E00E9418
:10072000722B9A8F898F009779F02DE1F701DC0108
:1007300001900D922A95E1F74CE050E0B801CE010E
:100740000C960E94CC2C188EDF91CF911F910F91A7
:10075000FF90EF9008952F923F924F925F926F9289
:100760007F928F929F92AF92BF92CF92DF92EF9241
:10077000FF920F931F93CF93DF9300D0CDB7DEB7D7
:10078000FC018581882309F4D9C0848180FFD6C00B
:1007900021E02A83438954896589768982859385F6
:1007A000A485B585481759076A077B0709F41A829B
:1007B0006F013A81832F90E0DE0111964D013F01D8
:1007C000B6E06B0E711C892B09F47DC0D6011A9618
:1007D0004D915D916D917C911D975A01B1E0BB22C5
:1007E000F60125811A012B0189E05694479437942C
:1007F00027948A95D1F7838D948D223061F4FC0182
:10080000828D938DA48DB58DBC01CD01620D731DBC
:10081000841D951D45C0DC0114961C9111501221B8
:10082000A114B104D1F4111118C0452B462B472B4C
:1008300051F4F6018789908DA18DB28D86839783BF
:10084000A087B1870AC04681578160857185930171
:100850000E94E217882309F471C0F601238D348DBC
:1008600086819781A085B1850297A109B109AC0164
:10087000BD01F901058404C0440F551F661F771F91
:100880000A94D2F786859785A089B189840F951F30
:10089000A61FB71FBC01CD01610F711D811D911DE8
:1008A000D60114962C9126FF14C0009100011091DE
:1008B0000101209102013091030160177107820745
:1008C000930751F506C0FA81FF23C1F1898190E0B9
:1008D00037C040E00E94FB16882381F1F501E15A00
:1008E000FC4FD401CF010196E817F90719F02191C7
:1008F0002D93FACFEFEF8E1A9E0AF601828593852B
:10090000A485B5850196A11DB11D82879387A48713
:10091000B58780E090E057CF740101E010E09501C9
:10092000AB01BC0180915F05909160050E94460E6D
:10093000882321F0BFEF8B1A9B0ADFCF8FEF9FEF49
:100940000F900F90DF91CF911F910F91FF90EF903B
:10095000DF90CF90BF90AF909F908F907F906F90DF
:100960005F904F903F902F900895FC01818D928D64
:10097000009709F0F0CE8FEF9FEF08950F931F932C
:10098000CF93DF93FC01818D928D0097A9F0EF0149
:10099000E2DE8C010F3F8FEF180789F0898D9A8D69
:1009A000FC01428553856485758541505109610973
:1009B000710954D5C80105C080E090E002C08FEFF6
:1009C0009FEFDF91CF911F910F910895833081F0B8
:1009D00028F4813099F08230A1F008958730A9F091
:1009E0008830B9F08430D1F4809180008F7D03C0CD
:1009F000809180008F7780938000089584B58F77F1
:100A000002C084B58F7D84BD08958091B0008F773A
:100A100003C08091B0008F7D8093B00008951F9334
:100A2000CF93DF93282F30E0F901EE52FE4F8491EF
:100A3000F901E254FE4FD491F901E655FE4FC491FD
:100A4000CC23C1F0162F8111C1DFEC2FF0E0EE0FA7
:100A5000FF1FEE5AFE4FA591B4918FB7F894111174
:100A600005C09C91ED2FE095E92302C0EC91ED2BA0
:100A7000EC938FBFDF91CF911F910895CF93DF93B8
:100A800090E0FC01E254FE4F2491FC01E655FE4F3C
:100A90008491882361F190E0880F991FFC01E4594B
:100AA000FE4FC591D491FC01EE5AFE4FA591B49131
:100AB000611109C09FB7F8948881209582238883AB
:100AC000EC912E230BC0623061F49FB7F89438810B
:100AD000822F809583238883EC912E2B2C939FBFAC
:100AE00006C08FB7F894E8812E2B28838FBFDF9143
:100AF000CF9108951F920F920FB60F9211242F934A
:100B00003F934F935F936F937F938F939F93AF9395
:100B1000BF93EF93FF9381E795E060DCFF91EF9146
:100B2000BF91AF919F918F917F916F915F914F9105
:100B30003F912F910F900FBE0F901F9018951F920D
:100B40000F920FB60F9211242F938F939F93EF93D1
:100B5000FF93E0918105F09182058081E091870506
:100B6000F091880582FD12C0908180918A058F5F87
:100B70008F7320918B05821751F0E0918A05F0E088
:100B8000EF58FA4F958F80938A0501C08081FF91BD
:100B9000EF919F918F912F910F900FBE0F901F900B
:100BA0001895CF93DF93EC0150E087E696E0D7DC11
:100BB0006AE087E696E08BDB488159816A817B8118
:100BC0004F5F5F4F6F4F7F4F488359836A837B83AB
:100BD000DF91CF910895EF92FF920F931F93CF93E0
:100BE000DF93CDB7DEB768970FB6F894DEBF0FBEC0
:100BF000CDBF8C015F934F937F936F93FC018381F3
:100C00008F9382818F9381818F9380818F9388E4EA
:100C100091E09F938F93CE0101967C019F938F93D8
:100C20000E943C2D482FB701C8010496BADF0FB6C9
:100C3000F894DEBF0FBECDBF68960FB6F894DEBF46
:100C40000FBECDBFDF91CF911F910F91FF90EF901D
:100C500008958F929F92AF92BF92CF92DF92EF92C0
:100C6000FF926B017C014FDC4B015C01C114D1048C
:100C7000E104F104E9F047DCDC01CB0188199909B2
:100C8000AA09BB09883E9340A105B10578F321E08C
:100C9000C21AD108E108F10888EE880E83E0981E98
:100CA000A11CB11CC114D104E104F10421F7DECF71
:100CB000FF90EF90DF90CF90BF90AF909F908F907C
:100CC0000895EF92FF920F931F93CF93DF937C01D0
:100CD000EB0160E087E0A3DE80916F0590917005E5
:100CE000BFDC8881843299F000E010E0F70196893A
:100CF000F80184E0989FE00DF11D1124EE5EFE4F97
:100D00008081A7DC0F5F1F4F0430110579F78991AF
:100D1000882311F09EDCFBCF8BE19BDC61E070E06F
:100D200080E090E096DF61E087E0DF91CF911F9156
:100D30000F91FF90EF9073CE0F931F93CF93DF939C
:100D4000CDB7DEB7A0970FB6F894DEBF0FBECDBF0C
:100D500000E117E220E2AE014F5F5F4F67EA71E00A
:100D60000E940F1160ED77E080E090E072DFA096C6
:100D70000FB6F894DEBF0FBECDBFDF91CF911F91AC
:100D80000F9108952FB7F89460919C0270919D0285
:100D900080919E0290919F022FBF08952F923F92C3
:100DA0004F925F926F927F928F929F92AF92BF927B
:100DB000DF92EF92FF920F931F93CF93DF9300D0B8
:100DC00000D01F92CDB7DEB79A8389838B013A0199
:100DD0007901D8DF4B015C011D821C82130121E0E7
:100DE000221A31082701612C712C61E070E080E04B
:100DF00090E02FDFC7DFDC01CB0188199909AA0930
:100E0000BB09481659066A067B0618F480E090E094
:100E1000AFC00E94F520019741F380916F0590913A
:100E200070051EDC6AE070E080E090E012DF60E0B8
:100E300087E0F5DDD12C0E94F5202701612C712C73
:100E4000892B09F063C09EDFDC01CB018819990969
:100E5000AA09BB0984159505A605B70508F056C073
:100E600080E2F7DB482FD110E6CF2C813D81232B88
:100E700039F4443201F7F801408321E030E043C007
:100E80002C813D8127303105C4F0F80181818F34F8
:100E9000A1F44E3291F4200F311FF9013197808176
:100EA0008E3271F4319780818E3251F4F0EFEF1A67
:100EB000F8EDFF0A24E030E026C0442309F4BBCF5C
:100EC0002C813D812215330561F4B901C8014B83A2
:100ED0000E9495162C813D81281B390B3D832C8364
:100EE0004B81EC81FD81E00FF11F4083493039F4E3
:100EF0003197DD24D39480818E3309F0D12C2C815D
:100F00003D812F5F3F4F3D832C8395CF61E087E08C
:100F100086DDD1100DC036DFDC01CB0188199909BF
:100F2000AA09BB0984159505A605B70508F45ACF8B
:100F3000EC80FD8027DFDC01CB0188199909AA0923
:100F4000BB0984159505A605B70508F05FCFE981B3
:100F5000FA818689833039F0DD2029F0EC80FD802C
:100F6000F1E0EF1AF108F801EE0DFF1D1082C70144
:100F70000F900F900F900F900F90DF91CF911F91D6
:100F80000F91FF90EF90DF90BF90AF909F908F9068
:100F90007F906F905F904F903F902F9008951F9299
:100FA0000F920FB60F9211242F933F938F939F931D
:100FB000AF93BF9380919C0290919D02A0919E025D
:100FC000B0919F0230919B0223E0230F2D3720F434
:100FD0000196A11DB11D05C026E8230F0296A11D93
:100FE000B11D20939B0280939C0290939D02A0933D
:100FF0009E02B0939F028091A0029091A102A091C5
:10100000A202B091A3020196A11DB11D8093A0027E
:101010009093A102A093A202B093A302BF91AF91BB
:101020009F918F913F912F910F900FBE0F901F9026
:1010300018953F924F925F926F927F928F929F92FC
:10104000AF92BF92CF92DF92EF92FF920F931F93D6
:10105000CF93DF93CDB7DEB72C970FB6F894DEBFF2
:101060000FBECDBF5C01DC015B968D909C905C97C0
:101070001696CD90DD90ED90FC901997C114D10497
:10108000E104F10439F0BFEFCB1ADB0AEB0AFB0AEB
:10109000312C07C0F401C080D180E280F38033247A
:1010A0003394F40181859285A385B4859C01AD01BB
:1010B0002F5F3F4F4F4F5F4F29873A874B875C87A2
:1010C000260137011D821E821F821886F401818548
:1010D0009285A385B4852D813E814F81588528173F
:1010E00039074A075B0708F063C089859A85AB8595
:1010F000BC858C159D05AE05BF0550F482E0C82E59
:10110000D12CE12CF12C92E0492E512C612C712C28
:101110009E012F5F3F4FB701A601C4010E94E21755
:10112000882309F445C089819A81AB81BC81892BD0
:101130008A2B8B2B41F0260137019FEF491A590A60
:10114000690A790A05C0C414D504E604F70491F0CD
:101150002D813E814F8158852F5F3F4F4F4F5F4F0D
:101160002D833E834F8358873FEFC31AD30AE30A88
:10117000F30AACCF0FEF1FEF2FEF3FE0B301A20157
:10118000C4010E944317882399F0D50116964D910A
:101190005D916D917C91199741155105610571051E
:1011A00049F093018201C4010E944317811102C0DA
:1011B00080E02AC0D50116964D925D926D927C9288
:1011C0001997332051F0D301C2010196A11DB11D21
:1011D000F40180839183A283B383F5018789908D85
:1011E000A18DB28D892B8A2B8B2B69F4D501579653
:1011F0004D925D926D927C925A9714968C911497B1
:10120000806814968C9381E02C960FB6F894DEBF1C
:101210000FBECDBFDF91CF911F910F91FF90EF9047
:10122000DF90CF90BF90AF909F908F907F906F9006
:101230005F904F903F9008952F923F924F925F9210
:101240006F927F928F929F92AF92BF92CF92DF92D6
:10125000EF920F931F93CF93DF93CDB7DEB72A970B
:101260000FB6F894DEBF0FBECDBF1C016B015A83D1
:101270004983590187DD2B013C011A861986298192
:101280003A81205131093C832B83C501A0E0B0E0B5
:101290008D839E83AF83B887A985BA85EB81FC8156
:1012A000AE17BF0754F0BD01C6010E9495162985EF
:1012B0003A85281B390B3A87298762E370E080E082
:1012C00090E0C7DC89849A848C0C9D1CD1015696D1
:1012D0001C9262E072E0C101F4DC49815A81E98527
:1012E000FA854E1B5F0B4150510924E630E0B401F2
:1012F000C10154DD5C01181619060CF040C044E031
:1013000050E069E072E0C4010E94A32C892BC9F56A
:1013100045E050E061EA71E089859A8506968C0D7A
:101320009D1D0E94A32C892B61F1F4E0AF1AB10836
:1013300069857A856C5F7F4F6C0D7D1DA501C401A9
:101340000E94B02C29853A852A0D3B1D3A872987B2
:10135000F901EC0DFD1D10825801912C9E1489F0AD
:10136000D5016D917D915D01939461157105B1F386
:10137000C6010E94DB2C892B89F3892D19C00196A7
:1013800089F000DDDC01CB0184199509A609B709B4
:101390002D813E814F81588582179307A407B50799
:1013A00008F47ACFE985FA85EC0DFD1D108280E006
:1013B0002A960FB6F894DEBF0FBECDBFDF91CF9156
:1013C0001F910F91EF90DF90CF90BF90AF909F90C3
:1013D0008F907F906F905F904F903F902F900895E7
:1013E000CF93DF93EC018D818823A1F18C8187FF5E
:1013F0002DC06E857F858889998941E00E94FB1602
:10140000882341F1EA8980E2E89FF0011124DF019D
:10141000A15ABC4F1097F1F08D81823050F44B8966
:101420005C896D897E895C964D935D936D937C9309
:101430005F978F89988DA98DBA8DE15AFC4F938F54
:10144000828FB58BA48B8C818F778C83DF91CF912A
:101450000C94C01680E0DF91CF9108958F929F92F7
:10146000AF92BF92CF92DF92EF92FF920F931F93B2
:10147000CF93DF93EC018D81811102C080E077C0B2
:101480000B891C892D893E89041715072607370704
:10149000A8F36A017B01823029F4CA86DB86EC86D8
:1014A000FD860DC0C114D104E104F10451F41E8283
:1014B0001F82188619861A861B861C861D8681E067
:1014C00056C08A849B84AC84BD84EB8DFC8D2585BD
:1014D00030E0275F3F4FB501A40141505109610938
:1014E0007109022E04C076956795579547950A9421
:1014F000D2F7D701C6010197A109B10904C0B69579
:10150000A795979587952A95D2F784179507A607EB
:10151000B70720F089288A288B2849F44F89588DED
:10152000698D7A8D4E835F836887798704C0841BB9
:10153000950BA60BB70B4C015D018E010A5F1F4F87
:1015400081149104A104B10409F4A7CF4E815F81F5
:101550006885798598018B8D9C8D0E94E21791E0BA
:10156000891A9108A108B1088111EACF87CFDF91CC
:10157000CF911F910F91FF90EF90DF90CF90BF9090
:10158000AF909F908F9008958F929F92AF92BF924D
:10159000CF92DF92EF92FF920F931F93CF93DF933F
:1015A00000D000D0CDB7DEB77C0180E2689F60013B
:1015B00011249601215A3C4FD9011B969C9191719F
:1015C00021F0842F827409F096C0142FF701628BEA
:1015D0008091000190910101A0910201B09103015D
:1015E00086879787A08BB18BF601E15AFC4F44891F
:1015F000558960E070E0BA0155274427D701579616
:101600004D935D936D937C935A97828D938DA0E05B
:10161000B0E0482B592B6A2B7B2BD70157964D9363
:101620005D936D937C935A97D9011B968C91887129
:1016300059F4848D958DA68DB78DF701838B948B8E
:10164000A58BB68B81E012C0803109F054C09701A0
:101650002D5E3F4FD7015B968D919C915C970E94C8
:101660006518882309F447C084E0F7018583812F3A
:101670008F70D70114968C931497F70116821782F6
:10168000108611861A961D921D921D921C921D970E
:1016900016FF33C015968C91813069F511FF2BC070
:1016A000F7014389548965897689452B462B472B59
:1016B00009F45EC040E050E0BA01C701CFDE8823E4
:1016C000D1F0F7018788908CA18CB28CC38CD48C1C
:1016D00082E090E0A0E0B0E0F60180839183A283F5
:1016E000B3839E012F5F3F4FB501A401C6010E9445
:1016F000E217811104C080E03BC081E039C000E006
:1017000010E09801B501A401C6010E944317882387
:1017100091F389809A80AB80BC80D60157968C91DA
:10172000803129F088EF9FEFAFEFBFE004C088EF72
:101730009FEFA0E0B0E088169906AA06BB0688F2E3
:10174000D70157961D921D921D921C925A97F70130
:10175000138A148A158A168A848180688483C70153
:101760003FDE882341F240E050E0BA01C70176DE57
:101770000F900F900F900F90DF91CF911F910F91CD
:10178000FF90EF90DF90CF90BF90AF909F908F90A1
:1017900008954F925F926F927F929F92AF92BF9205
:1017A000CF92DF92EF92FF920F931F93CF93DF932D
:1017B000CDB7DEB72B970FB6F894DEBF0FBECDBF07
:1017C0007C01DC011596AC90A11088C1FE01319618
:1017D0006F0190E28BE08E0F91938E13FDCFDA01B3
:1017E00030E087E09D91992339F19E3219F0ECE5C4
:1017F000F1E00AC08A3009F472C138E08AE0F2CF21
:101800003196491709F46BC144914111F9CF8317FF
:1018100008F465C14FED490F4E3508F060C141E055
:10182000430FF601E30FF11D3FE9390F3A3108F498
:1018300090529083342FD6CF8981803209F44FC1E2
:10184000B22E8B01DB015B968D919C915C97F70129
:10185000948F838F16961D921D921D921C9219973C
:10186000FB011286138614861586712CF801828579
:101870009385A485B58543895489658976898417BC
:101880009507A607B70708F061C025E0B695A795AC
:10189000979587952A95D1F7F82FFF706F2ED8016D
:1018A00015968C91823008F41AC1C8010E94AB03CE
:1018B00097FD15C1F80182859385A485B5854F965E
:1018C000A11DB11D82879387A487B587F0E26F9E23
:1018D000C0011124BC01615A7C4F6115710509F4E6
:1018E000FEC0DB012C91222319F0253EC1F427C054
:1018F00071100EC0F701628A409100015091010100
:10190000609102017091030146875787608B718B4C
:10191000FC01E15AFC4F8081811113C015C04BE0DE
:1019200050E0C6010E94A32C892B09F09FCF8B2D7C
:101930008073803309F4D3C04B2D662DCBC0772044
:10194000C9F27724739492CF772473948B2D82718C
:10195000823109F0C4C07720D1F0D7011E966D9175
:101960007D918D919C91519741E00E94FB168823B7
:1019700009F4B5C0F7016289F0E26F9FB00111244C
:10198000615A7C4F6115710509F078C0A8C0D80173
:1019900015968C91823009F4A2C0C8014ADB8823D5
:1019A00009F49DC0D8015B96ED91FC915C97169669
:1019B0004D905D906D907C901997B2E04B1A510854
:1019C00061087108058404C0440C551C661C771C12
:1019D0000A94D2F786859785A089B189480E591E49
:1019E0006A1E7B1E9480E1E04E1A5108610871085E
:1019F000992009F10E94C016882309F470C0EFE510
:101A0000F3E0119225E0EF35F207D9F7D301C201D7
:101A1000890D911DA11DB11D8093000190930101BD
:101A2000A0930201B09303018091A502816080938D
:101A3000A5029A94DDCFD8015B96ED91FC915C975D
:101A400080E092E0A0E0B0E0058404C0880F991F18
:101A5000AA1FBB1F0A94D2F7F801438954896589EC
:101A60007689840F951FA61FB71F838B948BA58B38
:101A7000B68BD70152961C926FE573E080E2FB01B2
:101A800011928A95E9F78BE0F601DB0101900D9246
:101A90008A95E1F781E298E2DB0151969C938E935F
:101AA000509720E038E01F963C932E931E97539654
:101AB0009C938E93529759969C938E9358975796D2
:101AC0003C932E9356970E94C016882341F04B2DCD
:101AD000F7016289C70158DDA82E01C0A12C8A2D0B
:101AE0002B960FB6F894DEBF0FBECDBFDF91CF911E
:101AF0001F910F91FF90EF90DF90CF90BF90AF902C
:101B00009F907F906F905F904F900895CF93DF9359
:101B1000EC0166DC882311F01D8281E0DF91CF911A
:101B20000895CF93DF93EC018091A402811109C045
:101B300081E08093A40280916D0590916E050E94D2
:101B4000300360E08C81DF91CF910C940F0561E050
:101B5000FC0184810E940F058091A402882321F05A
:101B60001092A4020C94280308958FEF0C9429037B
:101B70000F931F93CF93DF93EB0104D98B01F5DF14
:101B80008F3F41F0FFD8601B710B6C177D07B8F3D6
:101B900080E001C081E0DF91CF911F910F91089506
:101BA000CF93DF93EC018E81882379F08F81988524
:101BB0009C012F5F3F4F38872F838230924010F473
:101BC000D4DFF4CFCE01C3DF1E82DF91CF91089521
:101BD000CF92DF92FF920F931F93CF93DF9300D0AA
:101BE00000D0CDB7DEB76C01F62E29833A834B8344
:101BF0005C83D6DFC60195DF6CE271E0C601B8DF19
:101C00008F2D80640E94290308E110E05C814B81E4
:101C10003A812981DA01C901002E04C0B695A79541
:101C2000979587950A94D2F729833A834B835C83EF
:101C30000E9429030850110929813A814B815C8156
:101C4000083F8FEF180731F7FF2029F0E8E0FE1278
:101C500004C087E803C085E901C08FEF0E94290313
:101C600010E083DFF601828787FF04C01F3F11F079
:101C70001F5FF7CF0F900F900F900F90DF91CF91D4
:101C80001F910F91FF90DF90CF900895AF92BF9278
:101C9000CF92DF92EF92FF920F931F93CF93DF9338
:101CA000EC016901C801820F931F8130924008F056
:101CB00068C08E81882371F088819981AA81BB8157
:101CC000481759076A077B0729F48F819885C8163A
:101CD000D90688F5488359836A837B838B85833053
:101CE00039F089E0440F551F661F771F8A95D1F799
:101CF0009A01AB0161E1CE016BDF882319F083E02B
:101D00008D833FC03FD85B0130DF8A878F3F41F42E
:101D100039D86A197B096D327140B0F38FE003C086
:101D20008E3F29F08DE08D83CE0111DF2AC0188609
:101D30001F8281E08E838F8198858C159D0538F4F4
:101D400014DF8F819885019698878F83F4CF670180
:101D5000E00EF11ECE14DF0429F007DFF6018193B7
:101D60006F01F8CF8F819885080F191F18870F838F
:101D70008985882319F00115124038F0CE0110DF53
:101D800004C0CE01E4DE80E001C081E0DF91CF91AC
:101D90001F910F91FF90EF90DF90CF90BF90AF9089
:101DA0000895EF92FF920F931F93CF93DF93EC016F
:101DB0007901411551056105710511F482E138C0C1
:101DC0008B85833039F089E0440F551F661F771FDC
:101DD0008A95D1F79A01AB0168E1CE01F9DE88233B
:101DE00011F084E025C08EEF0E94290387018EEF59
:101DF000F81AF80181918F010E9429030E151F0521
:101E0000C1F78FEF0E9429038FEF0E942903ADDEF7
:101E10008A878F71853029F081E18D83CE0197DE2D
:101E200008C068E572E0CE01A3DE811106C085E13D
:101E30008D83CE018CDE80E010C020E030E0A9016F
:101E40006DE0CE01C5DE811103C08FDE882311F065
:101E500084E1EECFCE017BDE81E0DF91CF911F9157
:101E60000F91FF90EF9008952F923F924F925F92C3
:101E70006F927F928F929F92AF92BF92CF92DF929A
:101E8000EF92FF920F931F93CF93DF9300D000D078
:101E9000CDB7DEB78C015B011A01DC0115968C9180
:101EA00015978130C1F414968C9181FF14C082FF84
:101EB0001AC0F8014389548965897689828593859A
:101EC000A485B58584179507A607B70761F0C801F3
:101ED000C5DA811108C081E090E0F8019383828324
:101EE00080E090E034C1610182C0D8015B968D91A1
:101EF0009C915C97FC01248121502A013B0139E02F
:101F000076946794579447943A95D1F7722E74203B
:101F10007A01F1E0FF22772009F475C080E092E0B9
:101F20008E199F0946018C159D0508F44C01D801B6
:101F30005B962D913C915C9716968D919D910D909D
:101F4000BC91A02D0297A109B109F901058404C033
:101F5000880F991FAA1FBB1F0A94D2F74685578581
:101F600060897189840F951FA61FB71F9C01AD0161
:101F7000270D311D411D511D29013A01811432E007
:101F8000930609F086C08091000190910101A09113
:101F90000201B091030184159505A605B70559F412
:101FA0008FEF9FEFDC018093000190930101A093DC
:101FB0000201B09303019501B301A20180915F0575
:101FC00090916005EEDE882309F485CF9EEFB91A63
:101FD000C818D908F80182859385A485B585880D30
:101FE000991DA11DB11D82879387A487B587D8014C
:101FF0001A964D915D916D917C911D97C114D104FC
:1020000009F073CF84C0E114F10409F087CF16966C
:102010004D915D916D917C91199741155105610527
:10202000710559F457968D919D910D90BC91A02DFD
:102030000097A105B10539F520C09E012F5F3F4FE4
:10204000C1D7882309F44DCF89819A81AB81BC81A6
:10205000F801238D348DF9012789203129F048EFCB
:102060005FEF6FEF7FE004C048EF5FEF60E070E08C
:1020700084179507A607B70730F0C8010E94190812
:1020800081114CCF28CFF80186839783A087B18731
:1020900045CFE114F10421F5D8011A964D915D91D7
:1020A0006D917C911D9753968D919D910D90BC9152
:1020B000A02D481759076A077B0790F061D688233F
:1020C00009F409CF4092000150920101609202018F
:1020D000709203018091A50281608093A50207C0E0
:1020E00041E0C301B20187D6882309F4F4CED501BB
:1020F000F701E15AFC4FCF01880D991DE817F90748
:1021000019F02D912193FACFA80CB91C61CF5396E9
:102110008D919D910D90BC91A02D84179507A607D8
:10212000B70740F4F801438B548B658B768B848121
:1021300080688483D80114968C9183FD02C0C1010C
:1021400006C0C8014DD9882309F4C5CEF8CF0F9039
:102150000F900F900F90DF91CF911F910F91FF90F3
:10216000EF90DF90CF90BF90AF909F908F907F9037
:102170006F905F904F903F902F900895FC01DB018E
:1021800012968D919C9113979383828386E791E0B9
:102190009183808314968C911497848315968C91E7
:1021A0001597858316964D915D916D917C91199748
:1021B00046835783608771871A964D915D916D9123
:1021C0007C911D9742875387648775871E964D9132
:1021D0005D916D917C91519746875787608B718B8C
:1021E00052968C915297828B53964D915D916D9141
:1021F0007C915697438B548B658B768B57964D917C
:102200005D916D917C915A97478B508F618F728F42
:102210005B968D919C915C97948F838F08952F92FC
:102220003F924F925F926F927F928F929F92AF9266
:10223000BF92CF92DF92EF92FF920F931F93CF93B3
:10224000DF9300D000D000D0CDB7DEB77C016B01AA
:102250005E834D832C830E94C2062B013C012C819E
:10226000222E312C8D819E8107969B838A83480183
:10227000A12CB12CB601C7010E9461069801A101F1
:102280006D817E81C7010E94CE068983882379F003
:10229000ED81FE8181818F34E9F045E050E061EA13
:1022A00071E08A819B810E94A32C892B99F464E1BF
:1022B00070E080E090E00E9429060E94C206DC01E6
:1022C000CB0184199509A609B70988159905AA05AE
:1022D000BB0580F2898126960FB6F894DEBF0FBE4B
:1022E000CDBFDF91CF911F910F91FF90EF90DF90C5
:1022F000CF90BF90AF909F908F907F906F905F90A6
:102300004F903F902F90089585ED8093BC00809171
:10231000BC0084FDFCCF10923A0308954091CC029A
:10232000262F30E0240F311D21323105DCF42091BD
:102330003A032430C9F4FC0180E090E0861758F499
:102340003091CC022191DC01A655BD4FA30FB11DE8
:102350002C930196F3CF8091CC02680F6093CC024E
:1023600080E0089581E0089582E008950895E09165
:10237000F3028091F202E81730F4F0E0EC50FD4FE8
:10238000808190E008958FEF9FEF08959091F30280
:102390008091F202981750F4E92FF0E0EC50FD4FD5
:1023A000208130E09F5F9093F30202C02FEF3FEF58
:1023B000C90108958091F20290E02091F302821BFE
:1023C00091090895CF92DF92EF92FF920F931F939E
:1023D000CF93DF937C01262F972F8A0180913B03B7
:1023E000882391F0C62FD72F6E01C40ED51ECC15B1
:1023F000DD0569F06991D701ED91FC910190F081C3
:10240000E02DC7010995F3CF642F822F87DFC80124
:10241000DF91CF911F910F91FF90EF90DF90CF90C0
:102420000895CF93DF931F92CDB7DEB769832091D4
:102430003B032223D1F020915E03203240F021E0C3
:1024400030E0FC013383228380E090E014C080916F
:102450003C03E82FF0E0E35CFC4F998190838F5FB1
:1024600080933C0380935E0304C061E0CE0101963B
:1024700055DF81E090E00F90DF91CF910895CF93E9
:10248000DF931F92CDB7DEB7698341E050E0BE0114
:102490006F5F7F4FE9DC0F90DF91CF9108950F932D
:1024A0001F93CF93DF93CDB7DEB7C058D1090FB6D6
:1024B000F894DEBF0FBECDBF8EE096E00E949C0672
:1024C0008EE096E00E94192181114AC08091800619
:1024D00090918106009759F019DB809180069091C8
:1024E00081060E94072C109281061092800610929D
:1024F00024061092250600E117E220E8AE014F5FA6
:102500005F4F6EE072E08EE096E089DE80916606B5
:10251000857F8093660688E192E00E943A228EE0F1
:1025200096E00E941921811116C0E0917105F09189
:1025300072050190F081E02D6EE281E795E009954A
:102540008EE096E00E949C0660E177E280E090E0F9
:102550000E942906E4CF80E292E00E943A2250D6FF
:10256000C058DF4F0FB6F894DEBF0FBECDBFDF916E
:10257000CF911F910F9108952F923F924F925F92AA
:102580006F927F928F929F92AF92BF92CF92DF9283
:10259000EF92FF920F931F93CF93DF93CDB7DEB7E8
:1025A000C558D1090FB6F894DEBF0FBECDBF8E015E
:1025B0000D581F4F611571058105910591F09F938D
:1025C0008F937F936F9382E891E09F938F931F93F4
:1025D0000F930E943C2D0FB6F894DEBF0FBECDBF07
:1025E000B1C0CC24C394D12C26E7822E21E0922EB8
:1025F00036E7A32E31E0B32E3E019BE3690E711C3A
:10260000DF92CF929F928F921F930F930E943C2D47
:102610001EAE1DAEBCAEABAE21961FAE219719A269
:1026200018A2BF8EAE8E1BA20F900F900F900F902E
:102630000F900F90CD57DF4F1882C358D040212CF8
:10264000562C472C8CEAE82E86E0F82ECD57DF4F2B
:102650008881C358D040922DF801E80FF91F2081DE
:102660002F3209F40196FE01E85AFF4F20E030E0D6
:10267000D801A80FB91F4C914F3249F0442339F0CB
:102680002F5F3F4F019641932C30310589F7E8E5E4
:10269000F0E0EC0FFD1FE20FF31F1082F801E80FCE
:1026A000F91F20812F3209F40196CD57DF4F88831F
:1026B000C358D040292EF801E80FF91F30801C8242
:1026C0001B82BA82A9821E8221E0AE01485A5F4F66
:1026D000B701CE0101965DD8882331F0CE01019675
:1026E00015DA311009C021C0FCEAEF16F6E0FF064A
:1026F00049F1C7010BDA26C021E0AE01485A5F4F0D
:10270000B701852D942D45D8382E8CEAE81686E041
:10271000F80609F42DC1C701F9D9332099F09E2D8F
:102720008F2DE52CF42C2C0191CF9CEAE91696E034
:10273000F90611F0C701EAD9EFEFCE1ADE0A09F067
:102740005FCF12C187E292E00E943A20C8010E9446
:102750003A224E01FEE18F0E911C6CEA76E0C40134
:102760000DDD1C821B8286E791E09A8389831E829D
:10277000CE0101967C01340158012C016FE270E01A
:10278000C5010E94C12C009709F441C0F5012081C8
:102790002F3249F4FFEFAF1ABF0A9E2D8F2D730120
:1027A000692E782E2EC08A198D3008F08CE0C82E44
:1027B000D12CA601B501CE01885A9F4F0E94CC2C86
:1027C000E8E5F0E0EC0FFD1FEC0DFD1D1082C701E8
:1027D0009DD921E0AE01485A5F4FB301C7010E9465
:1027E000C90B81110AC01EAE1DAE86E791E09CAFF9
:1027F0008BAF21961FAE219717C0AC0CBD1CC30137
:1028000085D9962D872D3701E92EF82EB7CFC50132
:10281000801B910BCC57DF4F99838883C458D040DD
:10282000B301CE01CB96AADCCC57DF4FE881F9810A
:10283000C458D0400E0F1F1FF8018081811108C0BD
:10284000BE01655C7F4FC20199DC4DE252E045C09C
:1028500019A218A286E791E09F8F8E8F1BA2219666
:102860008FAD2197811116C06C961FAE1EAE6C976E
:1028700088EE93E0A0E0B0E0A0968CAF9DAFAEAF45
:10288000BFAFA097E3961FAE1EAEE397A5961FAE0F
:10289000A59729C0825023E1A801823040F46CEA58
:1028A00076E0C4010E94C90B81110CC0DDCFBE01CE
:1028B000655C7F4FC4010E94C90B8823A9F2CE0139
:1028C000CB9624D949A95AA96BA97CA9C4010E9415
:1028D0002E0AB401C20152DCA801B201CE01885A0D
:1028E0009F4F0E9476036C968EAD9FAD6C97909330
:1028F0006A0680936906A0968CAD9DADAEADBFAD66
:10290000A09780936B0690936C06A0936D06B0938E
:102910006E06A4968CAD9DADAEADBFADA497809371
:102920006F0690937006A0937106B09372068DE0C7
:10293000E8E5F0E0EC0FFD1F3C96A3E7B6E0019060
:102940000D928A95E1F7E396EEADFFADE397F09334
:102950008106E0938006309719F08581811106C0C9
:102960008FE292E00E943A2280E009C081E007C035
:10297000332009F4E7CEFE017E967F01D0CECB57FF
:10298000DF4F0FB6F894DEBF0FBECDBFDF91CF9102
:102990001F910F91FF90EF90DF90CF90BF90AF907D
:1029A0009F908F907F906F905F904F903F902F906F
:1029B0000895CF93CFB7F8948091F102811127C089
:1029C000E4EBF1E08491E8ECF1E09491E82FF0E0A1
:1029D000EE0FFF1FE459FE4FA591B491EC91E9234E
:1029E00021F461E08AE00E940F0561E08AE00E9424
:1029F0003E058CB580618CBD8CB580648CBD61E07A
:102A00008DE00E943E0561E08BE00E943E058091D2
:102A1000F1028F5F8093F102CFBFCF9108951F9293
:102A20000F920FB60F9211242F933F934F935F9302
:102A30006F937F938F939F93AF93BF93EF93FF9386
:102A40008091B900887F803609F49CC068F588328F
:102A500009F45BC090F4803109F454C038F4882341
:102A600009F4F6C0883009F44DC0F5C0883109F486
:102A70004CC0803209F45DC0EEC0803409F468C0F7
:102A800048F4803309F455C0883309F0E4C08093DA
:102A90003803D8C0803509F44FC0883509F45DC0CB
:102AA000883409F0D8C0D6C0883909F4C7C0A8F462
:102AB000883709F467C038F4883609F463C0803772
:102AC00009F460C0C8C0883809F4B8C0803909F476
:102AD0005FC0803809F0BFC05BC0803B09F486C08E
:102AE00038F4803A09F466C0883A09F47FC0B3C06C
:102AF000803C09F4A7C0883C09F4A4C0883B09F4D1
:102B00008AC0A9C08091150310C0909137038091AD
:102B10003603981770F5E091370381E08E0F8093AC
:102B20003703F0E0EA5EFC4F80818093BB0085ECC8
:102B300086C0809338038EC0E091370381E08E0F0A
:102B4000809337038091BB00F0E0EA5EFC4F808306
:102B500090913703809136036EC0E091370381E096
:102B60008E0F809337038091BB00F0E0EA5EFC4F4C
:102B700080838091390381116DC081E080931403BB
:102B800084EA61C083E080933A031092F002CFCFD1
:102B90008091F002803208F051C0E091F00281E0B3
:102BA0008E0F8093F0028091BB00F0E0E053FD4F68
:102BB0008083BDCF85EC8093BC0010923A03809156
:102BC000F002803230F4E091F002F0E0E053FD4F8B
:102BD00010826091F00270E0E091CE02F091CF029D
:102BE00080ED92E009951092F00235C084E0809368
:102BF0003A031092CD021092CC02E091CA02F091F9
:102C0000CB0209958091CC02811105C081E08093AF
:102C1000CC021092AA02E091CD0281E08E0F809347
:102C2000CD02F0E0E655FD4F80818093BB0090918E
:102C3000CD028091CC02981708F479CF85E8809373
:102C4000BC0009C085EC8093BC0010923A0303C01D
:102C50001092380359DBFF91EF91BF91AF919F9193
:102C60008F917F916F915F914F913F912F910F9035
:102C70000FBE0F901F901895FC01908181812FEB62
:102C8000290F263010F497500AC02FE9290F26305B
:102C900010F4975204C020ED290F2A30E8F4811176
:102CA00003C0892F8F7008952FEB280F263010F462
:102CB00087500AC02FE9280F263010F4875204C02D
:102CC00020ED280F2A3040F4282F2F7030E1939FF9
:102CD000C0011124822B089580E00895FC01919198
:102CE00080E020E030E09923F1F08430E4F44FEB11
:102CF000490F463010F497500CC04FE9490F463049
:102D000010F4975206C0903261F040ED490F4A30FE
:102D100050F444E0220F331F4A95E1F79F70292BAE
:102D20008F5F9191E0CFC9010895CF93DF93FC01AC
:102D3000C0E0D0E0C617D707A4F421912D3011F0E0
:102D40002A3069F42196C617D70774F4FC01EC0FFA
:102D5000FD1F20812D30B1F32A3031F4F3CF2196BD
:102D6000E9CFEB01D595C795AB014C1B5D0BBC01C1
:102D70006C0F7D1F0E94B02CCE01DF91CF91089582
:102D80008091A5028823A9F1409100015091010191
:102D900060910201709103012FE533E080915F059E
:102DA000909160050E94D10E811102C080E00895CB
:102DB0004091A6025091A7026091A8027091A902C9
:102DC000411551056105710591F02FE533E08091C2
:102DD0005F05909160050E94D10E882339F310920F
:102DE000A6021092A7021092A8021092A9021092B5
:102DF000A50281E008958F929F92AF92BF92EF92C9
:102E0000FF920F931F93CF934B015C01C42F8091CE
:102E1000000190910101A0910201B0910301881578
:102E20009905AA05BB05F9F0ABDF811102C080E06E
:102E300020C08FE5E82E83E0F82E00E012E020E0CD
:102E400030E0B501A40180915F05909160050E947A
:102E5000460E882361F38092000190920101A092B6
:102E60000201B09203018091A502C82BC093A50274
:102E700081E0CF911F910F91FF90EF90BF90AF90A5
:102E80009F908F9008954F925F926F927F928F9252
:102E90009F92AF92BF92CF92DF92EF92FF920F93E9
:102EA0001F93CF93DF93EC016A017B012801390165
:102EB000423051056105710510F480E072C08985CA
:102EC0009A85AB85BC850196A11DB11D8417950718
:102ED000A607B70790F38B889C88AD88BE888F893A
:102EE000803129F4BB27AF2D9E2D8D2D09C0DB012C
:102EF000CA0147E0B695A795979587954A95D1F76A
:102F0000880E991EAA1EBB1E80910001909101019E
:102F1000A0910201B091030188169906AA06BB068A
:102F200079F48F89803199F4DD24EE24FF24C601E1
:102F3000880F991FFC01E15AFC4F5182408218C052
:102F400040E0C501B40157DF8111EBCFB6CFE89463
:102F5000C7F8DD24EE24FF24C601880F991F880FCF
:102F6000991FFC01E15AFC4F4082518262827382B8
:102F70008091A50281608093A5028A89823080F0C9
:102F80008D819E81AF81B885880E991EAA1EBB1EB9
:102F90008092A6029092A702A092A802B092A902E3
:102FA00081E0DF91CF911F910F91FF90EF90DF9023
:102FB000CF90BF90AF909F908F907F906F905F90D9
:102FC0004F9008958F929F92AF92BF92CF92DF92CF
:102FD000EF92FF920F931F93CF93DF93FC018185B4
:102FE0009285A385B4850196A11DB11D841795070F
:102FF000A607B70710F480E05BC083899489A58990
:10300000B689C789C03129F4852E962EA72EBB24F8
:1030100009C04A015B01C7E0B694A79497948794CE
:10302000CA95D1F7E9016A017B018F01BC01CD018D
:10303000680D791D8A1D9B1D8090000190900101F3
:10304000A0900201B0900301681579058A059B05DF
:1030500099F4F80187898031A1F4B701A6015527B9
:1030600066277727440F551FFA01E15AFC4F8081EC
:103070009181A0E0B0E017C040E0BDDE8111E9CF52
:10308000BACFB701A6014F77552766277727440F98
:10309000551F440F551FFA01E15AFC4F8081918161
:1030A000A281B381BF7088839983AA83BB8381E0A7
:1030B000DF91CF911F910F91FF90EF90DF90CF9014
:1030C000BF90AF909F908F9008954F925F926F92B4
:1030D0007F92AF92BF92CF92DF92EF92FF920F93C7
:1030E0001F93CF93DF9300D000D0CDB7DEB78C0114
:1030F00049835A836B837C835901C12CD12C76017F
:10310000412C82E0582E612C712C49815A816B81AF
:103110007C819E012F5F3F4FC80154DF882351F10E
:10312000D301C201F801058404C0880F991FAA1FAA
:10313000BB1F0A94D2F7C80ED91EEA1EFB1E498196
:103140005A816B817C818789803129F088EF9FEFDC
:10315000AFEFBFE004C088EF9FEFA0E0B0E04817FA
:1031600059076A077B0788F2F501C082D182E282A3
:10317000F38281E00F900F900F900F90DF91CF912D
:103180001F910F91FF90EF90DF90CF90BF90AF9085
:103190007F906F905F904F900895CF93C62F91E0EE
:1031A00090933B0398E690935D0310923C0310923A
:1031B0005E03682F81E695E034D96C2F81E695E0B7
:1031C00030D981E0CF910C94752391E090933B032B
:1031D00098E690935D0310923C0310925E03682F73
:1031E00081E695E01ED980E00E94752361E070E0E1
:1031F00088E690E00E94EB2381E695E0C7C8089539
:103200002F923F924F925F926F927F928F929F92F6
:10321000AF92BF92CF92DF92EF92FF920F931F93E4
:10322000CF93DF93CDB7DEB7C75AD1090FB6F89465
:10323000DEBF0FBECDBF8091660684FDB8C48AE3B1
:1032400092E018D71092F3021092F20210923C030F
:1032500010925E0310923A0381E08093390310923A
:10326000140361E082E10E940F0561E083E10E94A6
:103270000F058091B9008E7F8093B9008091B900CD
:103280008D7F8093B90088E48093B80085E48093B3
:10329000BC008CE08093B80085E797DF883609F0A2
:1032A0008AC060E88BE679DF64E670E080E090E059
:1032B0000E94290661E08BE670DF60E08CE66DDF3E
:1032C00068EC70E080E090E00E94290660E088E30E
:1032D00064DF60E083E261DF60E08BE65EDF60E098
:1032E00084E25BDF60E08AE658DF6CE28AE655DF65
:1032F0006FE070E080E090E00E94290661E08AE1E2
:103300004CDF60E089E149DF60E08BE146DF60E0AF
:103310008CE143DF60E48AE640DF68E783E23DDF7B
:1033200068E270E080E090E00E94290660E083E2BD
:1033300034DF7E0121E8E20EF11C970142E062E7F2
:103340008EE296E00E943303D7018C9190E0982F93
:10335000882711962C91822B6CE070E00E941C2A29
:103360001B01CC56DF4F188219821A821B82C45966
:10337000D040812C912C5401412C512C3201C45647
:10338000DF4F188219821A821B82CC59D040C8564E
:10339000DF4F188219821A821B82C859D040C05749
:1033A000DF4F188219821A821B82C059D040C12C6B
:1033B000D12C87010EC0813709F473CF85E705DF73
:1033C000883609F46ECF813709F46BCF88E492E038
:1033D000EDC3C214D30409F4A0C098014CE064E723
:1033E0008EE296E00E943303F801808190E0982FEE
:1033F00088272181822B092E000CAA0BBB0B480EBB
:10340000591E6A1E7B1E828190E0982F8827238197
:10341000822B092E000CAA0BBB0B880E991EAA1E2C
:10342000BB1E848190E0982F88272581822B092E4E
:10343000000CAA0BBB0BCC56DF4F288139814A8187
:103440005B81C459D040280F391F4A1F5B1FCC56DF
:10345000DF4F288339834A835B83C459D0408681F8
:1034600090E0982F88272781822B092E000CAA0B29
:10347000BB0BC057DF4F288139814A815B81C0591E
:10348000D040280F391F4A1F5B1FC057DF4F2883CA
:1034900039834A835B83C059D040808590E0982F60
:1034A00088272185822B092E000CAA0BBB0BC8563E
:1034B000DF4F288139814A815B81C859D040280F6C
:1034C000391F4A1F5B1FC856DF4F288339834A8341
:1034D0005B83C859D040828590E0982F8827238548
:1034E000822B092E000CAA0BBB0BC456DF4F288180
:1034F00039814A815B81CC59D040280F391F4A1F3E
:103500005B1FC456DF4F288339834A835B83CC59C2
:10351000D0403FEFC31AD30A5CCFE12CF12CC3019A
:10352000B201A70196010E94522AC056DF4F28839C
:1035300039834A835B83C05AD040C501B401A701D7
:1035400096010E94522ACC55DF4F288339834A8343
:103550005B83C45AD040CC56DF4F688179818A8121
:103560009B81C459D040A70196010E94522A49016B
:103570005A01C057DF4F688179818A819B81C05988
:10358000D040A70196010E94522A29013A01C8564B
:10359000DF4F688179818A819B81C859D040A7011A
:1035A00096010E94522AC057DF4F288339834A83ED
:1035B0005B83C059D040C456DF4F688179818A81CE
:1035C0009B81CC59D040A70196010E94522AC8562F
:1035D000DF4F288339834A835B83C859D04018144E
:1035E00019041A041B0474F4D501C4019054A109F0
:1035F000B109CC56DF4F88839983AA83BB83C45912
:10360000D0400DC0A5019401305C4F4F5F4FCC56A8
:10361000DF4F288339834A835B83C459D04074E0E9
:10362000C72ED12CE12CF12CC301B201A7019601C8
:103630000E94522A50954095309521953F4F4F4F0B
:103640005F4FBB2757FDBA95A52F942F832FC456E4
:10365000DF4F88839983AA83BB83CC59D040D8019C
:103660008C9311962C93C057DF4F688179818A81A2
:103670009B81C059D040A70196010E94522A5095C3
:103680004095309521953F4F4F4F5F4FF801328362
:103690002383C856DF4F688179818A819B81C8590D
:1036A000D040A70196010E94522A5095409530952E
:1036B00021953F4F4F4F5F4FD80114963C9314977D
:1036C00015962C93C456DF4F6881CC59D04083E1C6
:1036D00064DDF801618184E160DDD80112966C91AE
:1036E00085E15BDDF801638186E157DDD801149641
:1036F0006C9187E152DDF801658188E14EDDC301FF
:10370000B2010E94433120E030E043E053E40E94E4
:10371000D92A60932E0670932F06809330069093DB
:103720003106C057DF4F688179818A819B81C059FA
:10373000D0400E94433120E030E043E053E40E9457
:10374000D92A60933206709333068093340690939F
:103750003506C856DF4F688179818A819B81C859B7
:10376000D0400E94433120E030E043E053E40E9427
:10377000D92A609336067093370680933806909363
:103780003906980142E067E78EE296E00E94330333
:10379000D8018C90912C982C882411968C91882A91
:1037A000092C000CAA08BB0889829A82AB82BC82D1
:1037B000980142E06AE78EE296E00E943303F80146
:1037C000C080D12CDC2CCC248181C82A0D2C000C8B
:1037D000EE08FF08CD82DE82EF82F886980142E093
:1037E0006DE78EE296E00E943303D8018C9190E061
:1037F000982F882711962C91822B9C01990F440BAE
:10380000550BC057DF4F288339834A835B83C059E8
:10381000D04029873A874B875C87C357DF4F188290
:10382000CD58D040C257DF4F1882CE58D040C15734
:10383000DF4F1882CF58D040DE011196FE01E357CA
:10384000FF4FCE010D9621E04D915D916D917D91DF
:1038500040FD20833196A817B907B1F758E0452EEF
:10386000512C612C712CC056DF4F688179818A817F
:103870009B81C05AD040A30192010E94522A821A11
:10388000930AA40AB50ACC55DF4F688179818A81F1
:103890009B81C45AD040A30192010E94522AC21AAD
:1038A000D30AE40AF50ACC56DF4F688179818A8110
:1038B0009B81C459D040A30192010E94522AC05753
:1038C000DF4F488059806A807B80C059D040421ABF
:1038D000530A640A750A9927B7FC9A958B2D7A2D9D
:1038E000692DCF57DF4F6883C158D040C357DF4F92
:1038F0002881CD58D040822ACE57DF4F8882C258C7
:10390000D040CD57DF4FD882C358D040C257DF4F89
:103910002881CE58D040C22ACC57DF4FC882C45825
:10392000D040CB57DF4F5882C558D040C157DF4FEA
:103930002881CF58D0402429CA57DF4F2883C65842
:10394000D04087E72ADCCE57DF4F6881C258D0408D
:1039500088E723DCCD57DF4F6881C358D0408AE722
:103960001CDCCC57DF4F6881C458D0408BE715DC96
:10397000CB57DF4F6881C558D0408DE70EDCCA5762
:10398000DF4F6881C658D0408EE707DCC056DF4F56
:10399000688179818A819B81C05AD0400E944331DD
:1039A00020E030E040E858E30E94A23160933A06FC
:1039B00070933B0680933C0690933D06CC55DF4FB9
:1039C000688179818A819B81C45AD0400E944331A9
:1039D00020E030E040E858E30E94A23160933E06C8
:1039E00070933F068093400690934106CC56DF4F7C
:1039F000688179818A819B81C459D0400E9443317A
:103A000020E030E040E858E30E94A2316093420693
:103A100070934306809344069093450660E08BE6DE
:103A2000BCDB64E670E080E090E00E94290661E083
:103A30008BE6B3DB68EC70E080E090E00E94290642
:103A400063E08AE1AADB64E089E1A7DB8BE1BDDB0F
:103A5000682F657E8BE1A1DB8CE1B7DB682F677E89
:103A60008CE19BDB8DE1B1DB807F682F63608DE1B2
:103A700094DB62E287E391DB61E088E38EDB64E65E
:103A800070E080E090E00E94290680E0EFD6883464
:103A900009F085C080E086D66AE070E080E090E0C2
:103AA0000E9429068FE07ED66AE070E080E090E018
:103AB0000E94290680E1DAD6F82E80E1D7D6082FB9
:103AC00080E1D4D6182F6F2D70E060587109072E51
:103AD000000C880B990B0E94433120E030E040E855
:103AE0005BE30E94A23120E030E040E85FE30E9407
:103AF000752A609346067093470680934806909314
:103B00004906602F70E060587109072E000C880B81
:103B1000990B0E94433120E030E040E85BE30E94D3
:103B2000A23120E030E040E85FE30E94752A609314
:103B30004A0670934B0680934C0690934D06612F76
:103B400070E060587109072E000C880B990B0E94D9
:103B5000433120E030E040E85BE30E94A23120E006
:103B600030E040E85FE30E94752A60934E06709350
:103B70004F06809350069093510660E08AE00DDB7B
:103B80006AE070E080E090E00E94290662E18AE04D
:103B900004DB6AE070E080E090E00E9429068091FA
:103BA000660680618093660680E492E063D483E4D5
:103BB00092E060D28EE096E03CD3882321F080E44E
:103BC00092E058D405C088E492E054D40E944F1289
:103BD00080916606982F92609093660680FD62C180
:103BE0008BE492E047D2809166068E7F80936606D2
:103BF00061E08AE00E943E0510928D0610928B06CD
:103C000010928806109287068AE0809386060E94AA
:103C1000C2066B017C0161E0809186060E943E0530
:103C200061E0809186060E940F050E94D91482E50A
:103C300080936D0510926E0580916D0590916E05D3
:103C40000E9430031AE08FEF0E9429031150D9F728
:103C500086010E94280382E896E00E94910D20E0F0
:103C600030E0A90160E082E896E00E94E80DF82EBD
:103C700080938C0641E0841749F00E94C206601BC5
:103C8000710B613D774058F381E056C02AEA31E07C
:103C900040E050E068E082E896E00E94E80D82FF94
:103CA00003C0F0928D0610C044E0F42E0E94B50DC2
:103CB00080938C06FA94F110F9CF8A3A11F082E0E1
:103CC0003BC082E080938D0680918D06823021F08A
:103CD000C12CD12C760105C0C12CD12CE12C30E4B3
:103CE000F32E20E030E0A90167E382E896E00E942D
:103CF000E80DA701960169E282E896E00E94E80DCE
:103D000080938C06882349F00E94C206601B710BC9
:103D1000613D774030F388E00FC080918D0682309E
:103D200001F520E030E0A9016AE382E896E00E9414
:103D3000E80D882341F086E08093870682E896E0CC
:103D40000E94A70DACC00E94B50D807C803C19F488
:103D500083E080938D060E94B50D0E94B50D0E94F0
:103D6000B50D82E896E00E94A70D81E08FD38823ED
:103D700029F08091B106882339F091C080E086D384
:103D8000882309F48CC0F5CF8091A506803109F510
:103D900082E08093B1061092C3061092C40610927E
:103DA000C5061092C6068091A6069091A706A0E0CF
:103DB000B0E025E0880F991FAA1FBB1F2A95D1F7F5
:103DC0008093BF069093C006A093C106B093C2062D
:103DD0001EC0803209F063C083E08093B106409139
:103DE000A8065091A9066091AA067091AB0640936F
:103DF000C3065093C4066093C5067093C6062FEBA6
:103E000036E08EE896E061D9882309F448C08EE850
:103E100096E09093C8068093C70681E08093B00631
:103E20001092B2061092B3061092B4061092B50624
:103E30001092B6061092B7061092B8061092B90604
:103E40001092BA061092BB061092BC061092BD06E4
:103E50001092BE0680916606816080936606A091EE
:103E60009206A69520919706309198064091990662
:103E700050919A06B0E00E94593228EE33E040E0BB
:103E800050E00E94302A2115310549F0CA01B901DC
:103E9000882799274AE0EFD08FE492E002C088E4B7
:103EA00092E0E8D282E592E0E5D0109224061092EA
:103EB000250600E117E220E8CE0101967C01AC0165
:103EC00067E572E08EE096E00E940F11882309F406
:103ED0005AC01F9281E08F9382EC8F931F928CE8DF
:103EE00091E09F938F93FF92EF920E943C2D20E8E8
:103EF000A701B7018EE096E00E940F110E94C20652
:103F00004B015C0164E670E080E090E00E942906CD
:103F10000FB6F894DEBF0FBECDBF1092240608EC9A
:103F200010E020E8A70160E672E08EE096E00E94D3
:103F30000F1190E08330910544F0EFEFFFEFEC0FAD
:103F4000FD1FE80FF91F108202C0892B79F067E688
:103F500072E0C7010E94DB2C892B41F0809166063C
:103F600084608093660680E492E019C00E94C206D5
:103F7000DC01CB0188199909AA09BB09803D97404A
:103F8000A105B10550F200E117E220E8A7016EE0BB
:103F900072E08EE096E00E940F1188E492E06AD20F
:103FA0008091660681FF3AC01092240600E117E274
:103FB00020E8A7016BE672E08EE096E00E940F1108
:103FC000882361F161E772E0C7010E94DB2C009752
:103FD00029F10A9667018C010F5F1F4FD8018C9160
:103FE000803271F4C80101960E943C16F60180836C
:103FF000882319F0FFEFCF1ADF0A0D5F1F4FEECFB6
:104000006AE370E0C8010E94C12C009721F7F60115
:10401000108287E792E02ED0C7012CD2C955DF4F1E
:104020000FB6F894DEBF0FBECDBFDF91CF911F91C9
:104030000F91FF90EF90DF90CF90BF90AF909F9047
:104040008F907F906F905F904F903F902F9008954A
:10405000009769F0FC0101900020E9F73197AF016A
:10406000481B590BBC0181E795E00C947D0180E071
:1040700090E00895EDCF8F929F92AF92BF920F93F1
:104080001F93CF93DF93CDB7DEB7A1970FB6F89408
:10409000DEBF0FBECDBF19A2423008F44AE08E0148
:1040A0000F5D1F4F842E912CA12CB12CA5019401E2
:1040B0000E94302AE62FB901CA0101501109EA30E5
:1040C00014F4E05D01C0E95CD801EC93232B242BB0
:1040D000252B61F7C801BCDFA1960FB6F894DEBFAF
:1040E0000FBECDBFDF91CF911F910F91BF90AF90C9
:1040F0009F908F9008950F931F93CF93DF93CDB729
:10410000DEB76C970FB6F894DEBF0FBECDBF7F93BE
:104110006F935F934F939F938F93EEE0F6E0838DC1
:104120008F93828D8F93818D8F93808D8F9381EF6D
:1041300091E09F938F938E010F5F1F4F1F930F93FB
:104140000E943C2D482FB8018AE296E00E94D105DA
:104150000FB6F894DEBF0FBECDBF6C960FB6F894C5
:10416000DEBF0FBECDBFDF91CF911F910F9108959C
:104170000F931F93CF93DF93CDB7DEB76C970FB636
:10418000F894DEBF0FBECDBF7F936F935F934F93C5
:104190009F938F93EEE0F6E0838D8F93828D8F93C4
:1041A000818D8F93808D8F9386EE91E09F938F9377
:1041B0008E010F5F1F4F1F930F930E943C2D482FBE
:1041C000B8018AE296E00E94D1050FB6F894DEBFEE
:1041D0000FBECDBF6C960FB6F894DEBF0FBECDBF3D
:1041E000DF91CF911F910F910895CF93DF93E8ED69
:1041F000F1E08491E4ECF1E0D491E0EBF1E0C491E2
:10420000CC2391F081110E94E604EC2FF0E0EE0F38
:10421000FF1FE056FE4FA591B491EC91ED2381E094
:1042200090E021F480E002C080E090E0DF91CF9147
:1042300008952F923F924F925F926F927F928F924A
:104240009F92AF92BF92CF92DF92EF92FF920F9325
:104250001F93CF93DF93CDB7DEB7C055D1090FB60B
:10426000F894DEBF0FBECDBF7C0186E0EEE1F1E049
:10427000DE01A75BBF4F01900D928A95E1F7D70150
:1042800055961C921E92549783E0B82E99E4892E7D
:10429000912C8C0E9D1EB6E08B0E911C9E01275B0F
:1042A0003F4F6901F601619171916F0100ED17E0D7
:1042B00020E4AE014F5F5F4FC7010E940F118111D3
:1042C00007C0C7010E949C0660961FAE609707C09A
:1042D000C814D90439F7F1E06096FFAF6097BA943B
:1042E000B110DCCF60963FAD60973323C1F000E1A1
:1042F00017E220E4AE014F5F5F4F6CE772E0C70149
:104300000E940F11882341F0BE016F5F7F4FC701EC
:104310000E94CD02882329F0C7010E949C0680E0FC
:104320008FC080E1F7013496DF011D928A95E9F78D
:104330008F01C12CD12C712C1E01B1E42B0E311C2C
:104340006196CFAE6197DF92CF92D70112968C9192
:104350001F928F93A6E9B1E0BF93AF933F922F9244
:104360000E943C2DD70156961C92B101C7010E94B4
:10437000610620E137E240E450E0BE016F5F7F4F0D
:10438000C7010E94CE060FB6F894DEBF0FBECDBFA8
:10439000181619060CF048C0BE016F5F7F4FC701A9
:1043A0000E94CD02811140C09E012F5F3F4F490105
:1043B0006AED71E0C4010E94DB2C5C01892B51F194
:1043C000450133E0830E911CC4010E943C166196A6
:1043D0009FAD61978913ECCF4501A5E08A0E911C32
:1043E0002401B1E1AB0EB11C3801D2018C918032B5
:1043F00069F4C20101960E943C16F30181933F01CA
:10440000F3E04F0E511C4A145B0479F760967FACC1
:104410006097CECFB0E2CB0ED11C0C5F1F4FE0E80F
:10442000CE16D10409F08CCF772049F082E090E0DD
:10443000D70155969C938E93549713961C92872D73
:10444000C05BDF4F0FB6F894DEBF0FBECDBFDF916C
:10445000CF911F910F91FF90EF90DF90CF90BF9081
:10446000AF909F908F907F906F905F904F903F9014
:104470002F900895CF93DF93EBDDEC0187ED91E072
:10448000E7DD8C0F9D1FDF91CF9108958F929F9252
:10449000AF92BF92CF92DF92EF92FF92CF93DF93D2
:1044A000C82F82E896E09093600580935F05CC2347
:1044B00069F1C53010F080E00DC140E060E070E0CF
:1044C000CB010E94FB168823B1F320E1C29FC001FB
:1044D0001124815B9C4FFC01E254FE4F20812F7719
:1044E00051F73C9640815181628173814436510578
:1044F0006105710500F33497C080D180E280F380BC
:10450000C114D104E104F10421F4D5CFC12CD12C84
:10451000760140E0C701B6010E94FB16882359F2DC
:1045200080916A0390916B038115924021F6A091CE
:104530006F03AA2309F4BFCF60916D0370916E03DE
:104540006115710509F4B7CF20916C03222309F49A
:10455000B2CFA093A0062093920680E030E0E1E085
:10456000F0E0C82FAF01082E02C0440F551F0A9477
:10457000E2F72417350741F0982F8F5F983089F7BD
:1045800089E080939B0697CF80939B0620917503CB
:10459000309176032115310519F040E050E008C054
:1045A00020918303309184034091850350918603C9
:1045B0002093930630939406409395065093960665
:1045C00046015701860E971EA11CB11C8092A106C0
:1045D0009092A206A092A306B092A406E091700366
:1045E000F0917103F093A706E093A606B0E00E9455
:1045F0005932860E971EA81EB91E8092A806909268
:10460000A906A092AA06B092AB0685E0EE0FFF1FA6
:104610008A95E1F7E150FE4FEF2FFF27E6958E0ECA
:104620009F1EA11CB11C80929C0690929D06A09298
:104630009E06B0929F06209172033091730321155C
:10464000310521F0A90160E070E008C040917F03CE
:10465000509180036091810370918203D701C6015C
:1046600088199909AA09BB09840F951FA61FB71FAE
:1046700004C0B695A79597958795CA95D2F780936C
:10468000970690939806A0939906B0939A06853F53
:104690002FE09207A105B10510F48CE018C0853F0A
:1046A0009F4FA105B10510F480E111C080918B03EB
:1046B00090918C03A0918D03B0918E038093A806F6
:1046C0009093A906A093AA06B093AB0680E28093CC
:1046D000A50681E0DF91CF91FF90EF90DF90CF9022
:1046E000BF90AF909F908F900895382F20915E03D8
:1046F00090915D03213208F049C080913A03811105
:10470000FCCF42E040933A03309339033FEF3093BC
:1047100038031092370320933603ADE3B3E046E14C
:1047200053E0FA013E2F341B321718F43D913193B8
:10473000F9CF1092150320911503990F922B9093A6
:10474000150390911403913061F410921403909129
:1047500015039093BB009091BC0093FDF8CF95ECAE
:1047600001C095EE9093BC0090913A039230E1F332
:10477000909138039F3F79F080913803803241F067
:1047800080913803803331F084E005C081E003C0BC
:1047900082E001C083E010923C0310925E0310920D
:1047A0003B030895CF93C82F81E080933B0388E6B5
:1047B00080935D0310923C0310925E036AE081E6F1
:1047C00095E00E9411126C2F81E695E00E94111273
:1047D00081E0CF918ACF90913A039111FCCF613261
:1047E00008F060E291E090933A03909339032FEF41
:1047F0002093380310923703260F209336039093AB
:10480000150390911503880F892B809315038091D0
:104810001403813061F41092140380911503809386
:10482000BB008091BC0083FDF8CF85EC01C085EE14
:104830008093BC0080913A038130E1F3809137038B
:10484000861710F460913703A6E1B3E024EF32E05D
:10485000F9018E2F821B861718F48D918193F9CF61
:104860001092F3026093F202862F089591E09093E4
:104870003B039CE090935D0310923C0310925E0317
:10488000682F81E695E00E94111280E02EDF61E042
:1048900070E08CE090E09FDF81E695E00C94C6111B
:1048A0000895CF93DF93CDB7DEB7C459D1090FB6C2
:1048B000F894DEBF0FBECDBF789484B5826084BD0E
:1048C00084B5816084BD85B5826085BD85B5816014
:1048D00085BD80916E00816080936E001092810092
:1048E000809181008260809381008091810081604D
:1048F000809381008091800081608093800080910E
:10490000B10084608093B1008091B0008160809399
:10491000B00080917A00846080937A0080917A0060
:10492000826080937A0080917A00816080937A001F
:1049300080917A00806880937A001092C100E091A3
:104940008105F091820582E08083E0917D05F09100
:104950007E051082E0917F05F091800580E18083E3
:1049600010928905E0918505F091860586E08083A7
:10497000E0918305F0918405808180618083E091DE
:104980008305F0918405808188608083E0918305B0
:10499000F0918405808180688083E0918305F091A7
:1049A000840580818F7D80838CEA91E063DD68EEF1
:1049B00073E080E090E00E94290680917A008F7772
:1049C00080937A001092240660E086E00E943E0503
:1049D00061E087E00E943E0561E087E00E940F05EC
:1049E0000E94D9148CB58C7F81608CBD8DB58E7F73
:1049F0008DBD64E670E080E090E00E9429068EE0C4
:104A000096E00E949C061092240613E09E012F5F00
:104A10003F4F29016BEB71E08EE096E00E9461064A
:104A200024EF31E040E250E0B2018EE096E00E94D7
:104A3000CE06892BA1F060EC71E0C201BCD7FC016D
:104A4000892B69F0638590ED960F6185660F60563E
:104A5000862F880F880F680F092F060F19F4115041
:104A6000C9F600E088EC91E005DB602F70E080E0A3
:104A700090E04AE000DB87ED91E0EADA0E9400195D
:104A8000CE010696CB57DF4F99838883C558D04017
:104A9000DE01AF57BF4FC957DF4FB983A883C7584F
:104AA000D040AC5FCC56DF4FA883C459D040809132
:104AB000660685FD3FC080FF3DC082FF28C083FFA2
:104AC00032C02091990230919A02A0E1B7E20E948F
:104AD0009A326B017C0160919502709196028091EF
:104AE00097029091980220E137E240E050E0B8D47C
:104AF000C701B601620F731F841F951F0E94BC126D
:104B0000882389F010929A021092990207C060E0FF
:104B100070E0CB010E94BC12882329F080916606C8
:104B200080628093660668EE73E080E090E00E9409
:104B30002906D0C381FFA4C18CE0CF57DF4F888303
:104B4000C158D0408DE0CE57DF4F8883C258D04047
:104B500081E1CD57DF4F8883C358D04084E0CC57E4
:104B6000DF4F8883C458D0400E94C2066093260657
:104B7000709327068093280690932906FE01EF572D
:104B8000FF4F5F0168EE262E63E0362E66246A949E
:104B9000712CE8E38E2EE1E09E2ED5011D915D0182
:104BA0001F921F93809110061F928F93A6E9B1E088
:104BB000BF93AF935F924F925FD710922406B201DA
:104BC0008EE096E00E94610620ED37E040E450E080
:104BD000B2018EE096E00E94CE060FB6F894DEBFDA
:104BE0000FBECDBF1816190634F0809111068F5FE5
:104BF00080931106B0C0B2018EE096E00E94CD0213
:104C00008111F3CF72016AED71E0C701D4D66C0156
:104C1000892B59F3760133E0E30EF11CC7010E94A2
:104C20003C168113F0CF10921106760145E0E40E98
:104C3000F11CD60115968C91803229F7C601069693
:104C4000412F50E0FA013497E036F10508F078C0C2
:104C5000EC5CFF4F43C40E946E169695879596951F
:104C6000879571C00E943C16B3E08B9FC001112450
:104C70006AC00E943C16282F30E0C90157C00E942C
:104C80003C16E4E68E9FC0011124B30104C00E94CB
:104C90006E1664E670E0D0D3CB0155C00E943C167E
:104CA0008695282F30E0C901805491094CC00E949C
:104CB0006E1649C00E946E16B101EDCF0E946E16AD
:104CC00064E170E0E8CF0E943C16282F30E0C90173
:104CD0008D57910938C00E943C1690E08058910988
:104CE000F4E6F89F9001F99F300D112437FF02C0C0
:104CF00021583F4FC901880F892F881F990B23C066
:104D00000E946E16A0E0B0E0BC01CD017956810989
:104D1000910920E830E040E050E0C4D3C90113C05D
:104D20000E946E166AE070E087D3CB0188970BC0B3
:104D30000E946E169C01A8ECB0E00E949A3203C05B
:104D40000E943C1690E0612F70E07160AC0186E239
:104D500096E00E94EB058091660684FF83C0920175
:104D600046E06BE38EE296E00E943303098110E097
:104D7000102F00278A81082B1093530600935206A8
:104D8000EB80F12CFE2CEE248C81E82AF092550663
:104D9000E09254066D8170E0762F66278E81682B35
:104DA0007093570660935606072E000C880B990BDC
:104DB0000E94433120E030E040E858E30E94A231F5
:104DC00020E030E048EC52E40E94A2315AD47F93B4
:104DD0006F93B701FF0C880B990B0E94433120E0C1
:104DE00030E040E858E30E94A23120E030E048EC97
:104DF00052E40E94A23145D47F936F93B801110F02
:104E0000880B990B0E94433120E030E040E858E3E2
:104E10000E94A23120E030E048EC52E40E94A2312E
:104E200030D47F936F931F9220E22F9380912906B5
:104E30008F93809128068F93809127068F9380917E
:104E400026068F939F928F925F924F9215D6482F8E
:104E5000B2018AE296E00E94D1050FB6F894DEBF57
:104E60000FBECDBFCC56DF4F9881C459D0409A11A8
:104E700094CE809111068330A0F00E944F1211C091
:104E80000E94C206611575498A4B9A4050F48EE023
:104E900096E0CFD9882329F08091660682608093BE
:104EA00066061092240600E117E220E2A2016EEDF0
:104EB00071E08EE096E00E940F11882321F0CE0170
:104EC00005969CD503C060E070E0CB0120E030E0A7
:104ED00048EC52E40E94A231D4D3AB0164E270E00A
:104EE00086E296E00E94EB058091660682FF8AC109
:104EF0001092240608EC10E020E8A20164EE71E0B4
:104F00008EE096E00E940F11882309F47BC145E0F2
:104F100050E06BEE71E0C20116D5892B09F072C129
:104F2000FE013696C757DF4FF983E883C958D04052
:104F3000C257DF4F1882CE58D040C357DF4F188278
:104F4000CD58D040C557DF4F19821882CB58D0407A
:104F5000612CCF56DF4F1882C159D040CE56DF4F5B
:104F60001882C259D040CD56DF4F1882C359D04065
:104F7000212C312CC157DF4F1882CF58D040C05759
:104F8000DF4F1882C059D040C12CD12C7601712C32
:104F9000A12CB12C00E0CB57DF4F8881C558D04001
:104FA000CA57DF4F9881C658D04088248394912CEB
:104FB000C757DF4FA881B981C958D0401D91C75745
:104FC000DF4FB983A883C958D040112309F465C0C5
:104FD000882009F417C11C3221F01E3311F01E3055
:104FE0003CF70FD5292D30E02830310508F046C0B8
:104FF000F901EC56FF4F72C26115710581059105EB
:10500000E9F1762EA72EB82E092F39C06B017C014D
:1050100036C0662ECF56DF4F7883C159D040CE566A
:10502000DF4F8883C259D040CD56DF4F9883C35994
:10503000D04025C024E630E040E050E033D2C557F0
:10504000DF4F39832883CB58D04019C0C357DF4F77
:105050006883CD58D04013C0C257DF4F6883CE5805
:10506000D0400DC01B01C157DF4F8883CF58D040BF
:10507000C057DF4F9883C059D04001C0812C939412
:105080001C3259F4C757DF4F8881C958D040C657E2
:10509000DF4F9881CA58D0408BCF882009F4B2C026
:1050A000B7E0B91508F0AEC00E94C20660932606AC
:1050B000709327068093280690932906C114D10483
:1050C000E104F10409F49EC080919502909196024A
:1050D000A0919702B0919802C816D906EA06FB067D
:1050E00009F490C08091990290919A0264E670E070
:1050F000A3D14C01672D7A2D8B2D902F20E137E223
:1051000040E050E0ADD130E08216930639F0472DF3
:105110005A2D6B2D702F81E190E02AD8B701A6019E
:1051200080E190E025D8A101C157DF4F6881CF58B9
:10513000D040C057DF4F7881C059D0408AE090E01E
:105140000E947B20462DCF56DF4F5881C159D04059
:10515000CE56DF4F6881C259D040CD56DF4F78819F
:10516000C359D0408BE090E00E947B20C557DF4FB1
:1051700048815981CB58D0406CE070E086E296E0DF
:105180000E94EB05C357DF4FE881CD58D0404E2F2A
:1051900050E06DE070E086E296E00E94EB05C257B9
:1051A000DF4FF881CE58D0404F2F50E06FE070E0D5
:1051B00086E296E00E94EB05672D7A2D8B2D902FCD
:1051C00024E630E040E050E04BD1C0929502D0920E
:1051D0009602E0929702F0929802C90164E670E0AC
:1051E0002BD144E6489F9001499F300D1124620F56
:1051F000731F70939A02609399028091660688608B
:105200008093660660912A0670912B0680912C0689
:1052100090912D064AE00E943B2081EF91E00E9490
:105220003A20E0918006F0918106309709F44EC053
:1052300083889488A588B68881149104A104B10458
:1052400009F444C0750164018AE0F694E794D794A8
:10525000C7948A95D1F7809194028C1511F187E655
:1052600096E00E94A802C09294028114910420E169
:10527000A206B104B0F0809180069091810600975B
:1052800059F00E94860D8091800690918106BFD2D0
:105290001092810610928006809166068F7D809321
:1052A0006606E0918006F0918106309729F06389C7
:1052B00074898589968903C060E070E0CB014AE07B
:1052C0000E943B208BEF91E00E943A2087ED91E015
:1052D0000E9428200E947602EACBCF93DF93E1E67A
:1052E000F5E01382128288EE93E0A0E0B0E08483C0
:1052F0009583A683B78328E231E031832083EDE6EE
:10530000F5E020E520831182EFE6F5E021E520833A
:105310001182E1E7F5E01382128284839583A683EC
:10532000B7832AE331E03183208325EC30E03587F1
:10533000248724EC30E03787268720EC30E0318B5F
:10534000208B21EC30E0338B228B22EC30E0358B4C
:10535000248B26EC30E0378B268B118E128E138E29
:10536000148EE2E8F6E0158216821186138642E07A
:1053700050E060E070E0448755876687778713A226
:1053800015A614A626E731E033A722A717A6E7E65D
:10539000F6E01382128284839583A683B78382E525
:1053A00091E091838083128E118E1486EEE0F6E0F8
:1053B00081E082831382158A148A108E118E128ED8
:1053C000138E148E158E168E178E8CE0AEE2B6E01C
:1053D000ED01982F19929A95E9F7AAE3B6E0ED014D
:1053E000982F19929A95E9F7A6E4B6E0ED01199283
:1053F0008A95E9F786E0A2E5B6E0ED01982F1992CB
:105400009A95E9F7A8E5B6E0ED01982F19929A95DB
:10541000E9F7AEE5B6E0ED0119928A95E9F7109249
:105420006506109264068CE491E09183808310926B
:105430006606DF91CF910895AA1BBB1B51E107C0FF
:10544000AA1FBB1FA617B70710F0A61BB70B881F14
:10545000991F5A95A9F780959095BC01CD010895A3
:10546000A1E21A2EAA1BBB1BFD010DC0AA1FBB1F68
:10547000EE1FFF1FA217B307E407F50720F0A21BDA
:10548000B30BE40BF50B661F771F881F991F1A9447
:1054900069F760957095809590959B01AC01BD0171
:1054A000CF010895052E97FB16F400940FD057FDF9
:1054B00005D0D6DF07FC02D046F408C050954095D1
:1054C000309521953F4F4F4F5F4F089590958095B0
:1054D000709561957F4F8F4F9F4F0895EE0FFF1F7F
:1054E0000590F491E02D09945058BB27AA270ED0BF
:1054F000A6C797D730F09CD720F031F49F3F11F426
:105500001EF48CC70EF4E095E7FB82C7E92FA8D7FD
:1055100080F3BA17620773078407950718F071F4D0
:105520009EF5C0C70EF4E0950B2EBA2FA02D0B01EF
:10553000B90190010C01CA01A0011124FF27591BD8
:1055400099F0593F50F4503E68F11A16F040A22FDE
:10555000232F342F4427585FF3CF4695379527954F
:10556000A795F0405395C9F77EF41F16BA0B620B4E
:10557000730B840BBAF09150A1F0FF0FBB1F661F95
:10558000771F881FC2F70EC0BA0F621F731F841FD8
:1055900048F4879577956795B795F7959E3F08F0FE
:1055A000B3CF9395880F08F09927EE0F97958795BD
:1055B00008950CD044C73CD740F033D730F021F4E5
:1055C0005F3F19F025C751116EC728C749D798F317
:1055D0009923C9F35523B1F3951B550BBB27AA2774
:1055E00062177307840738F09F5F5F4F220F331FE6
:1055F000441FAA1FA9F333D00E2E3AF0E0E830D0B2
:1056000091505040E695001CCAF729D0FE2F27D0B4
:10561000660F771F881FBB1F261737074807AB0782
:10562000B0E809F0BB0B802DBF01FF2793585F4FF7
:105630002AF09E3F510568F0EBC635C75F3FECF39B
:10564000983EDCF3869577956795B795F7959F5FBC
:10565000C9F7880F911D9695879597F90895E1E010
:10566000660F771F881FBB1F621773078407BA076F
:1056700020F0621B730B840BBA0BEE1F88F7E095CA
:10568000089504D06894B1110EC70895F1D688F03A
:105690009F5790F0B92F9927B751A0F0D1F0660F1E
:1056A000771F881F991F1AF0BA95C9F712C0B13039
:1056B00081F0F8D6B1E00895F5C6672F782F8827D6
:1056C000B85F39F0B93FCCF3869577956795B39578
:1056D000D9F73EF490958095709561957F4F8F4FE7
:1056E0009F4F0895CF93DF938230910510F482E0AD
:1056F00090E0E091CD06F091CE0620E030E0C0E0F1
:10570000D0E0309711F14081518148175907C0F01E
:105710004817590761F482819381209719F09B8380
:105720008A832BC09093CE068093CD0626C0211588
:10573000310519F04217530718F49A01BE01DF0131
:10574000EF010280F381E02DDCCF2115310509F155
:10575000281B390B2430310590F412968D919C91C1
:1057600013976115710521F0FB019383828304C0B7
:105770009093CE068093CD06FD01329644C0FD0184
:10578000E20FF31F81939193225031092D933C93A3
:105790003AC02091CB063091CC06232B41F42091C6
:1057A0000601309107013093CC062093CB0620915F
:1057B0000401309105012115310541F42DB73EB7A3
:1057C0004091080150910901241B350BE091CB0653
:1057D000F091CC06E217F307A0F42E1B3F0B28171D
:1057E000390778F0AC014E5F5F4F2417350748F05A
:1057F0004E0F5F1F5093CC064093CB06819391933D
:1058000002C0E0E0F0E0CF01DF91CF9108950F9367
:105810001F93CF93DF93009709F48CC0FC0132975C
:10582000138212820091CD061091CE06011511054A
:1058300081F420813181820F931F2091CB0630911A
:10584000CC062817390779F5F093CC06E093CB0600
:1058500071C0D80140E050E0AE17BF0750F4129677
:105860002D913C911397AD012115310509F1D90115
:10587000F3CF9D01DA013383228360817181860F2A
:10588000971F8217930769F4EC0128813981260F4D
:10589000371F2E5F3F4F318320838A819B81938303
:1058A0008283452B29F4F093CE06E093CD0642C0C7
:1058B0001396FC93EE931297ED01499159919E0135
:1058C000240F351FE217F30771F480819181840F53
:1058D000951F029611969C938E93828193811396C5
:1058E0009C938E931297E0E0F0E0D80112968D9190
:1058F0009C911397009719F0F8018C01F6CF8D91C8
:105900009C9198012E5F3F4F820F931F2091CB06F1
:105910003091CC062817390769F4309729F4109292
:10592000CE061092CD0602C0138212821093CC06CE
:105930000093CB06DF91CF911F910F91089581E0E5
:1059400090E0F89406C6FB01DC0104C08D91019043
:10595000801921F441505040C8F7881B990B0895D5
:105960006817790768F4FB01DC01E40FF51FA40F49
:10597000B51F02C002900E9241505040D8F70895D2
:1059800034C0FC018191861721F08823D9F799272B
:1059900008953197CF010895FB01DC01415050403B
:1059A00048F001900D920020C9F701C01D924150AE
:1059B0005040E0F70895FB0151915523A9F0BF0134
:1059C000DC014D9145174111E1F759F4CD010190EA
:1059D000002049F04D9140154111C9F3FB014111DF
:1059E000EFCF81E090E001970895FB01DC0102C058
:1059F00001900D9241505040D8F7089566277727BF
:105A00001EC21F93FC0199278827BC01E8941191BD
:105A10001032E9F3193010F01E30C8F31B3249F090
:105A20001D3241F4689405C012D0610F711D811DB3
:105A3000911D119110531A30B8F33EF49095809552
:105A4000709561957F4F8F4F9F4F1F910895592FEC
:105A5000482F372F262F660F771F881F991F660F35
:105A6000771F881F991F620F731F841F951F660F72
:105A7000771F881F991F0895AEE0B0E0E1E4FDE2D2
:105A800030C50D891E898EE08C831A8309838FEFC0
:105A90009FE79E838D83AE01475E5F4F6F89788D50
:105AA000CE01019609D02F813885F801E20FF31F4E
:105AB00010822E96E4E031C5ACE0B0E0E1E6FDE214
:105AC00002C57C016B018A01FC0117821682838169
:105AD00081FFB0C1CE0101964C01F7019381F6011F
