:1000000023C1000049C1000047C1000045C10000F4
:1000100043C1000041C100000C94CD083DC1000067
:100020003BC1000039C1000037C1000035C10000EC
:1000300033C1000031C100002FC100002DC10000FC
:100040000C94400D29C100000C94860A0C94610A9E
:1000500023C1000021C100001FC100001DC100001C
:100060001BC1000019C100008A1495149B14A1142F
:10007000A714AE14B114B514BC10B710E310E310FC
:10008000E310E310B1101711AA101711CA10B7101E
:10009000C410BC10171117111711171117111711D0
:1000A0001711171117111711171117111711D21056
:1000B0001711D21017111711171117111711171146
:1000C0001711171117111711BC10E310BC10BC1039
:1000D0001711D210AA101711171117111711171194
:1000E0001711171117111711071107110711071110
:1000F00017111711D410BC100F11BC10B710BC1081
:10010000BC10BC10BC10BC10BC10D210D210171107
:1001100017111711BC1017111711171117111711FB
:100120001711D2101711BC10B710F710D8101711F3
:100130001711DC10DC10D210000000002400270092
:100140002A004154425232256C750D0041544252EE
:1001500031256C750D0000000000250028002B00E3
:1001600025582345563D25752C54533D256C750067
:1001700025583D25640025583D256C640025583DD3
:10018000256C750025583D25643B25643B2564009E
:1001900025583D25642E2530366C750045563D2585
:1001A000750025582345563D25752C54533D256C27
:1001B000752C56494E3D2573002530325825303276
:1001C000580D00000000002300260029000404044C
:1001D00004040404040202020202020303030303F0
:1001E00003010204081020408001020408102001CD
:1001F00002040810200000000800020100000304AF
:100200000700000000000000004E414E494E4954D6
:1002100059494E46CDCCCC3D0AD7233C17B7D138EF
:1002200077CC2B329595E6241FB14F0A0000204170
:100230000000C84200401C4620BCBE4CCA1B0E5ADF
:10024000AEC59D74D2193E1611241FBECFEFD8E063
:10025000DEBFCDBF15E0A0E0B1E0E2E9F7E402C007
:1002600005900D92A836B107D9F727E0A8E6B5E0CA
:1002700001C01D92A335B207E1F711E0C3E2D1E05E
:1002800004C02197FE010E94D01AC232D107C9F7DB
:100290000E944D160C94BC23B3CEEF92FF920F93A5
:1002A0001F93CF93DF93EC018B01E881F9810680E6
:1002B000F781E02D61E070E0099560E087E00E9441
:1002C000F609E881F9810680F781E02D61E070E0B0
:1002D000CE010995F80180818432A1F0E12CF12C46
:1002E0008E89F70194E0899FE00DF11D1124EA5FEA
:1002F000FE4F808173D7EFEFEE1AFE0AF4E0EF169F
:10030000F10471F7F80181918F01882311F066D70C
:10031000F9CF8BE163D7E881F9810680F781E02D81
:1003200061E070E0CE01099561E087E0DF91CF9157
:100330001F910F91FF90EF900C94F6093F924F920E
:100340005F926F927F928F929F92AF92BF92CF9265
:10035000DF92EF92FF920F931F93CF93DF9300D022
:100360001F92CDB7DEB78C016B017A0159010E9453
:10037000340D2B013C011B821A82470141E0841A93
:1003800091080E94E20DD801ED91FC910680F78161
:10039000E02D61E070E00197A9F4C80109950E9481
:1003A000340DDC01CB0184199509A609B709950123
:1003B00040E050E0281739074A075B0710F780E054
:1003C00090E0C7C0C801099560E087E00E94F60987
:1003D00075010E94E20D892B09F06CC00E94340D5A
:1003E000DC01CB0184199509A609B709970140E002
:1003F00050E082179307A407B50708F05BC080E2BE
:10040000EDD6282F4A815B81452B39F4243209F738
:10041000F601208341E050E01EC04A815B814730F5
:100420005105E4F0D60111968C918F34B9F42E3237
:10043000A9F4CA018C0D9D1DFC01319730813E321B
:1004400081F4319780818E3261F4B0EFEB1AB8ED10
:10045000FB0A44E050E05B834A83BBCF222309F4CC
:10046000B8CF4A815B814815590559F4BA01C601D4
:10047000298314D74A815B81481B590B5B834A83CC
:100480002981EA81FB81EC0DFD1D2083293031F4A7
:1004900031973324339480818E3309F0312C4A8193
:1004A0005B814F5F5F4F5B834A83332009F491CFB9
:1004B000570102C05701312CD801ED91FC91068003
:1004C000F781E02D61E070E0C801099561E087E007
:1004D0008DD7D801ED91FC910680F781E02D61E088
:1004E00070E0C8010995311011C00E94340DDC0183
:1004F000CB0184199509A609B709970140E050E09E
:1005000082179307A407B50708F43BCFD801569686
:100510008C91833041F0332031F04A815B8141502E
:1005200051095B834A83EA81FB81EC0DFD1D10823A
:100530000E94E20D892B59F4D801ED91FC910680BF
:10054000F781E02D61E070E0C8010995F1CF8A8163
:100550009B810F900F900F90DF91CF911F910F9182
:10056000FF90EF90DF90CF90BF90AF909F908F90D3
:100570007F906F905F904F903F9008952F923F92A1
:100580004F925F926F927F928F929F92AF92BF92A3
:10059000CF92DF92EF92FF920F931F93CF93DF934F
:1005A00000D000D000D0CDB7DEB79E838D836B0125
:1005B0007A012C830E94340D2B013C012C81222EC8
:1005C000312CC70107969B838A834801A12CB12C4B
:1005D000B6018D819E8161DE9801A101B7018D81F7
:1005E0009E81ACDE8983882379F0D70111968C91A6
:1005F0008F3419F145E050E065E075E08A819B8118
:100600000E94791D892BC9F4AD81BE81ED91FC91C9
:1006100011970680F781E02D64E170E0CD01099526
:100620000E94340DDC01CB0184199509A609B70994
:1006300088159905AA05BB0558F2898126960FB63B
:10064000F894DEBF0FBECDBFDF91CF911F910F9108
:10065000FF90EF90DF90CF90BF90AF909F908F90E2
:100660007F906F905F904F903F902F900895CF9222
:10067000DF92EF92FF920F931F93CF93DF9300D0FF
:1006800000D000D0CDB7DEB780914607982F9F7B72
:100690009093460781FD29C083E793E00E94790F7C
:1006A00082E896E00E947E15682F70E080E090E07E
:1006B0004AE00E942E0F8AE294E00E94C40D88E76F
:1006C00093E00E94790F0E942D0E811105C08FE7E3
:1006D00093E00E94D60D06C182E893E00E94D60DF9
:1006E0008091460782608093460765E873E0CE01FB
:1006F00001963FD6CE0101960E94301189819A81E0
:100700000E941A1C8BE793E00E94790F8EE196E01D
:100710008DD28823E1F282E893E00E94D60D809189
:1007200046078061809346078CE893E00E94790F2A
:100730000E94340D6B017C0128E234E048EE53E066
:1007400064E973E08EE196E00E94EB112AE933E060
:1007500048EB5BE065EA73E08EE196E00E94EB1106
:10076000182F8EE20E946E0F11111BC00E94340DD3
:10077000DC01CB018C199D09AE09BF0980369A4E68
:10078000A105B10518F3A3CF0E94340DAB01BC0144
:100790004C195D096E097F0940365A4E6105710595
:1007A00068F42FEA33E048EB5BE069EB73E08EE13D
:1007B00096E00E94EB11182F882331F383E094E038
:1007C0009F938F938BE094E09F938F9381E396E0C8
:1007D0009F938F930E94CC1D28E234E048EE53E0B3
:1007E00061E376E08EE196E00E94EB110F900F90AE
:1007F0000F900F900F900F90882309F468CF28E294
:1008000034E048EE53E064EC73E08EE196E00E9441
:10081000EB11112309F45BCF82E893E00E94D60D1F
:10082000809146078062809346078EEC93E00E9499
:10083000790F0E94340D6B017C010E94340DDC01A4
:10084000CB018C199D09AE09BF0980369A4EA105CE
:10085000B10508F053C02DE733E048EB5BE062EDF3
:1008600073E08EE196E00E94EB11882331F3E1E31F
:10087000F6E08F012191211137C06DE070E0C801D1
:100880000E94A01D009711F0FC011082B801CE015A
:1008900001966FD5CE0101960E9430118AE294E054
:1008A0000E94C40D89819A810E941A1C109222060E
:1008B00010922306109224061092250603E08CED78
:1008C00093E00E94790F41E95FE165EE73E08EE10C
:1008D00096E0D7D3811115C08FE793E00E94D60D23
:1008E000015069F710E055C0022E000C330B205365
:1008F00031092A30310508F0BCCFBFCF6CE274E07B
:10090000C6CF82E893E00E94D60D81E00E943911A3
:10091000182F811104C08EE196E080D1E1CF82EFE3
:1009200093E00E94790F1A8219821C821B821E8218
:100930001D8260912B0670912C066115710539F0AE
:1009400040912F0650913006CE010196D2D4CE01AF
:1009500001960E9430118AE294E00E94C40D8981C0
:100960009A810E941A1C8AEF93E00E94790F60918D
:1009700020067091210680E090E04AE00E942E0F50
:100980008AE294E00E94C40D8091460780648093BF
:100990004607812F26960FB6F894DEBF0FBECDBF57
:1009A000DF91CF911F910F91FF90EF90DF90CF904B
:1009B0000895CF93DF93EC01CD59DF4F288122308A
:1009C00089F4FC01A081B18116978D919C918E0FC5
:1009D0009F1FDC01ED91FC9100A0F1A1E02D099594
:1009E00081E08883DF91CF910895CF92DF92EF92DB
:1009F000FF920F931F93CF93DF936C017A018B01CA
:100A0000C0E0D0E0CE15DF0589F0D8016D918D01F1
:100A1000D601ED91FC910190F081E02DC601099580
:100A2000892B11F47E0102C02196ECCFC701DF9122
:100A3000CF911F910F91FF90EF90DF90CF9008958D
:100A4000089580E090E00895FC01538D448D252F9A
:100A500030E0842F90E0821B930B541710F0CF9658
:100A6000089501970895FC01918D828D981761F08A
:100A7000828DDF01A80FB11D5D968C91928D9F5FD5
:100A80009F73928F90E008958FEF9FEF0895FC0180
:100A9000918D828D981731F0828DE80FF11D858D33
:100AA00090E008958FEF9FEF0895FC01918D228DC6
:100AB000892F90E0805C9F4F821B91098F7399274B
:100AC000089581E895E0F1DF21E0892B09F420E029
:100AD000822F0895FC01848DDF01A80FB11DA35A58
:100AE000BF4F2C91848D90E001968F739927848F4E
:100AF000A689B7892C93A089B1898C9180648C9345
:100B0000938D848D981306C00288F389E02D80812F
:100B10008F7D80830895EF92FF920F931F93CF9361
:100B2000DF93EC0181E0888F9B8D8C8D981305C03D
:100B3000E889F989808185FD23C0F62E0B8D10E0B0
:100B40000F5F1F4F0F731127E02E8C8DE8120BC023
:100B50000FB607FCFACFE889F989808185FFF5CFC8
:100B6000CE01B8DFF2CF8B8DFE01E80FF11DE35A05
:100B7000FF4FF0820B8FEA89FB898081806207C07A
:100B8000EE89FF896083E889F989808180648083A8
:100B900081E090E0DF91CF911F910F91FF90EF9056
:100BA0000895CF93DF93EC01888D8823C1F0EA8903
:100BB000FB89808185FD05C0A889B9898C9186FD56
:100BC0000EC00FB607FCF5CF808185FFF2CFA88954
:100BD000B9898C9185FFEDCFCE017CDFE8CFDF9125
:100BE000CF91089580E090E0892B21F06ADF811198
:100BF0000C9400000895FC01138612861782168259
:100C00000895FC0187890895089508950895AB011A
:100C100023E234E060E070E00C94EB1128E234E071
:100C200048EE53E06DE274E00C94EB11EF92FF920A
:100C30000F931F93CF93DF93EC018C010D591F4F3E
:100C4000D8018C91811115C0E881F9813697808196
:100C500091818C0F9D1FDC01ED91FC910488F58939
:100C6000E02D40E052EC61E070E0099581E0F80190
:100C700080839AE0F92EE881F9813697808191810D
:100C80008C0F9D1FDC01ED91FC9100A0F1A1E02DE6
:100C90000995E881F9813697808191818C0F9D1F9C
:100CA000DC01ED91FC910680F781E02D68EB7BE0A3
:100CB0000995E881F9813697808191818C0F9D1F7C
:100CC000DC01ED91FC91068CF78DE02D099583E018
:100CD000E82E28E234E048EE53E069E174E0CE010A
:100CE0000E94EB11882321F092E0F801908306C066
:100CF000EA94E110EECFFA94F110BDCFDF91CF91DD
:100D00001F910F91FF90EF900895FF920F931F9303
:100D1000CF93DF938C01EB0128E234E048EB5BE0FA
:100D20006AE374E00E94EB11F82E811102C0F12CED
:100D300080C06AE370E0C80143960E94A01D00973E
:100D4000B1F36CE270E00E94A01D009781F38C016A
:100D50000F5F1F4FC8010E94EC1D6C837D838E8343
:100D60009F836CE270E0C8010E94A01D0097F9F219
:100D70008C010F5F1F4FC8010E94EC1D68837983AF
:100D80008A839B836CE270E0C8010E94A01D0097DB
:100D900071F28C010F5F1F4FC8010E94EF1D805D33
:100DA00088876FE270E0C8010E94A01D009709F4D7
:100DB000BECF8C010F5F1F4FC8010E94EF1D8987B6
:100DC0006FE270E0C8010E94A01D009709F4AFCF48
:100DD0008C010F5F1F4FC8010E94EF1D8A876CE2D4
:100DE00070E0C8010E94A01D009709F4A0CF8C01FB
:100DF0000F5F1F4FC8010E94EF1D8B876AE370E0F1
:100E0000C8010E94A01D009709F491CF8C010F5FCB
:100E10001F4FC8010E94EF1D8C876AE370E0C80174
:100E20000E94A01D009709F482CF01960E94EF1D39
:100E30008D878F2DDF91CF911F910F91FF90089596
:100E40000F931F93CF93DF93EC018B012CE434E0DD
:100E500060E070E00E94EB11882341F1639667E542
:100E600074E0CE010E94B21D009719F06AE370E0B1
:100E700009C06CE474E0CE010E94B21D0097B1F08D
:100E80006AE070E00E94A01D009781F0FC0131969D
:100E90000115110571F0DF010D900020E9F71197A0
:100EA000AE1BBF0BE801B983A88303C080E090E0CC
:100EB00001C0CF01DF91CF911F910F9108952F9223
:100EC0003F924F925F926F927F928F929F92AF92DA
:100ED000BF92CF92DF92EF92FF920F931F93CF9327
:100EE000DF93CDB7DEB767970FB6F894DEBF0FBEBE
:100EF000CDBF8C016B015A012D8BDC0113968C91B7
:100F000013978F9312968C918F938CE594E09F9317
:100F10008F93FE0131967F01FF93EF930E94CC1DCA
:100F20004C010F900F900F900F900F900F90F701C2
:100F300080E09F012E193F09281539051CF4919175
:100F4000890FF7CFF60190E09F012C193D092A1572
:100F50003B051CF42191920FF7CF890F1F928F93BD
:100F600080E694E09F938F932E01F1E14F0E511C88
:100F70005F924F920E94CC1D3C0114012A0C3B1C35
:100F8000280E391E3F922F9284E694E09F938F9310
:100F9000B8016D5E7F4F7F936F936E8B7F8B0E9446
:100FA000CC1D23E734E048EC50E06E897F89C8010E
:100FB0000E94EB110FB6F894DEBF0FBECDBF8111BA
:100FC00003C080E090E044C0D801ED91FC913697D9
:100FD00080819181800F911FDC01ED91FC91028C49
:100FE000F38DE02DA401B7010995D801ED91FC9195
:100FF000369780819181800F911FDC01ED91FC91EA
:10100000028CF38DE02DA501B6010995D801ED9173
:10101000FC91369780819181800F911FDC01ED91C9
:10102000FC91028CF38DE02DA301B2010995BD89DD
:10103000BB2369F0D801ED91FC910088F189E02D86
:1010400068E873E1C8010995882309F4BACFC101A2
:1010500067960FB6F894DEBF0FBECDBFDF91CF917C
:101060001F910F91FF90EF90DF90CF90BF90AF90C6
:101070009F908F907F906F905F904F903F902F90B8
:101080000895CF92DF92EF92FF920F931F93CF9329
:10109000DF93EC01F62EE72ED42EC52E28E234E0A5
:1010A00048EE53E065E774E00E94EB118E010D5E9F
:1010B0001F4FCF92DF92EF92FF9283E894E09F93CD
:1010C0008F931F930F930E94CC1D8DB79EB70896E8
:1010D0000FB6F8949EBF0FBE8DBF28E234E048EBF8
:1010E0005BE0B801CE01DF91CF911F910F91FF908E
:1010F000EF90DF90CF900C94EB110E94751DEF9252
:10110000FF920F931F93CF93DF93042F10E0FC0106
:10111000428553852EE930E0241B350B201B310B13
:1011200037FD34C07B01EC0122813381448155813C
:10113000211531054105510569F01282138214828F
:1011400015820190F081E02D0284F385E02D60E0AE
:1011500070E009958A859B850C96A801B7018C0FD4
:101160009D1F0E94861D8A859B85A801480F591FD7
:10117000CA0101969B878A87FE01E40FF51F8CE266
:1011800084878E819F8101969F838E83DF91CF918B
:101190001F910F91FF90EF9008951F920F920FB63D
:1011A0000F9211248F93EF93FF930FB6F894A895A5
:1011B00080916000886180936000109260000FBE93
:1011C000A895E0E6F0E080818F7B8083FF91EF912E
:1011D0008F910F900FBE0F901F9018958EBD00003D
:1011E0000DB407FEFDCF8EB50895FC01908181817D
:1011F0002FEB290F263010F497500AC02FE9290F42
:10120000263010F4975204C020ED290F2A30E8F45C
:10121000811103C0892F8F7008952FEB280F26307E
:1012200010F487500AC02FE9280F263010F4875297
:1012300004C020ED280F2A3040F4282F2F7030E111
:10124000939FC0011124822B089580E00895FC0132
:10125000919180E020E030E09923F1F08430E4F4D3
:101260004FEB490F463010F497500CC04FE9490F2F
:10127000463010F4975206C0903261F040ED490FAD
:101280004A3050F444E0220F331F4A95E1F79F7033
:10129000292B8F5F9191E0CFC9010895CF93DF9300
:1012A000FC01C0E0D0E0C617D707A4F421912D308F
:1012B00011F02A3069F42196C617D70774F4FC019F
:1012C000EC0FFD1F20812D30B1F32A3031F4F3CF24
:1012D0002196E9CFEB01D595C795AB014C1B5D0B72
:1012E000BC016C0F7D1F0E948F1DCE01DF91CF913D
:1012F0000895EF92FF920F931F93CF93DF93EC012A
:101300007B018A0188819981009729F02A813B819C
:1013100024173507F8F4B8016F5F7F4F0E94B21CA5
:10132000009759F0998388831B830A832C813D8120
:10133000232B81F4FC0110820DC0888199810097D4
:1013400011F00E941A1C198218821D821C821B82B5
:101350001A8207C01D830C83B701888199810E947E
:10136000AB1DCE01DF91CF911F910F91FF90EF90B8
:101370000895FC0111821082138212821582148258
:101380006115710549F0FB0101900020E9F73197E3
:10139000AF01461B570BADCF0895833081F028F481
:1013A000813099F08230A1F008958730A9F088301B
:1013B000B9F08430D1F4809180008F7D03C080919A
:1013C00080008F7780938000089584B58F7702C066
:1013D00084B58F7D84BD08958091B0008F7703C060
:1013E0008091B0008F7D8093B00008951F93CF93BC
:1013F000DF93282F30E0F901EB50FE4F8491F90183
:10140000EF51FE4FD491F901E353FE4FC491CC2329
:10141000C1F0162F8111C1DFEC2FF0E0EE0FFF1F9E
:10142000EA5AFE4FA591B4918FB7F894111105C0F7
:101430009C91ED2FE095E92302C0EC91ED2BEC930C
:101440008FBFDF91CF911F910895CF93DF9390E0ED
:10145000FC01EF51FE4F2491FC01E353FE4F8491B8
:10146000882361F190E0880F991FFC01E85CFE4F32
:10147000C591D491FC01EA5AFE4FA591B491611136
:1014800009C09FB7F8948881209582238883EC91C6
:101490002E230BC0623061F49FB7F8943881822FFD
:1014A000809583238883EC912E2B2C939FBF06C0BD
:1014B0008FB7F894E8812E2B28838FBFDF91CF91CF
:1014C00008951F920F920FB60F9211242F933F93FE
:1014D0004F935F936F937F938F939F93AF93BF933C
:1014E000EF93FF9381E895E0F5DAFF91EF91BF91DB
:1014F000AF919F918F917F916F915F914F913F91AC
:101500002F910F900FBE0F901F9018951F920F9262
:101510000FB60F9211242F938F939F93EF93FF9306
:10152000E0919105F09192058081E0919705F0910D
:10153000980582FD12C0908180919A058F5F8F730C
:1015400020919B05821751F0E0919A05F0E0EF574A
:10155000FA4F958F80939A0501C08081FF91EF919A
:101560009F918F912F910F900FBE0F901F90189504
:10157000CF93FC01C0E09F019191992349F09A32E9
:1015800011F0C90FF8CFC90101962FDE91E08C133D
:1015900090E0892FCF910895FC018681978108956D
:1015A000FC011782168208950895FC0171876087F7
:1015B0000895DC0112964D935D936D937C9315977E
:1015C00018968D919C911997009739F0DC01ED9157
:1015D000FC910088F189E02D09940895089581E037
:1015E000089581E0089581E0089580E0089580E005
:1015F00090E0089580E090E00895089581E00895D6
:10160000089581E0089580E008950895089508956B
:1016100081E0089581E008953FB7F89480917D05B9
:1016200090917E05A0917F05B091800526B5A89B7D
:1016300005C02F3F19F00196A11DB11D3FBFBA2F64
:10164000A92F982F8827820F911DA11DB11DBC01C4
:10165000CD0142E0660F771F881F991F4A95D1F789
:101660000895FF920F931F93CF93DF93EC018B01AB
:10167000F42E50E081E895E0B8D96AE081E895E081
:101680004ADA8E819F8101969F838E838885998512
:10169000009771F0DC01ED91FC91028CF38DE02D4F
:1016A0004F2DB801DF91CF911F910F91FF900994B9
:1016B000DF91CF911F910F91FF9008956F927F92CC
:1016C0008F929F92AF92BF92CF92DF92EF92FF9252
:1016D0000F931F93CF93DF93CDB7DEB768970FB605
:1016E000F894DEBF0FBECDBF8C01762E672E690148
:1016F0007A01CA01B90157FF07C066277727CB01D6
:10170000621B730B840B950B20E4822E22E4922E35
:101710002FE0A22EB12CA50194010E94B41A9F9330
:101720008F937F936F93C701B601A50194010E9427
:10173000B41A3F932F936F927F9280E991E09F9329
:101740008F93CE0101967C019F938F930E944F1E31
:10175000D801ED91FC91028CF38DE02D482FB7015B
:10176000C80109950FB6F894DEBF0FBECDBF6896CD
:101770000FB6F894DEBF0FBECDBFDF91CF911F91A2
:101780000F91FF90EF90DF90CF90BF90AF909F9020
:101790008F907F906F900895EF92FF920F931F9319
:1017A000CF93DF93CDB7DEB768970FB6F894DEBF5F
:1017B0000FBECDBF7C011F930F933F932F935F9379
:1017C0004F937F936F9384E891E09F938F938E0163
:1017D0000F5F1F4F1F930F930E944F1ED701ED9174
:1017E000FC91028CF38DE02D482FB801C7010995BB
:1017F0000FB6F894DEBF0FBECDBF68960FB6F89453
:10180000DEBF0FBECDBFDF91CF911F910F91FF9033
:10181000EF900895EF92FF920F931F93CF93DF9372
:10182000CDB7DEB764970FB6F894DEBF0FBECDBF5D
:101830008C015F934F933F932F937F936F938DE72B
:1018400091E09F938F93CE0101967C019F938F939C
:101850000E944F1ED801ED91FC91028CF38DE02D7A
:10186000482FB701C80109950FB6F894DEBF0FBE27
:10187000CDBF64960FB6F894DEBF0FBECDBFDF912B
:10188000CF911F910F91FF90EF900895EF92FF92EB
:101890000F931F93CF93DF93CDB7DEB764970FB647
:1018A000F894DEBF0FBECDBF8C015F934F933F9383
:1018B0002F937F936F9386E791E09F938F93CE0151
:1018C00001967C019F938F930E944F1ED801ED914A
:1018D000FC91028CF38DE02D482FB701C8010995CA
:1018E0000FB6F894DEBF0FBECDBF64960FB6F89466
:1018F000DEBF0FBECDBFDF91CF911F910F91FF9043
:10190000EF900895EF92FF920F931F93CF93DF9381
:10191000CDB7DEB760970FB6F894DEBF0FBECDBF70
:101920008C015F934F937F936F9380E791E09F9338
:101930008F93CE0101967C019F938F930E944F1E3F
:10194000D801ED91FC91028CF38DE02D482FB70169
:10195000C80109950FB6F894DEBF0FBECDBF6096E3
:101960000FB6F894DEBF0FBECDBFDF91CF911F91B0
:101970000F91FF90EF900895CF93DF93EC0165E80E
:1019800073E0F7DCCE01DF91CF910895CF93DF9321
:10199000EC016CE274E0EDDCCE01DF91CF910895B3
:1019A000CF93DF93EC01FB01198218821B821A820C
:1019B0001D821C82CB010D96C817D90749F0658599
:1019C00076856115710521F041895289CE0191DC3E
:1019D000CE01DF91CF9108958F929F92AF92BF92E7
:1019E000CF92DF92EF92FF926B017C0115DE4B01EB
:1019F0005C01C114D104E104F104E9F00DDEDC0165
:101A0000CB0188199909AA09BB09883E9340A10511
:101A1000B10578F321E0C21AD108E108F10888EE97
:101A2000880E83E0981EA11CB11CC114D104E104EE
:101A3000F10421F7DECFFF90EF90DF90CF90BF90C1
:101A4000AF909F908F90089580E090E0C5CF9B016C
:101A500088EE93E0289FB001299F700D389F700D8C
:101A6000112480E090E0B8CF2FB7F8946091790509
:101A700070917A0580917B0590917C052FBF089528
:101A80001F920F920FB60F9211242F933F938F93B3
:101A90009F93AF93BF938091790590917A05A09120
:101AA0007B05B0917C053091780523E0230F2D371D
:101AB00020F40196A11DB11D05C026E8230F029652
:101AC000A11DB11D209378058093790590937A0527
:101AD000A0937B05B0937C0580917D0590917E0558
:101AE000A0917F05B09180050196A11DB11D809345
:101AF0007D0590937E05A0937F05B0938005BF91EF
:101B0000AF919F918F913F912F910F900FBE0F90AA
:101B10001F901895CF92DF92EF92FF921F93CF9371
:101B2000DF93CDB7DEB728970FB6F894DEBF0FBEB0
:101B3000CDBF6C0198E0E7E1F1E0DE011196019084
:101B40000D929A95E1F7CE0101967C0110E0F70124
:101B5000619171917F01C6010E94B21D1F5F892BA7
:101B600011F0812F03C0143091F780E028960FB652
:101B7000F894DEBF0FBECDBFDF91CF911F91FF90D4
:101B8000EF90DF90CF900895009769F0FC010190ED
:101B90000020E9F73197AF01481B590BBC0181E8E0
:101BA00095E00C94F50480E090E00895CF93DF93E6
:101BB000EBDFEC018AE294E0E7DF8C0F9D1FDF9101
:101BC000CF910895CF93DF93EBEFF1E08491E7EEAF
:101BD000F1E0D491E3EDF1E0C491CC2389F08111DF
:101BE000DCDBEC2FF0E0EE0FFF1FED53FE4FA59175
:101BF000B491EC91ED2381E090E021F480E002C00B
:101C000080E090E0DF91CF9108950F931F93CF93E1
:101C1000DF93CDB7DEB7A0970FB6F894DEBF0FBE47
:101C2000CDBF00E117E220E2AE014F5F5F4F6BE0F6
:101C300075E082E896E00E94BE0268EB7BE080E0FF
:101C400090E0CADEA0960FB6F894DEBF0FBECDBFFF
:101C5000DF91CF911F910F9108952F923F924F9254
:101C60005F926F927F928F929F92AF92BF92CF922C
:101C7000DF92EF92FF920F931F93CF93DF93CDB735
:101C8000DEB7CF54D1090FB6F894DEBF0FBECDBF7B
:101C900086E0EFE1F1E0DE01A75BBF4F01900D921E
:101CA0008A95E1F710929706109296069E01275B9F
:101CB0003F4F7901590136E0A30EB11CD12CD70159
:101CC0006D917D917D0100ED17E020E4AE014F5F45
:101CD0005F4F82E896E00E94BE02811101C0D3945A
:101CE000EA14FB0461F7DD2019F08FDF80E09CC06F
:101CF00000E117E220E4AE014F5F5F4F60E175E065
:101D000082E896E00E94BE02882379F3CE01019614
:101D100001DF8111EACF80E1E6E8F6E0DF011D9204
:101D20008A95E9F74F0100E010E0712C89EB282E2D
:101D300081E0382E5E01B1E4AB0EB11C60960FAFAE
:101D400060971F930F93809184061F928F933F9209
:101D50002F92BF92AF920E944F1E10929806B5012B
:101D600082E896E00E944D0120E137E240E450E035
:101D7000BE016F5F7F4F82E896E00E949E010FB622
:101D8000F894DEBF0FBECDBF181619060CF041C087
:101D9000CE010196BFDE81113CC09E012F5F3F4FF7
:101DA000690166E175E0C6010E94B21D7C01892BC4
:101DB00039F1670133E0C30ED11CC60116DA609613
:101DC0009FAD60978913EDCF6701A5E0CA0ED11CC6
:101DD0002601B1E1EB0EF11C3401D2018C9180326D
:101DE00061F4C201019601DAF30181933F01F3E04E
:101DF0004F0E511C4E145F0481F777247394D1CF9A
:101E0000005E1F4FB4E08B0E911C0038110509F0E5
:101E100095CF772041F082E090E0909397068093F1
:101E2000960610928506872DC15BDF4F0FB6F8949A
:101E3000DEBF0FBECDBFDF91CF911F910F91FF90FD
:101E4000EF90DF90CF90BF90AF909F908F907F905A
:101E50006F905F904F903F902F9008958F929F9238
:101E6000AF92BF920F931F93CF93DF93CDB7DEB79F
:101E7000A1970FB6F894DEBF0FBECDBF19A24230B6
:101E800008F44AE08E010F5D1F4F842E912CA12C87
:101E9000B12CA50194010E94921AE62FB901CA0142
:101EA00001501109EA3014F4E05D01C0E95CD80189
:101EB000EC93232B242B252B61F7C80165DEA1961B
:101EC0000FB6F894DEBF0FBECDBFDF91CF911F914B
:101ED0000F91BF90AF909F908F900895E0918105F2
:101EE000F09182050190F081E02D682F81E895E066
:101EF00009944ACE8F929F92AF92BF92CF92DF9277
:101F0000EF92FF92CF93DF936B017C019B01AC01B9
:101F10000E94811B882319F085E295E027C04601C5
:101F20005701E894B7F82FEF3FEF4FE75FE7C501A0
:101F3000B4010E94811B81110DC02FEF3FEF4FE7CD
:101F40005FE7C501B4010E94502218161CF489E213
:101F500095E00CC02FEF3FEF4FE75FE4C701B601FC
:101F60000E947D1B18166CF48DE295E0DF91CF91F5
:101F7000FF90EF90DF90CF90BF90AF909F908F90A9
:101F800003CE2FEF3FEF4FE75FECC701B6010E9492
:101F9000502287FDE9CF20E030E0A901C701B6015A
:101FA0000E94502287FF08C08DE298DFEC01F7FA0B
:101FB000F094F7F8F09402C0C0E0D0E02AE037EDEA
:101FC00043EA5BE3C701B6010E94DF1A4B015C01E3
:101FD0000E94501B6B017C010E9454229B01AC01AA
:101FE000C501B4010E94DE1A4B015C014AE0C70141
:101FF000B60134DFC80FD91F8EE270DFC80FD91FBA
:1020000020E030E040E251E4C501B4010E94B52275
:102010004B015C010E94501B6B01E12CF12C4AE04A
:10202000C701B6011BDFC80FD91FC701B6010E9447
:1020300054229B01AC01C501B4010E94DE1A20E0CC
:1020400030E040E251E40E94B5220E94501B80E043
:1020500090E04AE003DF8C0F9D1FDF91CF91FF904E
:10206000EF90DF90CF90BF90AF909F908F900895AA
:10207000AF92BF92DF92EF92FF920F931F93CF9395
:10208000DF93CDB7DEB7C054D1090FB6F894DEBFE9
:102090000FBECDBFD82E8B011F928F9380918406E7
:1020A0001F928F9389EB91E09F938F939E012F5FF7
:1020B0003F4F79013F932F930E944F1E1092980635
:1020C000B70182E896E00E944D0120ED37E040E440
:1020D00050E0B70182E896E00E949E010FB6F894A6
:1020E000DEBF0FBECDBF181619063CF080918506E5
:1020F0008F5F8093850680E0A2C0C7010BDD811150
:10210000F5CF570166E175E0C5010E94B21D7C0163
:10211000892B61F35701F3E0AF0EB11CC50165D8FF
:102120008D11F0CF10928506570125E0A20EB11C4B
:10213000F7018581803231F7C70106964D2D50E0B9
:10214000FA013497E036F10508F071C0E45CFF4F06
:102150000C94D01A7CD8BC017695679576956795D6
:102160006AC043D8F3E08F9FB001112464C03DD80A
:10217000282F30E0B90150C038D824E6829FC00132
:1021800011246FEF70E003C062D864E670E00E9433
:102190007E1A51C02AD88695282F30E0B9016054A4
:1021A000710949C054D841C052D868EE73E0EFCFEE
:1021B0004ED864E170E0EBCF18D8282F30E0B90199
:1021C0006D57710938C011D890E08058910944E6E4
:1021D000489F9001499F300D112437FF02C02158BC
:1021E0003F4FB901660F672F661F770B24C02FD8AA
:1021F000A0E0B0E0BC01CD0179568109910920E849
:1022000030E040E050E00E94B41AB90114C01FD879
:102210006AE070E00E947E1A685271090CC017D8FB
:102220009C01A8ECB0E00E94AD23BC0104C00E9458
:10223000F508682F70E0F8017183608381E0C05C6D
:10224000DF4F0FB6F894DEBF0FBECDBFDF91CF9149
:102250001F910F91FF90EF90DF90BF90AF90089586
:10226000FC01448155816081718181E895E00C9485
:10227000F5043F924F925F926F927F928F929F925E
:10228000AF92BF92CF92DF92EF92FF920F931F9384
:10229000CF93DF93CDB7DEB7C255D1090FB6F8940F
:1022A000DEBF0FBECDBF382E83E0482E91E3C92E8E
:1022B00095E0D92E22EAA22E21E0B22E9E012F5FB8
:1022C0003F4F49013CE9632E31E0732E7E0131E43A
:1022D000E30EF11CC9DBDF92CF929F938F937F9324
:1022E0006F931F923F92809121068F9380912006D9
:1022F0008F93BF92AF929F928F920E944F1EAC011C
:10230000552721E0B4018EE196E00E945F070FB6E9
:10231000F894DEBF0FBECDBF892B19F48DED94E08C
:1023200030C040E157E2BE016F5A7F4F8EE196E028
:102330000E9420078C01009719F48DE395E021C0DD
:102340001092260615D9582E811105C086E495E015
:10235000D0DDC80116C01F923F927F926F92FF920C
:10236000EF920E944F1EB701C8010E94B21D0F904C
:102370000F900F900F900F900F90892B41F489E5EB
:1023800095E014DC4A944110A5CF512C0AC031E0ED
:10239000331207C0C8010E94EF1D9093210680935D
:1023A0002006852DCE5ADF4F0FB6F894DEBF0FBE44
:1023B000CDBFDF91CF911F910F91FF90EF90DF90F4
:1023C000CF90BF90AF909F908F907F906F905F90D5
:1023D0004F903F900895CF92DF92EF920F931F930B
:1023E000CF93DF9300D0CDB7DEB78C016A013A837B
:1023F00029836115710579F0DC01ED91FC91369727
:1024000080819181800F911FDC01ED91FC91008C06
:10241000F18DE02D0995F801138A0190F081E02DEE
:10242000369780819181800F911FDC01ED91FC91A5
:10243000B8016D5E7F4F048CF58DE02DEE24E394A2
:102440008E010F5F1F4F960140E550E0099591E026
:10245000811101C090E0892F0F900F90DF91CF91F3
:102460001F910F91EF90DF90CF900895DC01ED91D7
:10247000FC91008CF18DE02D099428E16115710526
:1024800009F43CC06830710520F06850710989E09A
:1024900003C06150710986E0982F987011F498E09C
:1024A00001C098E28770892B0FB6F894A895209305
:1024B00060000FBE80936000A895809160008064EA
:1024C0008093600083B7817F846083BF83B781601E
:1024D00083BF889583B78E7F83BF0FB6F894A89586
:1024E00080916000886180936000109260000FBE50
:1024F000809160008F7B80936000C0CF08952F9201
:102500003F924F925F926F927F928F929F92AF9283
:10251000BF92CF92DF92EF92FF920F931F93CF93D0
:10252000DF93CDB7DEB729970FB6F894DEBF0FBEA5
:10253000CDBF1C016B012A013901E98295DA4B01FB
:102540005C01198618869201205131093B832A8348
:10255000C301A0E0B0E08C839D83AE83BF83A885D8
:10256000B985EA81FB81AE17BF0754F0BD01C601F2
:102570000E944E0928853985281B390B3987288701
:10258000D101ED91FC910680F781E02D62E370E0CE
:10259000C1010995688479846C0C7D1CD101ED9191
:1025A000FC91A20128853985421B530B41505109EA
:1025B0000688F789E02D24E630E0B301C1010995D2
:1025C0007C01181619060CF041C044E050E06BE1A4
:1025D00073E0C3010E94791D892BD1F545E050E0DD
:1025E00065E075E08885998506968C0D9D1D0E9495
:1025F000791D892B69F134E0E31AF1086885798542
:102600006C5F7F4F6C0D7D1DA701C3010E948F1D64
:10261000488559854E0D5F1D59874887FA01EC0D95
:10262000FD1D10827801712CB9817B1689F0D701CC
:102630006D917D917D01739461157105A9F3C601BA
:102640000E94B21D892B81F3872D19C0019689F054
:102650000BDADC01CB0188199909AA09BB092C8185
:102660003D814E815F8182179307A407B50708F467
:1026700076CFE885F985EC0DFD1D108280E0299666
:102680000FB6F894DEBF0FBECDBFDF91CF911F9183
:102690000F91FF90EF90DF90CF90BF90AF909F9001
:1026A0008F907F906F905F904F903F902F90089504
:1026B00080E090E091C9CF93DF93EC0182E08E8BB4
:1026C000CE010E944D01E881F9810680F781E02D5D
:1026D0006AE070E0CE01DF91CF91099421E0FC0126
:1026E000268B0C944D01EF92FF920F931F93CF9383
:1026F000DF9300D000D0CDB7DEB77C018B01FC01A9
:10270000168A60E273E02B833C8349835A830E94DC
:102710004D012B813C8149815A81B801C7010F903D
:102720000F900F900F90DF91CF911F910F91FF901D
:10273000EF900C949E010F931F93CF93DF93CDB72F
:10274000DEB7C054D1090FB6F894DEBF0FBECDBFBF
:10275000FC01168A00E117E220E4AE014F5F5F4FF3
:1027600067E273E00E94BE02C05CDF4F0FB6F894D0
:10277000DEBF0FBECDBFDF91CF911F910F910895A6
:102780000F931F93CF93DF93CDB7DEB760970FB64C
:10279000F894DEBF0FBECDBFFC01168A00E117E240
:1027A00020E1AE014F5F5F4F61E373E00E94BE0224
:1027B00060960FB6F894DEBF0FBECDBFDF91CF910C
:1027C0001F910F910895CF92DF92EF92FF920F9396
:1027D0001F93CF93DF93CDB7DEB760970FB6F89412
:1027E000DEBF0FBECDBF7C017F936F935F934F938E
:1027F0008CE491E09F938F939E012F5F3F4F69017F
:102800003F932F930E944F1ED70156961C9200E1D2
:1028100017E220E1A601B601C7010E94BE020FB671
:10282000F894DEBF0FBECDBF882351F0D701ED91E4
:10283000FC91068CF78DE02DC701099581E001C060
:1028400080E060960FB6F894DEBF0FBECDBFDF917B
:10285000CF911F910F91FF90EF90DF90CF9008954F
:102860004F925F926F927F92BF92CF92DF92EF92E0
:10287000FF920F931F93CF93DF93CDB7DEB7C0586E
:10288000D1090FB6F894DEBF0FBECDBF7B01FC01AE
:10289000168A08EC10E020E8AE014F5F5F4F6BE353
:1028A00073E00E94BE02882309F46FC045E050E047
:1028B00062E473E0CE0101960E94791D892B09F034
:1028C00064C08E010A5F1F4FC801BB24B394C12CA2
:1028D00024E6422E512C612C712CF801D1908F01ED
:1028E000DD2009F44CC0BB2009F44FC0FCE2DF1628
:1028F00031F02EE3D21619F0EDE0ED1574F30E94DD
:102900000C1E2C2D30E02830310590F5F901EC5CDF
:10291000FF4F46C6611571058105910549F1F70123
:10292000608371838283938324C0F70164837583FA
:10293000868397831EC0F70160877187828793879C
:1029400018C0F701648775878687978712C0A3012F
:1029500092010AD6F701318B208B0BC0F701628BF5
:1029600008C0F701758B648B04C0F701638B01C04D
:10297000B12CC394FCE2DF1202C0C801AECFBB2071
:1029800021F081E0F7E0FC1508F080E0C058DF4F4F
:102990000FB6F894DEBF0FBECDBFDF91CF911F9170
:1029A0000F91FF90EF90DF90CF90BF907F906F904E
:1029B0005F904F9008958F929F92AF92BF92CF9267
:1029C000DF92EF92FF920F931F93CF93DF93CDB7D8
:1029D000DEB7C058D1090FB6F894DEBF0FBECDBF29
:1029E0007C014A015B01FC01168A178ACE0101961F
:1029F0006C01452B462B472B09F451C000E117E22F
:102A000020E8AC0168E473E0C7010E94BE028111B6
:102A100002C0B12C46C0BF92AF929F928F9282E4C7
:102A200091E09F938F93DF92CF920E944F1E00E11F
:102A300017E220E8A601B601C7010E94BE0214D821
:102A40004B015C0164E670E080E090E00E94EC0CD9
:102A50000FB6F894DEBF0FBECDBFF701168A08ECA3
:102A600010E020E8A60161E573E0C7010E94BE0204
:102A700090E08330910544F0EFEFFFEFEC0FFD1F86
:102A8000E80FF91F108202C0892BB1F068E573E0EE
:102A9000C6010E94B21D892B79F081E01BC0BB24C6
:102AA000B39400E117E220E8A6016CE573E0C701EA
:102AB0000E94BE028B2D0EC00E94340DDC01CB01A2
:102AC00088199909AA09BB09883E9340A105B10557
:102AD00020F29FCFC058DF4F0FB6F894DEBF0FBE75
:102AE000CDBFDF91CF911F910F91FF90EF90DF90BD
:102AF000CF90BF90AF909F908F900895DF92EF920C
:102B0000FF920F931F93CF93DF93CDB7DEB7A097BC
:102B10000FB6F894DEBF0FBECDBF7C0180917A0066
:102B20008F7780937A00F701168A60E086E00E9432
:102B3000250A61E087E00E94250A61E087E00E94A3
:102B4000F6091FB7F89480916805811127C0E7ED59
:102B5000F1E08491EBEEF1E09491E82FF0E0EE0FDC
:102B6000FF1FE85CFE4FA591B491EC91E92321F49D
:102B700061E08AE00E94F60961E08AE00E94250A8D
:102B80008CB580618CBD8CB580648CBD61E08DE0BE
:102B90000E94250A61E08BE00E94250A8091680569
:102BA0008F5F809368051FBF8CB58C7F81608CBD63
:102BB0008DB58E7F8DBD64E670E080E090E00E9470
:102BC000EC0CF701168A83E0D82E04EF11E020E226
:102BD000AE014F5F5F4F66E673E0C7010E94BE0221
:102BE000882399F06BE673E0CE010196BBD700977E
:102BF00061F0FC01238520538185880F8056982F32
:102C0000990F990F890F820F21F4DA94D110DDCF3B
:102C100080E0A0960FB6F894DEBF0FBECDBFDF9167
:102C2000CF911F910F91FF90EF90DF9008950F9338
:102C30001F93CF93DF93CDB7DEB760970FB6F894AD
:102C4000DEBF0FBECDBF00E117E220E1AE014F5F56
:102C50005F4F69E174E00E94BE0260960FB6F8947F
:102C6000DEBF0FBECDBFDF91CF911F910F910895B1
:102C7000FC01168A6DE174E00C944D01EEE1F6E082
:102C80008FEA91E090938306809382068DE092E034
:102C90009183808385859685CDC5CF93DF93CDB70E
:102CA000DEB7A5970FB6F894DEBF0FBECDBF789400
:102CB00084B5826084BD84B5816084BD85B5826041
:102CC00085BD85B5816085BD80916E0081608093F2
:102CD0006E0010928100809181008260809381005B
:102CE000809181008160809381008091800081606B
:102CF000809380008091B10084608093B1008091C6
:102D0000B00081608093B00080917A0084608093ED
:102D10007A0080917A00826080937A0080917A00B4
:102D2000816080937A0080917A00806880937A0035
:102D30001092C10068EE73E080E090E00E94EC0C1D
:102D4000E0919105F091920582E08083E0918D05FC
:102D5000F0918E051082E0918F05F091900580E151
:102D6000808310929905E0919505F091960586E093
:102D70008083E0919305F091940580818061808348
:102D8000E0919305F0919405808188608083E091C3
:102D90009305F0919405808180688083E09193058C
:102DA000F091940580818F7D808361E084E00E94B2
:102DB000250A61E084E00E94F6090E94370360E082
:102DC00084E00E94F6099E012F5F3F4F790124E6BF
:102DD000822E912CA12CB12C6E0131E2C30ED11C9C
:102DE00033E0332E3C0C8091460786FD51C060E0F5
:102DF00084E00E94F6098091460784FF1FC085FF8A
:102E000006C082E036DA8EE196E00E940E0665E8A2
:102E100073E0C7010E94B909C70122DA89819A814A
:102E200009D58EE196E00E94D90480EA94E00E94E0
:102E3000D60D809146078F7E809346078091850648
:102E4000843020F0109221061092200680914607CF
:102E5000897C8093460785EA94E00E94D60D8EE235
:102E60003DD860E177E280E090E00E94EC0C0E94A7
:102E70002D0E8823A1F361E084E00E94F6090E94F0
:102E80003703882309F4B3CF60E084E00E94F60999
:102E9000809126068431C0F061E084E00E94F6094A
:102EA0008EE196E00E940E068EE196E00E94D90423
:102EB000809146078F7E809346070E94370360E02B
:102EC00084E00E94F60934C20E94340DAB01BC01BB
:102ED0008AE996E00E94D90A609122067091230641
:102EE0008091240690912506A50194011BD36130A1
:102EF00071058105910541F440E050E062E870E021
:102F00008AE996E00E94820C8091460781FFB8C052
:102F1000B7018DE0ADD8882309F441C00E94340D7B
:102F20002B013C0109811A818091690590916A0504
:102F3000A0916B05B0916C05A3019201281B390B80
:102F40004A0B5B0BA0916D05B0916E05A00FB11FF0
:102F50002DD320E23CE140E050E0E4D280917005C6
:102F600090917105A0917205B0917305820F931F26
:102F7000A41FB51F8093700590937105A0937205EF
:102F8000B09373054092690550926A0560926B0593
:102F900070926C0510936E0500936D0502C00FEFE3
:102FA0001FEF0F3F4FEF140709F46AC0A8016DE04F
:102FB00071E08AE996E00E94820C209170053091C0
:102FC0007105409172055091730560E370E08AE9E4
:102FD00096E00E940A0C8CE089A384E08AA381E138
:102FE0008BA38601D8012D908D01BE016C5D7F4FB2
:102FF000822D3ED8882349F04CA15DA1622D70E05E
:1030000071608AE996E00E94820C3012EBCF8091C9
:103010006F0531E0380F30936F0522E3622F62D2E3
:1030200091112EC085E0E2E1F1E0D70101900D920F
:103030008A95E1F7832F56D2F701E80FF11D108131
:103040001F37B0F4EFEFE10F2E2F277080E890E0EC
:1030500002C0959587952A95E2F7F0E093E0F59503
:10306000E7959A95E1F7EA57F94F9081892341F066
:10307000BE016C5D7F4F812F0E94381081115BC1B2
:103080006091220670912306809124069091250676
:103090002AE030E040E050E045D2672B682B692BF6
:1030A000D1F58EE0F70111928A95E9F7B7018EE12B
:1030B00096E00E948506882371F18DEA94E00E94D3
:1030C000790F69817A818B819C810E947A0F82EBD2
:1030D00094E00E94790F6D817E818F8198850E9496
:1030E0007A0F69817A818B819C81D4D29B01AC015A
:1030F0006AE070E08AE996E00E945E0B6D817E8155
:103100008F819885C7D29B01AC016BE070E08AE9A2
:1031100096E00E945E0B1092980600E117E220E212
:10312000A70168EB74E082E896E00E94BE02882363
:1031300021F0CE01059650D503C060E070E0CB01D0
:1031400020E030E048EC52E40E94B522A3D2AB016B
:1031500064E270E08AE996E00E94820C0E94340DDD
:103160002B013C0160912206709123068091240678
:1031700090912506A5019401D5D16336710581058D
:10318000910509F05FC08EEB94E00E94790F0E94D8
:10319000340D9F938F937F936F931F9283E08F9350
:1031A000809121068F93809120068F93A0E6B1E055
:1031B000BF93AF93FF92EF9272D59AA389A321E0B8
:1031C000AC01B7018EE196E00E945F070FB6F8945C
:1031D000DEBF0FBECDBF892B19F489EC94E00BC084
:1031E00040E157E2B6018EE196E00E942007009789
:1031F00029F484ED94E00E94D60D1EC00E94B80A06
:103200008823D1F082E893E00E94D60D1092260622
:103210008091220690912306A0912406B091250664
:103220000196A11DB11D8093220690932306A093C1
:103230002406B09325066DC0809126068F5F80938B
:10324000260667C08091740590917505A09176055A
:10325000B0917705A3019201281B390B4A0B5B0B38
:10326000DA01C901883E9340A105B10508F451C0B7
:103270008091A0069091A106892B09F44AC061E0D3
:1032800084E00E94F6098BE50E946E0F6091220691
:103290007091230680912406909125064AE00E94B1
:1032A0002E0F84EE94E00E94790F4091A406509175
:1032B000A50621E066EA76E08EE196E00E945F07CF
:1032C000BC01892B09F041C0809126068F5F809355
:1032D00026068DED94E00E94D60D60E084E00E9409
:1032E000F60980912606833060F08EE196E00E9418
:1032F0000E0641E95FE165EE73E08EE196E00E9423
:10330000410840927405509275056092760570925E
:10331000770580918506843058F00E94050E0E9442
:103320002D0E811105C080914607897B8093460749
:103330000E94F20558CD4CA15DA1612F70E0716033
:103340008AE996E00E94820C9BCE1092260680911C
:10335000220690912306A0912406B091250601969D
:10336000A11DB11D8093220690932306A0932406ED
:10337000B0932506161617060CF0ABCF072E000CDF
:10338000880B990B4AE00E942E0F87EE94E00E9472
:10339000D60D1092A5061092A4061092A1061092C6
:1033A000A0069BCFFF920F931F93CF93DF93EBE485
:1033B000F7E080E5F82EF0821182E1E8F5E0138273
:1033C000128288EE93E0A0E0B0E084839583A68328
:1033D000B78385ED91E09183808385EC90E09587BC
:1033E000848784EC90E09787868780EC90E0918BCF
:1033F000808B81EC90E0938B828B82EC90E0958BBC
:10340000848B86EC90E0978B868B118E128E138EB8
:10341000148ECEE1D6E002E816E089EF92E0D80102
:103420008D939C938DE092E0998388831B821A820E
:103430001C821D821E821F82188619861A861B8690
:103440001C866CE274E08BE296E00E94B909E1E32D
:10345000F6E0DF011D92FA94E9F71092810681E00F
:103460008093840610928506109297061092960615
:1034700089E892E09983888385EC92E0F801918352
:10348000808310929C0610929D0610929E061092C8
:103490009F061092A1061092A0061092A306109209
:1034A000A20687EE91E090939B0680939A06109275
:1034B000A5061092A40680EAE6EAF6E0DF011D9276
:1034C0008A95E9F71092460710924707109248072D
:1034D0001092490710924A07DF91CF911F910F91E7
:1034E000FF900895991B79E004C0991F961708F082
:1034F000961B881F7A95C9F780950895AA1BBB1B58
:1035000051E107C0AA1FBB1FA617B70710F0A61BE3
:10351000B70B881F991F5A95A9F780959095BC0104
:10352000CD010895A1E21A2EAA1BBB1BFD010DC0FF
:10353000AA1FBB1FEE1FFF1FA217B307E407F50763
:1035400020F0A21BB30BE40BF50B661F771F881F3F
:10355000991F1A9469F760957095809590959B01D5
:10356000AC01BD01CF010895052E97FB16F4009420
:103570000FD057FD05D0D6DF07FC02D046F408C0B7
:1035800050954095309521953F4F4F4F5F4F08958F
:1035900090958095709561957F4F8F4F9F4F0895BF
:1035A000EE0FFF1F0590F491E02D0994B7FF0C94E6
:1035B0006C230E946C23821B930B08955058BB27E9
:1035C000AA2713D00C9432230E94242338F00E949F
:1035D0002B2320F039F49F3F19F426F40C94212377
:1035E0000EF4E095E7FB0C941B23E92F0E94432384
:1035F00058F3BA17620773078407950720F079F428
:10360000A6F50C9465230EF4E0950B2EBA2FA02D91
:103610000B01B90190010C01CA01A0011124FF277F
:10362000591B99F0593F50F4503E68F11A16F0407A
:10363000A22F232F342F4427585FF3CF4695379579
:103640002795A795F0405395C9F77EF41F16BA0B3E
:10365000620B730B840BBAF09150A1F0FF0FBB1FEC
:10366000661F771F881FC2F70EC0BA0F621F731F35
:10367000841F48F4879577956795B795F7959E3F92
:1036800008F0B0CF9395880F08F09927EE0F979523
:103690008795089505D06894B1110C946623089518
:1036A000FAD788F09F5798F0B92F9927B751A8F00B
:1036B000D9F0660F771F881F991F1AF0BA95C9F7BE
:1036C00013C0B13089F00E946523B1E00895FDC7B1
:1036D000672F782F8827B85F39F0B93FCCF38695EC
:1036E00077956795B395D9F73EF490958095709549
:1036F00061957F4F8F4F9F4F089513D708F48FEF39
:1037000008950FD7880B990B0895CF93DF938230DC
:10371000910510F482E090E0E0914F07F09150079E
:1037200020E030E0C0E0D0E0309711F140815181DD
:1037300048175907C0F04817590761F482819381EF
:10374000209719F09B838A832BC090935007809316
:103750004F0726C02115310519F04217530718F4F9
:103760009A01BE01DF01EF010280F381E02DDCCF81
:103770002115310509F1281B390B2430310590F44E
:1037800012968D919C9113976115710521F0FB01A3
:103790009383828304C09093500780934F07FD0169
:1037A000329644C0FD01E20FF31F819391932250A2
:1037B00031092D933C933AC020914D0730914E072B
:1037C000232B41F4209102013091030130934E07E5
:1037D00020934D0720910001309101012115310501
:1037E00041F42DB73EB74091040150910501241BCF
:1037F000350BE0914D07F0914E07E217F307A0F467
:103800002E1B3F0B2817390778F0AC014E5F5F4F36
:103810002417350748F04E0F5F1F50934E07409313
:103820004D078193919302C0E0E0F0E0CF01DF917A
:10383000CF9108950F931F93CF93DF93009709F4CF
:103840008CC0FC0132971382128200914F071091B5
:1038500050070115110581F420813181820F931FDA
:1038600020914D0730914E072817390779F5F093CD
:103870004E07E0934D0771C0D80140E050E0AE170D
:10388000BF0750F412962D913C911397AD0121156D
:10389000310509F1D901F3CF9D01DA013383228388
:1038A00060817181860F971F8217930769F4EC017D
:1038B00028813981260F371F2E5F3F4F31832083A8
:1038C0008A819B8193838283452B29F4F09350074F
:1038D000E0934F0742C01396FC93EE931297ED01CD
:1038E000499159919E01240F351FE217F30771F496
:1038F00080819181840F951F029611969C938E93DF
:103900008281938113969C938E931297E0E0F0E06E
:10391000D80112968D919C911397009719F0F80198
:103920008C01F6CF8D919C9198012E5F3F4F820FB5
:10393000931F20914D0730914E072817390769F4DE
:10394000309729F41092500710924F0702C013824B
:10395000128210934E0700934D07DF91CF911F9174
:103960000F910895A0E0B0E0E7EBFCE1C3C6EC01E5
:10397000009719F4CB01C9DEB4C0FC01E60FF71FB4
:103980009C0122503109E217F30708F4A8C0D901BD
:103990000D911C91119706171707A8F00530110516
:1039A00008F49BC0C80104978617970708F495C0D0
:1039B00002501109061B170B019311936D937C9311
:1039C000CF0138DF8AC05B01A01AB10A4C01800E1A
:1039D000911EA0914F07B091500740E050E0E12CBC
:1039E000F12C109709F44AC0A815B905D1F56D90CE
:1039F0007C901197630182E0C80ED11CCA14DB04CD
:103A000080F1A3014A195B096A0182E0C80ED11C4A
:103A10001296BC9012971396AC91B5E0CB16D104D8
:103A200040F0B282A38351834083D9016D937C938C
:103A30000AC00E5F1F4FC301800F911FF9019183D0
:103A40008083EB2DFA2FE114F10431F0D7011396A6
:103A5000FC93EE93129741C0F0935007E0934F0709
:103A60003CC08D919C9111974817590708F4AC01FF
:103A70007D0112960D90BC91A02DB3CF80914D0782
:103A800090914E0788159905E1F446175707C8F439
:103A90008091000190910101009741F48DB79EB78C
:103AA0004091040150910501841B950BE817F9071B
:103AB000B0F4F0934E07E0934D07F90171836083F2
:103AC0000CC0CB0122DE7C01009749F0A801BE01A9
:103AD0001DD0CE01AFDEC70104C0CE0102C080E020
:103AE00090E0CDB7DEB7EEE021C681E090E0F8943B
:103AF00043C6FB01DC0104C08D910190801921F4C3
:103B000041505040C8F7881B990B0895FB01DC0118
:103B100002C001900D9241505040D8F708956817A7
:103B2000790768F4FB01DC01E40FF51FA40FB51F52
:103B300002C002900E9241505040D8F70895E6CF4F
:103B4000FC018191861721F08823D9F799270895E0
:103B50003197CF010895FB01DC0101900D92002007
:103B6000E1F70895FB0151915523A9F0BF01DC0154
:103B70004D9145174111E1F759F4CD010190002015
:103B800049F04D9140154111C9F3FB014111EFCFAF
:103B900081E090E001970895AEE0B0E0E1EDFDE155
:103BA000B3C50D891E8986E08C831A8309838FEF44
:103BB0009FE79E838D83AE01475E5F4F6F89788D4F
:103BC000CE0101968CD02F813885F801E20FF31FCA
:103BD00010822E96E4E0B4C56627772743C2FC0125
:103BE00088279927E89421912032E9F3293010F0B1
:103BF0002E30C8F32B3239F02D3231F4689403C0E3
:103C000046D0820F911D219120532A30C8F31EF413
:103C1000909581959F4F08951F93FC0199278827C0
:103C2000BC01E89411911032E9F3193010F01E3004
:103C3000C8F31B3249F01D3241F4689405C012D01C
:103C4000610F711D811D911D119110531A30B8F330
:103C50003EF490958095709561957F4F8F4F9F4F63
:103C60001F910895592F482F372F262F660F771F42
:103C7000881F991F660F771F881F991F620F731F78
:103C8000841F951F660F771F881F991F08957AE07C
:103C9000979F902D879F802D910D11240895AEE060
:103CA000B0E0E4E5FEE130C50D891E898EE08C832D
:103CB0001A8309838FEF9FE79E838D83AE01475E52
:103CC0005F4F6F89788DCE01019609D02F8138859D
:103CD000F801E20FF31F10822E96E4E031C5ACE04C
:103CE000B0E0E4E7FEE102C57C016B018A01FC0162
:103CF00017821682838181FFB0C1CE0101964C01EB
:103D0000F7019381F60193FD859193FF81916F01F6
:103D1000882309F49EC1853239F493FD859193FF80
:103D200081916F01853221F4B70190E023D3E8CF70
:103D3000512C312C20E02032A0F48B3269F030F489
:103D4000803259F0833269F420612CC08D3239F011
:103D5000803339F4216026C02260246023C02860AB
:103D600021C027FD27C030ED380F3A3078F426FF08
:103D700006C0FAE05F9E300D1124532E13C08AE076
:103D8000389E300D1124332E20620CC08E3221F467
:103D900026FD5FC1206406C08C3611F4206802C085
:103DA000883641F4F60193FD859193FF81916F016F
:103DB0008111C1CF982F9F7D9554933028F40C5FCB
:103DC0001F4FFFE3F9830DC0833631F0833771F065
:103DD000833509F057C021C0F801808189830E5FC7
:103DE0001F4F44244394512C540114C03801F2E075
:103DF0006F0E711CF801A080B18026FF03C0652DF5
:103E000070E002C06FEF7FEFC5012C87A8D22C01B4
:103E100083012C852F77222E16C03801F2E06F0E19
:103E2000711CF801A080B18026FF03C0652D70E0F1
:103E300002C06FEF7FEFC5012C8786D22C012C8545
:103E40002068222E830123FC19C0832D90E04816A0
:103E50005906A0F4B70180E290E08CD23A94F5CFF5
:103E6000F50127FC859127FE81915F01B70190E064
:103E700081D231103A94F1E04F1A510841145104A3
:103E800079F7DEC0843611F0893631F5F80127FF65
:103E900007C060817181828193810C5F1F4F08C0D0
:103EA00060817181072E000C880B990B0E5F1F4FEC
:103EB0002F76722E97FF09C0909580957095619529
:103EC0007F4F8F4F9F4F2068722E2AE030E0A40171
:103ED00089D2A82EA81843C0853729F42F7EB22E88
:103EE0002AE030E025C0F22FF97FBF2E8F36C1F0D7
:103EF00018F4883579F0ADC0803719F0883721F093
:103F0000A8C02F2F2061B22EB4FE0DC08B2D84606F
:103F1000B82E09C024FF0AC09F2F9660B92E06C094
:103F200028E030E005C020E130E002C020E132E0CE
:103F3000F801B7FE07C060817181828193810C5FB7
:103F40001F4F06C06081718180E090E00E5F1F4FBF
:103F5000A40148D2A82EA818FB2DFF777F2E76FE4D
:103F60000BC0372D3E7FA51450F474FE0AC072FCBE
:103F700008C0372D3E7E05C0BA2C372D03C0BA2CA1
:103F800001C0B52C34FF0DC0FE01EA0DF11D80818A
:103F9000803311F4397E09C032FF06C0B394B39464
:103FA00004C0832F867809F0B39433FD12C030FF2C
:103FB00006C05A2CB31418F4530C5B18B32CB3146A
:103FC00060F4B70180E290E03C87D4D1B3943C85A3
:103FD000F6CFB31410F43B1801C0312C34FF11C0DC
:103FE000B70180E390E03C87C5D13C8532FF16C025
:103FF00031FD03C088E790E002C088E590E0B7019A
:104000000CC0832F867851F031FF02C08BE201C0D3
:1040100080E237FD8DE2B70190E0ACD1A51430F419
:10402000B70180E390E0A6D15A94F8CFAA94F401A6
:10403000EA0DF11D8081B70190E09CD1A110F6CF6F
:10404000332009F45DCEB70180E290E093D13A9439
:10405000F7CFF7018681978102C08FEF9FEF2C96F3
:10406000E2E160C3A0E0B0E0E7E3F0E243C3EC01CB
:104070007B016115710519F0DB018D939C938E0115
:104080000F5F1F4F7880872D90E03ED1892B11F074
:10409000E801F5CFBDE27B1205C00F5F1F4F7980AD
:1040A000C1E008C0EBE27E1204C08E010E5F1F4F1C
:1040B0007980C0E06801F1E0CF1AD10843E050E018
:1040C00061E172E0C60128D1892BE9F4680122E0A0
:1040D000C20ED11C45E050E06CE072E0C6011CD17C
:1040E000892B21F4680187E0C80ED11CE114F1048A
:1040F00019F0D701CD92DC92C111F9C060E070E0F7
:1041000080E89FE7FDC043E050E069E072E0C6014F
:1041100003D1892B51F4E114F10409F4EDC00E5FD1
:104120001F4FF70111830083E7C0680160E070E072
:10413000CB0100E010E0F601D0EDD70DDA3050F5FC
:104140002C2F2260622E2C2F2870C2FF05C0211157
:1041500027C00F5F1F4F24C0222311F00150110907
:10416000A5E0B0E09B01AC01B7D24B015C01880C2B
:10417000991CAA1CBB1CC501B4016D0F711D811DCA
:10418000911D6839A9E97A078A07A9E19A0740F0E1
:10419000C66005C0DE3F51F4C3FD44C0C8606C2E4C
:1041A000BFEFCB1ADB0A7080C62DC5CF2D2F2F7D18
:1041B0002531C1F540814D3211F4C06106C04B324A
:1041C00021F0319621E030E006C03296D6011196FA
:1041D0004C9122E030E0A0EDA40FAA3018F0E21BD1
:1041E000F30B20C040E050E04038BCE05B075CF4DB
:1041F0009A01220F331F220F331F420F531F440F08
:10420000551F4A0F511D3196DF0111972C91A0EDDA
:10421000A20FAA3048F3C4FF03C05195419551093C
:10422000040F151FC1FF07C0E114F10421F03197FD
:10423000D701ED93FC9338D1C370C33019F06B01F3
:104240007C0106C06B017C01F7FAF094F7F8F0945A
:1042500020E030E0A901C701B60122D1882309F48A
:1042600043C017FF06C0119501951109C8E2D2E0BD
:1042700002C0C0E4D2E05E01B8E1AB1AB108460169
:10428000BE2DAF2D90E2E92EF12C0E151F057CF00E
:10429000FE012591359145915491B4018B2F9A2FB0
:1042A00064D14B01B82FA92F0E191F09EECF249707
:1042B000F594E794CA15DB0541F76401EB2EFA2E5D
:1042C0008E2D880F8F2D881F8F3F41F020E030E02A
:1042D000A901C701B601E4D0811106C082E290E0D5
:1042E0009093520780935107C701B60109C060E05F
:1042F00070E080E89FEF04C060E070E080EC9FE732
:10430000CDB7DEB7EEE012C2911192C1803219F042
:1043100089508550D0F70895FB01DC014150504091
:1043200088F08D9181341CF08B350CF4805E6591A2
:1043300061341CF06B350CF4605E861B611171F307
:10434000990B0895881BFCCFFC01059061507040CB
:104350000110D8F7809590958E0F9F1F0895FC014E
:104360006150704001900110D8F7809590958E0FA4
:104370009F1F08950F931F93CF93DF93FB0123811A
:1043800021FD03C08FEF9FEF28C022FF16C046819A
:104390005781248135814217530744F4A081B181AC
:1043A0009D012F5F3F4F318320838C93268137817E
:1043B0002F5F3F4F3783268310C0EB01092F182F43
:1043C0000084F185E02D0995892BE1F68E819F818E
:1043D00001969F838E83812F902FDF91CF911F9124
:1043E0000F910895FA01AA27283051F1203181F167
:1043F000E8946F936E7F6E5F7F4F8F4F9F4FAF4FED
:10440000B1E03ED0B4E03CD0670F781F891F9A1FFF
:10441000A11D680F791F8A1F911DA11D6A0F711DB3
:10442000811D911DA11D20D009F468943F912AE0BF
:10443000269F11243019305D3193DEF6CF010895A7
:10444000462F4770405D4193B3E00FD0C9F7F6CFD8
:10445000462F4F70405D4A3318F0495D31FD4052A0
:10446000419302D0A9F7EACFB4E0A6959795879536
:1044700077956795BA95C9F7009761057105089515
:104480009B01AC010A2E06945795479537952795C1
:10449000BA95C9F7620F731F841F951FA01D089559
:1044A00040D008F481E00895E89409C097FB3EF4F9
:1044B00090958095709561957F4F8F4F9F4F992371
:1044C000A9F0F92F96E9BB279395F69587957795EF
:1044D0006795B795F111F8CFFAF4BB0F11F460FFAF
:1044E0001BC06F5F7F4F8F4F9F4F16C0882311F007
:1044F00096E911C0772321F09EE8872F762F05C01B
:10450000662371F096E8862F70E060E02AF09A95B5
:10451000660F771F881FDAF7880F9695879597F9AA
:104520000895990F0008550FAA0BE0E8FEEF161644
:104530001706E807F907C0F012161306E407F50797
:1045400098F0621B730B840B950B39F40A2661F00B
:10455000232B242B252B21F408950A2609F4A140AE
:10456000A6958FEF811D811D08950BD07BC06CD067
:1045700028F071D018F0952309F05DC062C01124B5
:10458000A5C081D0A0F3959FD1F3950F50E0551FA2
:10459000629FF001729FBB27F00DB11D639FAA2798
:1045A000F00DB11DAA1F649F6627B00DA11D661FE7
:1045B000829F2227B00DA11D621F739FB00DA11D08
:1045C000621F839FA00D611D221F749F3327A00DC2
:1045D000611D231F849F600D211D822F762F6A2F5E
:1045E00011249F5750408AF0E1F088234AF0EE0FE3
:1045F000FF1FBB1F661F771F881F91505040A9F7F0
:104600009E3F510570F017C061C05F3FECF3983ECC
:10461000DCF3869577956795B795F795E7959F5F56
:10462000C1F7FE2B880F911D9695879597F90895F0
:1046300099278827089597F99F6780E870E060E0E0
:1046400008959FEF80EC089500240A94161617062B
:1046500018060906089500240A9412161306140673
:1046600005060895092E0394000C11F4882352F0D6
:10467000BB0F40F4BF2B11F460FF04C06F5F7F4F8E
:104680008F4F9F4F089557FD9058440F551F59F075
:104690005F3F71F04795880F97FB991F61F09F3F2F
:1046A00079F087950895121613061406551FF2CF58
:1046B0004695F1DF08C0161617061806991FF1CFA8
:1046C00086957105610508940895E894BB276627CF
:1046D0007727CB0197F9089540D0A59F900DB49FFF
:1046E000900DA49F800D911D112408952F923F924B
:1046F0004F925F926F927F928F929F92AF92BF92F2
:10470000CF92DF92EF92FF920F931F93CF93DF939D
:10471000CDB7DEB7CA1BDB0B0FB6F894DEBF0FBEFA
:10472000CDBF09942A88398848885F846E847D8447
:104730008C849B84AA84B984C884DF80EE80FD8049
:104740000C811B81AA81B981CE0FD11D0FB6F894BF
:10475000DEBF0FBECDBFED010895A29FB001B39F94
:10476000C001A39F700D811D1124911DB29F700D7A
:10477000811D1124911D089511E0C3E2D1E004C010
:10478000FE010E94D01A2196C432D107C9F7F894CD
:02479000FFCF59
:10479200000053078000244F4244244750532447CB
:1047A200534D0F0533465EEE04F504FB0403051A70
:1047B2000594031F05000000000000000000000037
:1047C20000000000000000000000000000000000E7
:1047D200000000000000000000000000007E15083C
:1047E2000B3D12581338161716DB1430146E1301D2
:1047F20006E31373135B1336127F12C0139B136409
:1048020000000000001606D90441080E065F0720CA
:10481200078506BC0C0706D00C0000000000000053
:104822000000000000000000000000000000000086
:1048320000000000000000000000009CFF00000AD1
:104842000B080B270D240D070B060B7D087D0805B1
:104852000B030B7D087D087D087D087D087D087DA2
:1048620008000000008B05F5042405D10555053329
:1048720005470500000000F10AEF0AEE0A820C4625
:104882000C0A0CCC0B5E0BD90AD50AD40AFB05CC58
:104892000A7F0806060506040600000000010B0058
:1048A2000BFE0AFD0AFA0AF70AF50AC60CF30AD049
:1048B2000C6400000000001606D90441080E065FD1
:1048C2000720078506BC0C0706D00C00000000007C
:1048D20000000000000000000000000000000000D6
:1048E200000000000000000000000000009CFF002B
:1048F200000A0B080B270D240D070B060B7D087D04
:1049020008050B030B7D087D087D087D087D087D69
:10491200087D086400000000001606D90441080E54
:10492200065F0720078506BC0C0706D00C000000B6
:104932000000000000000000000000000000000075
:104942000000000000000000000000000000000065
:10495200009CFF00007E15080B3D125813381617F5
:1049620016DB1430146E130106E31373135B133654
:10497200127F12C0139B1389027501AF014D014DC5
:1049820001C502C502000000000A0B080B270D2416
:104992000D070B060B7D087D08050B030B7D087DBB
:1049A200087D087D087D087D087D082447534D0059
:1049B20041544752440D00415447534D5057520DF4
:1049C200004154434C5247534D0D004154475053FC
:1049D2000D00244750532C0041544750534F4E0D65
:1049E2000041544752520D0053244700415447504E
:1049F200534F46460D004154490D004F4244554124
:104A020052540056455220004F42442E2E2E004E44
:104A12004F004F4B0053494D3830300047505253EE
:104A22002E2E2E00415445300D002B435245473A5D
:104A320020302C310041542B435245473F0D002B6F
:104A420043474154543A20310041542B4347415487
:104A5200543F0D0041542B43494943520D004950E4
:104A62003A0041542B43494653520D004C4F47499B
:104A72004E2E2E2E0034372E37342E36382E31332A
:104A820034005345525645523A0046454544204962
:104A9200443A00636F6E6E6563740041542B435356
:104AA20054543D222573220D0041540D0041544CB3
:104AB200500D0053454E44204F4B0D0A0041542BDC
:104AC200434950434C4F53450D0041542B434950E9
:104AD20047534D4C4F433D312C310D005245435607
:104AE2002046524F4D3A004950442C00255823008D
:104AF2002A25580041542B43495053454E443D25E5
:104B0200750D003E0041542B434950535249503DCC
:104B1200310D0041542B43495053544152543D22CC
:104B2200554450222C222573222C222575220D0059
:104B3200204F4646005374616E646279004C4154C2
:104B42003A00204C4E473A00415452560D005379D8
:104B52006E63696E672E2E2E0053796E6320657226
:104B6200726F72006E6F207265706C7900556E7391
:104B7200656E74005D2000422073656E7400554EB0
:104B820041424C45004552524F520054494D454F07
:104B92005554004E4F2044415441004154520D009F
:104BA200303130440D003431200041545A0D00415F
:104BB2005448300D006E616E00696E66006F766655
:104BC2000044454641554C545F56494E004E6F20B5
:104BD2007265706C7900436865636B73756D206DE7
:104BE20069736D617463683A00496E76616C6964D9
:084BF200207265706C7900006F
:00000001FF
