:100000002EC1000054C1000052C1000050C10000C8
:100010004EC100004CC100000C943F0B48C10000D1
:1000200046C1000044C1000042C1000040C10000C0
:100030003EC100003CC100003AC1000038C10000D0
:1000400061C6000034C10000C2C500009BC50000AD
:100050002EC100002CC100002AC1000028C10000F0
:100060000C94300824C100000A1F151F1B1F211FFC
:10007000271F2E1F311F351F94178F17BB17BB1754
:10008000BB17BB178917EF178217EF17A2178F1728
:100090009C179417EF17EF17EF17EF17EF17EF17DE
:1000A000EF17EF17EF17EF17EF17EF17EF17AA1765
:1000B000EF17AA17EF17EF17EF17EF17EF17EF1755
:1000C000EF17EF17EF17EF179417BB179417941745
:1000D000EF17AA178217EF17EF17EF17EF17EF17A2
:1000E000EF17EF17EF17EF17DF17DF17DF17DF1720
:1000F000EF17EF17AC179417E71794178F1794178C
:1001000094179417941794179417AA17AA17EF1710
:10011000EF17EF179417EF17EF17EF17EF17EF170A
:10012000EF17AA17EF1794178F17CF17B017EF17FE
:10013000EF17B417B417AA1725582345563D257550
:100140002C54533D256C750025583D2564002558D9
:100150003D256C640025583D256C750025583D25CE
:10016000643B25643B25640025583D25642E2530DD
:10017000366C750000000000250028002B000000F0
:100180000000240027002A004154425232256C7599
:100190000D004154425231256C750D00303325302D
:1001A00032580D0030330D002C56494E3D00255875
:1001B0003B002C4454433D0045563D2575002558D1
:1001C0002345563D25752C54533D256C750025302F
:1001D0003258253032580D00000000002300260060
:1001E00029000404040404040404020202020202BA
:1001F00003030303030301020408102040800102EB
:100200000408102001020408102000000008000269
:1002100001000003040700000000000000004E4140
:100220004E494E495459494E46CDCCCC3D0AD72370
:100230003C17B7D13877CC2B329595E6241FB14FB8
:100240000A000020410000C84200401C4620BCBEFD
:100250004CCA1B0E5AAEC59D7400B7201619112446
:100260001FBECFEFD8E0DEBFCDBF16E0A0E0B1E00B
:10027000E2EAF6E502C005900D92A433B107D9F782
:1002800028E0A4E3B6E001C01D92AD36B207E1F765
:1002900011E0CEE2D1E004C02197FE010E94CB2103
:1002A000CD32D107C9F70E9425190C94442BA8CE52
:1002B000CF92DF92EF92FF920F931F93CF93DF9332
:1002C0006C017A018B01C0E0D0E0CE15DF0589F02A
:1002D000D8016D918D01D601ED91FC910190F081D5
:1002E000E02DC6010995892B11F47E0102C02196EB
:1002F000ECCFC701DF91CF911F910F91FF90EF904D
:10030000DF90CF900895089580E090E00895FC017B
:10031000538D448D252F30E0842F90E0821B930B6A
:10032000541710F0CF96089501970895FC01918D10
:10033000828D981761F0828DDF01A80FB11D5D9647
:100340008C91928D9F5F9F73928F90E008958FEFB5
:100350009FEF0895FC01918D828D981731F0828D69
:10036000E80FF11D858D90E008958FEF9FEF0895C0
:10037000FC01918D228D892F90E0805C9F4F821B24
:1003800091098F73992708958CE097E0F1DF21E0C0
:10039000892B09F420E0822F0895FC01848DDF0170
:1003A000A80FB11DA35ABF4F2C91848D90E00196E8
:1003B0008F739927848FA689B7892C93A089B189D7
:1003C0008C9180648C93938D848D981306C00288E1
:1003D000F389E02D80818F7D80830895EF92FF92D5
:1003E0000F931F93CF93DF93EC0181E0888F9B8D58
:1003F0008C8D981305C0E889F989808185FD23C01B
:10040000F62E0B8D10E00F5F1F4F0F731127E02E9C
:100410008C8DE8120BC00FB607FCFACFE889F9897A
:10042000808185FFF5CFCE01B8DFF2CF8B8DFE0145
:10043000E80FF11DE35AFF4FF0820B8FEA89FB8929
:100440008081806207C0EE89FF896083E889F9892D
:1004500080818064808381E090E0DF91CF911F9163
:100460000F91FF90EF900895CF93DF93EC01888D6B
:100470008823C1F0EA89FB89808185FD05C0A889B0
:10048000B9898C9186FD0EC00FB607FCF5CF80812F
:1004900085FFF2CFA889B9898C9185FFEDCFCE0178
:1004A0007CDFE8CFDF91CF91089580E090E0892B49
:1004B00021F06ADF81110C9400000895FC01878906
:1004C0000895FC01158614861782168208950895F2
:1004D00008950895FF920F931F93CF93DF93EC013C
:1004E0008B01F42E50E08CE097E0E2DE6AE08CE0D5
:1004F00097E074DF8E819F8101969F838E8388852C
:100500009985009771F0DC01ED91FC91028CF38DDF
:10051000E02D4F2DB801DF91CF911F910F91FF90EA
:100520000994DF91CF911F910F91FF900895FC01E5
:10053000868197810895FC01178216820895089597
:10054000FC01718760870895DC0112964D935D93DD
:100550006D937C93159718968D919C9119970097A0
:1005600039F0DC01ED91FC910088F189E02D0994CE
:100570000895089581E0089581E0089581E0089547
:1005800080E0089580E090E0089580E090E0089594
:10059000089581E00895089581E0089580E0089528
:1005A00008950895089581E0089581E008953FB782
:1005B000F8948091470690914806A0914906B09121
:1005C0004A0626B5A89B05C02F3F19F00196A11D2C
:1005D000B11D3FBFBA2FA92F982F8827820F911DD9
:1005E000A11DB11DBC01CD0142E0660F771F881F20
:1005F000991F4A95D1F708950E94E324CF93DF9382
:10060000EC01FB01198218821B821A821D821C8256
:10061000CB010D96C817D90751F065857685611510
:10062000710529F041895289CE010E941414CE012E
:10063000DF91CF910895DF92EF92FF920F931F9376
:10064000CF93DF93EC01042F10E02A853B852250E5
:1006500031098C859D85281B390B201B310B37FDFB
:100660004BC0D42E7B012A813B814C815D812115B9
:1006700031054105510569F01A821B821C821D82D9
:10068000E881F9810284F385E02D60E070E0CE011D
:1006900009952E853F858C859D85A801B701820F20
:1006A000931F0E94F4248C859D85800F911F2E85B9
:1006B0003F85AC014F5F5F4F5D874C87F901E80FC5
:1006C000F91F2CE220838E819F8101969F838E8368
:1006D00088859985009781F0DC01ED91FC91028C71
:1006E000F38DE02D4D2DB701DF91CF911F910F912B
:1006F000FF90EF90DF900994DF91CF911F910F91C0
:10070000FF90EF90DF9008950F931F93CF93DF93A7
:10071000EC018A859B858617970799F08B018E855A
:100720009F85009721F00E9488231F861E86011551
:10073000110539F01B870A87C8010E94F3229F87A1
:100740008E8781E0DF91CF911F910F9108956F9275
:100750007F928F929F92AF92BF92CF92DF92EF9251
:10076000FF920F931F93CF93DF93CDB7DEB76897B8
:100770000FB6F894DEBF0FBECDBF8C01762E672E6C
:1007800069017A01CA01B90157FF07C066277727B7
:10079000CB01621B730B840B950B20E4822E22E4A9
:1007A000922E2FE0A22EB12CA50194010E94AF2120
:1007B0009F938F937F936F93C701B601A501940117
:1007C0000E94AF213F932F936F927F9288E691E032
:1007D0009F938F93CE0101967C019F938F930E94EC
:1007E000D725D801ED91FC91028CF38DE02D482F97
:1007F000B701C80109950FB6F894DEBF0FBECDBF93
:1008000068960FB6F894DEBF0FBECDBFDF91CF91D3
:100810001F910F91FF90EF90DF90CF90BF90AF901E
:100820009F908F907F906F900895EF92FF920F931B
:100830001F93CF93DF93CDB7DEB768970FB6F894C9
:10084000DEBF0FBECDBF7C011F930F933F932F934D
:100850005F934F937F936F938CE591E09F938F937A
:100860008E010F5F1F4F1F930F930E94D725D70153
:10087000ED91FC91028CF38DE02D482FB801C7015A
:1008800009950FB6F894DEBF0FBECDBF68960FB6C0
:10089000F894DEBF0FBECDBFDF91CF911F910F91B6
:1008A000FF90EF900895EF92FF920F931F93CF93D5
:1008B000DF93CDB7DEB764970FB6F894DEBF0FBEF7
:1008C000CDBF8C015F934F933F932F937F936F9393
:1008D00085E591E09F938F93CE0101967C019F93D4
:1008E0008F930E94D725D801ED91FC91028CF38D56
:1008F000E02D482FB701C80109950FB6F894DEBF67
:100900000FBECDBF64960FB6F894DEBF0FBECDBF4D
:10091000DF91CF911F910F91FF90EF900895EF928B
:10092000FF920F931F93CF93DF93CDB7DEB76497FA
:100930000FB6F894DEBF0FBECDBF8C015F934F930F
:100940003F932F937F936F938EE491E09F938F93C8
:10095000CE0101967C019F938F930E94D725D801E9
:10096000ED91FC91028CF38DE02D482FB701C80169
:1009700009950FB6F894DEBF0FBECDBF64960FB6D3
:10098000F894DEBF0FBECDBFDF91CF911F910F91C5
:10099000FF90EF900895EF92FF920F931F93CF93E4
:1009A000DF93CDB7DEB760970FB6F894DEBF0FBE0A
:1009B000CDBF8C015F934F937F936F9388E491E059
:1009C0009F938F93CE0101967C019F938F930E94FA
:1009D000D725D801ED91FC91028CF38DE02D482FA5
:1009E000B701C80109950FB6F894DEBF0FBECDBFA1
:1009F00060960FB6F894DEBF0FBECDBFDF91CF91EA
:100A00001F910F91FF90EF900895FC0111821082C9
:100A100013821282158214826115710551F0FB0157
:100A200001900020E9F73197AF01461B570B0C945A
:100A300014140895CF93DF93EC0167E373E0E5DFCF
:100A4000CE01DF91CF910895CF93DF93EC016FEB4F
:100A500073E0DBDFCE01DF91CF910895833081F029
:100A600028F4813099F08230A1F008958730A9F000
:100A70008830B9F08430D1F4809180008F7D03C03C
:100A8000809180008F7780938000089584B58F7760
:100A900002C084B58F7D84BD08958091B0008F77AA
:100AA00003C08091B0008F7D8093B00008951F93A4
:100AB000CF93DF93282F30E0F901E65FFD4F84915B
:100AC000F901EA50FE4FD491F901EE51FE4FC49165
:100AD000CC23C1F0162F8111C1DFEC2FF0E0EE0F17
:100AE000FF1FEC58FE4FA591B4918FB7F8941111E8
:100AF00005C09C91ED2FE095E92302C0EC91ED2B10
:100B0000EC938FBFDF91CF911F910895CF93DF9327
:100B100090E0FC01EA50FE4F2491FC01EE51FE4FA3
:100B20008491882361F190E0880F991FFC01E258BD
:100B3000FE4FC591D491FC01EC58FE4FA591B491A4
:100B4000611109C09FB7F89488812095822388831A
:100B5000EC912E230BC0623061F49FB7F89438817A
:100B6000822F809583238883EC912E2B2C939FBF1B
:100B700006C08FB7F894E8812E2B28838FBFDF91B2
:100B8000CF9108951F920F920FB60F9211242F93B9
:100B90003F934F935F936F937F938F939F93AF9305
:100BA000BF93EF93FF938CE097E0F7DBFF91EF911A
:100BB000BF91AF919F918F917F916F915F914F9175
:100BC0003F912F910F900FBE0F901F9018951F927D
:100BD0000F920FB60F9211242F938F939F93EF9341
:100BE000FF93E0911C07F0911D078081E09122079F
:100BF000F091230782FD12C09081809125078F5FBD
:100C00008F7320912607821751F0E0912507F0E0BD
:100C1000E45FF84F958F8093250701C08081FF9195
:100C2000EF919F918F912F910F900FBE0F901F907A
:100C30001895CF93FC01C0E09F019191992351F049
:100C40009A3211F0C90FF8CFC90101960E94901392
:100C500091E08C1390E0892FCF9108958F929F920D
:100C6000AF92BF92CF92DF92EF92FF926B017C0125
:100C70009EDC4B015C01C114D104E104F104E9F0F4
:100C800096DCDC01CB0188199909AA09BB09883EC9
:100C90009340A105B10578F321E0C21AD108E1081B
:100CA000F10888EE880E83E0981EA11CB11CC114C7
:100CB000D104E104F10421F7DECFFF90EF90DF9043
:100CC000CF90BF90AF909F908F90089580E090E07C
:100CD000C5CF9B0188EE93E0289FB001299F700D3E
:100CE000389F700D112480E090E0B8CF2FB7F894B2
:100CF00060914306709144068091450690914606A6
:100D00002FBF08951F920F920FB60F9211242F93A9
:100D10003F938F939F93AF93BF938091430690919E
:100D20004406A0914506B09146063091420623E064
:100D3000230F2D3720F40196A11DB11D05C026E813
:100D4000230F0296A11DB11D2093420680934306F6
:100D500090934406A0934506B093460680914706BB
:100D600090914806A0914906B0914A060196A11DAE
:100D7000B11D8093470690934806A0934906B0930F
:100D80004A06BF91AF919F918F913F912F910F9004
:100D90000FBE0F901F90189585ED8093BC00809139
:100DA000BC0084FDFCCF1092DB06089540917006D4
:100DB000262F30E0240F311D21323105DCF4209143
:100DC000DB062430C9F4FC0180E090E0861758F47B
:100DD000309170062191DC01A25BB94FA30FB11DC8
:100DE0002C930196F3CF80917006680F6093700684
:100DF00080E0089581E0089582E008950895E091EB
:100E00004C0680914B06E81730F4F0E0EB56F94FB2
:100E1000808190E008958FEF9FEF089590914C06A8
:100E200080914B06981750F4E92FF0E0EB56F94FFC
:100E3000208130E09F5F90934C0602C02FEF3FEF80
:100E4000C901089580914B0690E020914C06821BC9
:100E500091090895CF92DF92EF92FF920F931F9323
:100E6000CF93DF937C01262F972F8A018091DC0698
:100E7000882391F0C62FD72F6E01C40ED51ECC1536
:100E8000DD0569F06991D701ED91FC910190F08148
:100E9000E02DC7010995F3CF642F822F87DFC801AA
:100EA000DF91CF911F910F91FF90EF90DF90CF9046
:100EB0000895CF93DF931F92CDB7DEB7698320915A
:100EC000DC062223D1F02091FF06203240F021E001
:100ED00030E0FC013383228380E090E014C08091F5
:100EE000DD06E82FF0E0E252F94F998190838F5FA1
:100EF0008093DD068093FF0604C061E0CE01019679
:100F000055DF81E090E00F90DF91CF9108958EBD85
:100F100000000DB407FEFDCF8EB50895AB0126EBA2
:100F200033E060E070E00C94CB18FF920F931F93B6
:100F3000CF93DF938C01EB012BEB33E048EB5BE0CD
:100F400060EC73E00E94CB18F82E811102C0F12CE6
:100F500080C06AE370E0C80143960E94192500979B
:100F6000B1F36CE270E00E941925009781F38C01C7
:100F70000F5F1F4FC8010E9474256C837D838E8391
:100F80009F836CE270E0C8010E9419250097F9F276
:100F90008C010F5F1F4FC8010E94742568837983FD
:100FA0008A839B836CE270E0C8010E941925009738
:100FB00071F28C010F5F1F4FC8010E947725805D81
:100FC00088876FE270E0C8010E941925009709F434
:100FD000BECF8C010F5F1F4FC8010E947725898704
:100FE0006FE270E0C8010E941925009709F4AFCFA5
:100FF0008C010F5F1F4FC8010E9477258A876CE222
:1010000070E0C8010E941925009709F4A0CF8C0157
:101010000F5F1F4FC8010E9477258B876AE370E03E
:10102000C8010E941925009709F491CF8C010F5F28
:101030001F4FC8010E9477258C876AE370E0C801C2
:101040000E941925009709F482CF01960E94772506
:101050008D878F2DDF91CF911F910F91FF90089574
:101060001F920F920FB60F9211242F933F934F931D
:101070005F936F937F938F939F93AF93BF93EF9300
:10108000FF938091B900887F803609F49CC068F591
:10109000883209F45BC090F4803109F454C038F40C
:1010A000882309F4F6C0883009F44DC0F5C08831B2
:1010B00009F44CC0803209F45DC0EEC0803409F4FC
:1010C00068C048F4803309F455C0883309F0E4C09F
:1010D0008093D906D8C0803509F44FC0883509F40B
:1010E0005DC0883409F0D8C0D6C0883909F4C7C0BB
:1010F000A8F4883709F467C038F4883609F463C067
:10110000803709F460C0C8C0883809F4B8C0803995
:1011100009F45FC0803809F0BFC05BC0803B09F4B0
:1011200086C038F4803A09F466C0883A09F47FC072
:10113000B3C0803C09F4A7C0883C09F4A4C0883B34
:1011400009F48AC0A9C08091B60610C09091D80653
:101150008091D706981770F5E091D80681E08E0F40
:101160008093D806F0E0E954F94F80818093BB006A
:1011700085EC86C08093D9068EC0E091D80681E0C8
:101180008E0F8093D8068091BB00F0E0E954F94FB0
:1011900080839091D8068091D7066EC0E091D806E2
:1011A00081E08E0F8093D8068091BB00F0E0E95477
:1011B000F94F80838091DA0681116DC081E08093C0
:1011C000B50684EA61C083E08093DB061092940642
:1011D000CFCF80919406803208F051C0E091940600
:1011E00081E08E0F809394068091BB00F0E0EC5874
:1011F000F94F8083BDCF85EC8093BC001092DB0655
:1012000080919406803230F4E0919406F0E0EC583E
:10121000F94F10826091940670E0E0917206F091AF
:10122000730684E796E009951092940635C084E031
:101230008093DB061092710610927006E0916E06A4
:10124000F0916F06099580917006811105C081E0CB
:101250008093700610924E06E091710681E08E0F29
:1012600080937106F0E0E25BF94F80818093BB00D0
:101270009091710680917006981708F479CF85E8EF
:101280008093BC0009C085EC8093BC001092DB0603
:1012900003C01092D90680DDFF91EF91BF91AF910D
:1012A0009F918F917F916F915F914F913F912F917E
:1012B0000F900FBE0F901F901895EF92FF920F9313
:1012C0001F93CF93DF93EC018B01E881F9810680B6
:1012D000F781E02D61E070E0099560E087E0E7DBF1
:1012E000E881F9810680F781E02D61E070E0CE01B0
:1012F0000995F80180818432A1F0E12CF12C8E89CE
:10130000F70194E0899FE00DF11D1124E55FFE4F88
:101310008081FDDDEFEFEE1AFE0AF4E0EF16F10436
:1013200071F7F80181918F01882311F0F0DDF9CF79
:101330008BE1EDDDE881F9810680F781E02D61E048
:1013400070E0CE01099561E087E0DF91CF911F91B8
:101350000F91FF90EF90ABCB3F924F925F926F92C5
:101360007F928F929F92AF92BF92CF92DF92EF9235
:10137000FF920F931F93CF93DF9300D01F92CDB7AF
:10138000DEB78C016B017A015901B0DC2B013C0105
:101390001B821A82470141E0841A91080E94761547
:1013A000D801ED91FC910680F781E02D61E070E0BD
:1013B0000197A1F4C801099599DCDC01CB018419DE
:1013C0009509A609B709950140E050E028173907AB
:1013D0004A075B0718F780E090E0C5C0C80109958F
:1013E00060E087E064DB75010E947615892B09F0C7
:1013F0006CC07CDCDC01CB0184199509A609B70916
:10140000970140E050E082179307A407B50708F062
:101410005CC080E27CDD282F4A815B81452B39F45A
:10142000243211F7F601208341E050E01EC04A81CA
:101430005B8147305105E4F0D60111968C918F34D1
:10144000B9F42E32A9F4CA018C0D9D1DFC0131970F
:1014500030813E3281F4319780818E3261F4B0EF79
:10146000EB1AB8EDFB0A44E050E05B834A83BCCF43
:10147000222309F4B9CF4A815B814815590561F4EB
:10148000BA01C60129830E94E9134A815B81481B86
:10149000590B5B834A832981EA81FB81EC0DFD1D99
:1014A0002083293031F431973324339480818E3373
:1014B00009F0312C4A815B814F5F5F4F5B834A8328
:1014C000332009F491CF570102C05701312CD801C4
:1014D000ED91FC910680F781E02D61E070E0C8019C
:1014E000099561E087E0E3DAD801ED91FC9106808F
:1014F000F781E02D61E070E0C8010995311010C05E
:10150000F5DBDC01CB0184199509A609B709970120
:1015100040E050E082179307A407B50708F43ECFD8
:10152000D80156968C91833041F0332031F04A81B6
:101530005B81415051095B834A83EA81FB81EC0D59
:10154000FD1D10820E947615892B59F4D801ED916A
:10155000FC910680F781E02D61E070E0C8010995FB
:10156000F1CF8A819B810F900F900F90DF91CF91E7
:101570001F910F91FF90EF90DF90CF90BF90AF90B1
:101580009F908F907F906F905F904F903F900895C5
:101590002F923F924F925F926F927F928F929F9283
:1015A000AF92BF92CF92DF92EF92FF920F931F9371
:1015B000CF93DF9300D000D000D0CDB7DEB79E83AD
:1015C0008D836B017A012C8391DB2B013C012C81F3
:1015D000222E312CC70107969B838A834801A12CB8
:1015E000B12CB6018D819E8168DE9801A101B70101
:1015F0008D819E81B1DE8983882379F0D701119690
:101600008C918F3411F145E050E061EE74E08A81F5
:101610009B810E94E724892BC1F4AD81BE81ED91AD
:10162000FC9111970680F781E02D64E170E0CD0117
:1016300009955CDBDC01CB0184199509A609B70982
:1016400088159905AA05BB0560F2898126960FB613
:10165000F894DEBF0FBECDBFDF91CF911F910F91E8
:10166000FF90EF90DF90CF90BF90AF909F908F90C2
:101670007F906F905F904F903F902F9008951F92B2
:101680000F920FB60F9211248F93EF93FF930FB623
:10169000F894A89580916000886180936000109212
:1016A00060000FBEA895E0E6F0E080818F7B80832C
:1016B000FF91EF918F910F900FBE0F901F90189593
:1016C0004F925F926F927F928F929F92AF92BF9252
:1016D000CF92DF92EF92FF920F931F93CF93DF93FE
:1016E000CDB7DEB7CC59D1090FB6F894DEBF0FBE27
:1016F000CDBF80915F08982F9F7B90935F0881FDFD
:101700001BC081E494E00E940F178FE298E00E94D2
:10171000FD1F0E94C315811106C088E494E00E9459
:101720006A1510E001C48AE893E00E946A1580916E
:101730005F08826080935F0880915F0880FD0BC026
:1017400060EA70E08FE498E00E94840380915F0873
:10175000816080935F0880915F0884FD23C067E308
:1017600073E0CE01019651D94D815E8169817A8104
:101770008CE097E00E945801CE0101960E9454141B
:1017800084E494E00E940F1789EA97E0DCD4882370
:1017900021F28AE893E00E946A1580915F088061D7
:1017A00080935F088BE494E00E940F1785E594E036
:1017B0000E940F178DE594E00E940F1797DA6B01D6
:1017C0007C012BEB33E048EE53E06FE574E089EAEF
:1017D00097E00E94CB1825E634E048EB5BE060E739
:1017E00074E089EA97E00E94CB18182F8EE20E94DD
:1017F0000417111119C07ADADC01CB018C199D098B
:10180000AE09BF0980369A4EA105B10520F385CFF8
:101810006DDAAB01BC014C195D096E097F094036D8
:101820005A4E6105710568F42AE734E048EB5BE045
:1018300064E874E089EA97E00E94CB18182F8823A7
:1018400039F385E594E09F938F938AE195E09F9328
:101850008F938CEB97E09F938F930E9454252BEBF3
:1018600033E048EE53E06CEB77E089EA97E00E94C2
:10187000CB180F900F900F900F900F900F90882320
:1018800009F44BCF2BEB33E048EE53E06FE874E004
:1018900089EA97E00E94CB18112309F43ECF2BEB85
:1018A00033E048EE53E069E974E089EA97E00E948A
:1018B000CB188823B1F063EA74E08CEB97E00E94C8
:1018C0003A25009771F08C010E5F1F4F62E270E0C5
:1018D000C8010E941925009711F0DC011C92B80183
:1018E00002C06FEB73E0CE0101968FD88D819E818F
:1018F000892B29F0CE0101960E94071804C08AE8BE
:1019000093E00E946A1580915F08806280935F086F
:10191000CE010196C9D780915F0882FD2EC086EA6C
:1019200094E00E940F1740E052EC61E070E08FE21B
:1019300098E00E945B1F8823E1F080915F0884603B
:1019400080935F088DEA94E00E940F17809146080B
:10195000811103C088E394E002C08FE294E00E940A
:101960000F1789E20E9404178DEB93E00E9458152F
:1019700004C088E494E00E946A1581EB94E00E9420
:101980000F17B4D96B017C01B1D9DC01CB018C19E3
:101990009D09AE09BF0980369A4EA105B10538F5FB
:1019A00026E434E048EB5BE067EB74E089EA97E01B
:1019B0000E94CB18882341F3ECEBF7E08F012191D3
:1019C00021110AC06DE070E0C8010E94192500973E
:1019D00061F0FC01108209C0022E000C330B205371
:1019E00031092A30310550F7EDCFB80102C06FEB55
:1019F00073E0CE018D569F4F08D8C956DF4F8881BE
:101A00009981C759D040892B31F0CE018D569F4F17
:101A10000E94071804C088E494E00E946A152BEB2A
:101A200033E044EF51E061EC74E089EA97E00E9412
:101A3000CB18882309F4CDC06AE370E08CEB97E003
:101A40000E941925009709F4C4C08C010E5F1F4F36
:101A5000C8010E9477252AE0289F7001299FF00C79
:101A600011246EE270E0C8010E941925009751F020
:101A7000DC0111962C91022E000C330B20533109FE
:101A8000E20EF31E1E141F040CF0A6C089EC94E0B5
:101A90000E940F17B7010F2C000C880B990B0E94A6
:101AA000DE2920E030E040E251E40E9445224B0173
:101AB0005C012B013C019B01AC010E94EF228823B9
:101AC00019F080ED94E027C0D501C401BF77C75657
:101AD000DF4F88839983AA83BB83C959D0402FEFF6
:101AE0003FEF4FE75FE7BC01CD010E94EF2281117C
:101AF00014C02FEF3FEF4FE75FE7C756DF4F688116
:101B000079818A819B81C959D0400E94D8291816B1
:101B100024F484ED94E0CCD758C02FEF3FEF4FE78B
:101B20005FE4C501B4010E94EB2218161CF488ED95
:101B300094E0F1CF2FEF3FEF4FE75FECC501B40129
:101B40000E94D82987FDF3CF20E030E0A901C5012C
:101B5000B4010E94D82987FF09C08DE20E940417B2
:101B60002401350177FA709477F870942DEC3CECF1
:101B70004CE45DE3C301B2010E94DA212B013C0178
:101B80000E94BC224B015C010E94DC299B01AC013C
:101B9000C301B2010E94D9212B013C014AE0C501D9
:101BA000B4010E94C4168EE20E94041720E030E0C7
:101BB00040E251E4C301B2010E943D2A0E94BC22CE
:101BC00080E090E04AE00E94C4168CED94E082D759
:101BD00003C0EE24EA94FE2C1092AD071092AE07DB
:101BE0001092AF071092B00700E010E098010115C5
:101BF000110519F08CE991E002C084EA91E03F936D
:101C00002F939F938F93A1E0B0E0AC0FBD1FBF93C4
:101C1000AF930E94D725BE016F5F7F4F8FE298E0A0
:101C20004CDB20ED37E040E850E0BE016F5F7F4FB6
:101C30008FE298E091DB0F900F900F900F900F9034
:101C40000F9018161906D4F56FED74E0CE010196C9
:101C50000E943A25892B91F567EE74E0CE0101963A
:101C60000E943A258C01892B79F15E01B1E8AB0E17
:101C7000B11CD12C9A2CCB2CF8018081882339F10E
:101C8000C8010696F80126812D3051F46AE370E010
:101C90000E9419250097D9F08C010E5F1F4F01C0DB
:101CA0008C01C8016FD5009791F0D394D5018D9325
:101CB0009D935D01B6E0DB12DFCF0BC00F5F1F4FBE
:101CC0000630110509F092CF00E010E04CC0DD2095
:101CD000D9F38AEE94E00E940F178D2D90E0A0E0DA
:101CE000B0E04AE0BC01CD010E94C4168DEB93E048
:101CF000DFD682EB91E09F938F9381E090E08C0F91
:101D00009D1F9F938F930E94D7258C01A92CBC2CDB
:101D10000F900F900F900F90C12C3EEA832E31E070
:101D2000932ED5018C9111969C91B2E0AB0EB11C13
:101D30009F938F939F928F9281E090E08C0F9D1FD5
:101D4000800F911F9F938F930E94D725080F191F13
:101D5000C3940F900F900F900F900F900F90CD1095
:101D6000E0CF0150110988EA91E09F938F9381E0C1
:101D700090E08C0F9D1F800F911F9F938F930E9467
:101D8000D725800F911FCC24C394D12CCC0EDD1EFF
:101D9000C80ED91E1092450820E8281B00E117E262
:101DA000A6016FEE74E08FE298E0F2DB0F900F90E7
:101DB0000F900F90882309F4B1C065EF74E0C6015D
:101DC0000E943A25009709F4A9C00A9656018C0191
:101DD0000F5F1F4FD8018C91803269F4C8010196C2
:101DE0009FD4F5018083882319F0FFEFAF1ABF0A53
:101DF0000D5F1F4FEFCF6AE370E0C8010E94192505
:101E0000009729F7F50110828BEF94E00E940F17DD
:101E1000C60160D603E080E095E00E940F1741E91B
:101E20005FE167E973E089EA97E043D5882381F0B1
:101E30008AE893E04FD6BE016F5F7F4F81E00E943A
:101E40001B18182F811108C089EA97E074D14DC082
:101E500088E494E03FD649C089E095E0E0D740911E
:101E6000BA075091BB0741155105F1F0C357DF4F39
:101E700019821882CD58D040C157DF4F198218827D
:101E8000CF58D040CF56DF4F19821882C159D04069
:101E90006091B6077091B7076115710561F0CE01C9
:101EA00083579F4FC1D407C06CE178E0CE018357C0
:101EB0009F4F0E940505CE0183579F4F0E94071830
:101EC000CE0183579F4FF0D481E195E0A8D7609170
:101ED000AB077091AC0780E090E04AE055D78DEBFE
:101EE00093E0E6D51123A9F005C0015009F093CF86
:101EF00010E00FC0E114F10439F0A70161E870E0CF
:101F00008FE498E00E94CB0480915F088064809306
:101F10005F08CE018D569F4FC7D406C068E275E0BA
:101F2000C6010E94242576CF812FC456DF4F0FB6FD
:101F3000F894DEBF0FBECDBFDF91CF911F910F91FF
:101F4000FF90EF90DF90CF90BF90AF909F908F90D9
:101F50007F906F905F904F900895382F2091FF06EB
:101F60009091FE06213208F049C08091DB06811174
:101F7000FCCF42E04093DB063093DA063FEF30932C
:101F8000D9061092D8062093D706AEEDB6E047EBFF
:101F900056E0FA013E2F341B321718F43D9131936D
:101FA000F9CF1092B6062091B606990F922B909316
:101FB000B6069091B506913061F41092B5069091F5
:101FC000B6069093BB009091BC0093FDF8CF95ECC2
:101FD00001C095EE9093BC009091DB069230E1F346
:101FE0009091D9069F3F79F08091D906803241F0D7
:101FF0008091D906803331F084E005C081E003C0D0
:1020000082E001C083E01092DD061092FF0610927C
:10201000DC0608959091DB069111FCCF91E090933E
:10202000DB069093DA062FEF2093D9061092D8069C
:10203000280F2093D7069093B6069091B606906D20
:102040009093B6069091B506913061F41092B50662
:102050009091B6069093BB009091BC0093FDF8CF91
:1020600095EC01C095EE9093BC009091DB06913009
:10207000E1F39091D806981710F48091D806A7EB59
:10208000B6E025E936E0F9019E2F921B981718F467
:102090009D919193F9CF0895CF93DF93EC01CB57A6
:1020A000DF4F2881223089F4FC01A081B18116978D
:1020B0008D919C918E0F9F1FDC01ED91FC9100A0F2
:1020C000F1A1E02D099581E08883DF91CF910895FA
:1020D0000F931F93CF93DF938C01EB0124E335E043
:1020E00060E070E00E94CB188823E1F064E375E0C3
:1020F000C80143960E943A250097A1F06AE070E07B
:102100000E941925009771F0FC013196209769F023
:10211000DF010D900020E9F71197AE1BBF0BB983CB
:10212000A88303C080E090E001C0CF01DF91CF9190
:102130001F910F9108952BEB33E048EE53E06FE3CE
:1021400075E00C94CB18EF92FF920F931F93CF93EF
:10215000DF93EC018C010B571F4FD8018C9181113B
:1021600015C0E881F9813697808191818C0F9D1F80
:10217000DC01ED91FC910488F589E02D40E052EC02
:1021800061E070E0099581E0F80180839AE0F92E22
:10219000E881F9813697808191818C0F9D1FDC0148
:1021A000ED91FC9100A0F1A1E02D0995E881F98164
:1021B0003697808191818C0F9D1FDC01ED91FC9100
:1021C0000680F781E02D68EB7BE00995E881F981D5
:1021D0003697808191818C0F9D1FDC01ED91FC91E0
:1021E000068CF78DE02D099583E0E82E2BEB33E08C
:1021F00048EE53E06BE274E0CE01CDD7882321F0A6
:1022000092E0F801908306C0EA94E110EFCFFA94CF
:10221000F110BECFDF91CF911F910F91FF90EF9002
:1022200008952F923F924F925F926F927F928F927A
:102230009F92AF92BF92CF92DF92EF92FF920F9355
:102240001F93CF93DF93CDB7DEB767970FB6F894A0
:10225000DEBF0FBECDBF8C016B015A012D8BDC019F
:1022600013968C9113978F9312968C918F938CE485
:1022700095E09F938F93FE0131967F01FF93EF933B
:102280000E9454254C010F900F900F900F900F90CB
:102290000F90F70180E09F012E193F09281539059D
:1022A0001CF49191890FF7CFF60190E09F012C1952
:1022B0003D092A153B051CF42191920FF7CF890F98
:1022C0001F928F9380E595E09F938F932E01F1E10C
:1022D0004F0E511C5F924F920E9454253C011401F5
:1022E0002A0C3B1C280E391E3F922F9284E595E064
:1022F0009F938F93B8016D5E7F4F7F936F936E8B2B
:102300007F8B0E94542523E635E048EC50E06E892F
:102310007F89C80140D70FB6F894DEBF0FBECDBF8E
:10232000811103C080E090E044C0D801ED91FC91A0
:10233000369780819181800F911FDC01ED91FC9196
:10234000028CF38DE02DA401B7010995D801ED9120
:10235000FC91369780819181800F911FDC01ED9176
:10236000FC91028CF38DE02DA501B6010995D801F1
:10237000ED91FC91369780819181800F911FDC0156
:10238000ED91FC91028CF38DE02DA301B201099532
:10239000BD89BB2369F0D801ED91FC910088F189DA
:1023A000E02D68E873E1C8010995882309F4BACFE4
:1023B000C10167960FB6F894DEBF0FBECDBFDF91A7
:1023C000CF911F910F91FF90EF90DF90CF90BF9032
:1023D000AF909F908F907F906F905F904F903F90C5
:1023E0002F900895CF93DF931F92CDB7DEB781E092
:1023F0008093DC0688E68093FE061092DD0610923C
:10240000FF0680E097E049830E9459074981642FC5
:1024100080E097E00E94590781E00F90DF91CF9113
:102420009CCDEF92FF920F931F93CF93DF93142FC6
:10243000022FE32E81E08093DC0688E68093FE067F
:102440001092DD061092FF0680E097E00E94590787
:1024500080E083DD812F113208F080E2DBDD109215
:102460004C0680934B06F02EC02FDE2D90914B062C
:1024700080914C06981751F08C2F8F19811730F4EA
:1024800080E097E00E940E078993F0CFDF91CF9113
:102490001F910F91FF90EF9008958F929F92AF92AE
:1024A000BF92CF92DF92EF92FF920F931F93CF9341
:1024B000DF9300D000D000D0CDB7DEB75C014B0178
:1024C000672B09F452C09E012F5F3F4F46E06BE33C
:1024D000A8DF698170E0762F66278A81682BF50175
:1024E00073836283CB80D12CDC2CCC248C81C82AD2
:1024F000D582C482ED80F12CFE2CEE248E81E82A58
:10250000F782E682072E000C880B990B0E94DE29C9
:1025100020E030E040E858E30E943D2AF401608367
:10252000718382839383B601DD0C880B990B0E9423
:10253000DE2920E030E040E858E30E943D2AF40123
:102540006483758386839783B701FF0C880B990B8F
:102550000E94DE2920E030E040E858E30E943D2A56
:10256000F40160877187828793870115110521F136
:102570009E012F5F3F4F42E061E4C50152DF698158
:1025800070E0762F66278A81682B072E000C880B57
:10259000990B0E94DE292AE43CE845E052E40E94BF
:1025A000452220E030E042E553E40E94DA210E9417
:1025B000B622F8017183608381E026960FB6F89405
:1025C000DEBF0FBECDBFDF91CF911F910F91FF9066
:1025D000EF90DF90CF90BF90AF909F908F90089535
:1025E00081E08093DC0688E68093FE061092DD068B
:1025F0001092FF0680E097E00E94590780E0ADDC72
:1026000081E008DD10924C0680934B0680E097E055
:102610000C940E0708951F93CF93DF93EC01109253
:102620004C0610924B061092DD061092FF06109297
:10263000DB0681E08093DA061092B50661E082E164
:102640000E94570561E083E10E9457058091B9001F
:102650008E7F8093B9008091B9008D7F8093B900FF
:1026600088E48093B80085E48093BC008CE080937C
:10267000B80065E7CE01B4DF182F883619F081372E
:1026800009F047C040E06BE6CE01ACDE64E670E0E6
:1026900080E090E00E942E0641E06BE6CE01A2DED3
:1026A00068EC70E080E090E00E942E0643E06AE172
:1026B000CE0198DE44E069E1CE0194DE6BE1CE010B
:1026C0008FDF482F457E6BE1CE018CDE6CE1CE01C1
:1026D00087DF482F477E6CE1CE0184DE6DE1CE01BD
:1026E0007FDF807F482F43606DE1CE017BDE42E2D9
:1026F00067E3CE0177DE41E068E3CE0173DE64E696
:1027000070E080E090E00E942E06113721F081E019
:1027100003C080E001C082E0DF91CF911F91089556
:10272000FC01908181812FEB290F263010F4975006
:102730000AC02FE9290F263010F4975204C020ED6B
:10274000290F2A30E8F4811103C0892F8F70089572
:102750002FEB280F263010F487500AC02FE9280FDE
:10276000263010F4875204C020ED280F2A3040F4A0
:10277000282F2F7030E1939FC0011124822B0895E0
:1027800080E00895FC01919180E020E030E0992301
:10279000F1F08430E4F44FEB490F463010F49750D9
:1027A0000CC04FE9490F463010F4975206C09032E2
:1027B00061F040ED490F4A3050F444E0220F331FDE
:1027C0004A95E1F79F70292B8F5F9191E0CFC90166
:1027D0000895CF93DF93FC01C0E0D0E0C617D70780
:1027E000A4F421912D3011F02A3069F42196C617F6
:1027F000D70774F4FC01EC0FFD1F20812D30B1F3DD
:102800002A3031F4F3CF2196E9CFEB01D595C79566
:10281000AB014C1B5D0BBC016C0F7D1F0E94FD24A6
:10282000CE01DF91CF910895EF92FF920F931F9306
:10283000CF93DF93EC017B018A0188819981009716
:1028400029F02A813B8124173507F8F4B8016F5F1E
:102850007F4F0E942024009759F0998388831B831F
:102860000A832C813D81232B81F4FC0110820DC051
:1028700088819981009711F00E948823198218821B
:102880001D821C821B821A8207C01D830C83B70124
:10289000888199810E942425CE01DF91CF911F91DB
:1028A0000F91FF90EF900895FC01808191810C942D
:1028B00088238F929F92AF92BF92CF92DF92EF9236
:1028C000FF920F931F93CF93DF9300D000D000D0DF
:1028D000CDB7DEB78C017B01942E852E9C012D5E39
:1028E0003F4F69016115710509F460C0FB018081EA
:1028F000082E000C990BC0970A9708F450C0FF925D
:102900006F9385E695E09F938F93DF922F930E94BC
:1029100054252BEB33E040E157E2B601C8013BD42C
:102920000F900F900F900F900F900F908823D9F079
:10293000B701C6010E943A250097A9F063EA74E046
:102940000E943A25009779F05C01F2E0AF0EB11CCD
:1029500062E270E0C5010E941925009711F0FC01A8
:102960001082B50102C06FEB73E0CE0101960E94A8
:1029700005058D819E81892B69F069817A814FE0FF
:1029800050E0C8018D589F4F0E942B25CE01019623
:102990008BDF0CC0CE01019687DF80E03CC04FE0AA
:1029A00050E0C8018D589F4F0E942B252BEB33E040
:1029B00048EE53E066E775E0C801EDD32BEB33E05A
:1029C00048EE53E06CE875E0C801E5D32BEB33E04B
:1029D00048EE53E06AE975E0C801DDD3F801ED5730
:1029E000FF4F908281828F929F92FF92EF928BEAAB
:1029F00095E09F938F93DF92CF920E9454252BEB0B
:102A000033E048EB5BE0B601C801C5D30FB6F894DC
:102A1000DEBF0FBECDBF26960FB6F894DEBF0FBE49
:102A2000CDBFDF91CF911F910F91FF90EF90DF907D
:102A3000CF90BF90AF909F908F900895CF92DF92EC
:102A4000EF92FF921F93CF93DF93CDB7DEB7289716
:102A50000FB6F894DEBF0FBECDBF6C0198E0E7E182
:102A6000F1E0DE01119601900D929A95E1F7CE0109
:102A700001967C0110E0F701619171917F01C6011F
:102A80000E943A251F5F892B11F0812F03C014305B
:102A900091F780E028960FB6F894DEBF0FBECDBF49
:102AA000DF91CF911F91FF90EF90DF90CF9008952D
:102AB000009769F0FC0101900020E9F73197AF0120
:102AC000481B590BBC018CE097E00C94580180E046
:102AD00090E00895CF93DF93EBDFEC018DEB93E073
:102AE000E7DF8C0F9D1FDF91CF910895CF93DF9388
:102AF000E0E1F2E08491ECEFF1E0D491E8EEF1E076
:102B0000C491CC2391F081110E942E05EC2FF0E0AE
:102B1000EE0FFF1FE852FE4FA591B491EC91ED230B
:102B200081E090E021F480E002C080E090E0DF915D
:102B3000CF9108950F931F93CF93DF93CDB7DEB757
:102B4000A0970FB6F894DEBF0FBECDBF00E117E22D
:102B500020E2AE014F5F5F4F6DED75E08FE298E0D0
:102B60000E94C80A68EB7BE080E090E00E942E069D
:102B7000A0960FB6F894DEBF0FBECDBFDF91CF9108
:102B80001F910F9108952F923F924F925F926F92F3
:102B90007F928F929F92AF92BF92CF92DF92EF92ED
:102BA000FF920F931F93CF93DF93CDB7DEB7CF5430
:102BB000D1090FB6F894DEBF0FBECDBF86E0EFE1BE
:102BC000F1E0DE01A75BBF4F01900D928A95E1F71E
:102BD00010924408109243089E01275B3F4F7901F1
:102BE000590136E0A30EB11CD12CD7016D917D9116
:102BF0007D0100ED17E020E4AE014F5F5F4F8FE2F3
:102C000098E00E94C80A811101C0D394EA14FB0421
:102C100061F7DD2019F08EDF80E09CC000E117E253
:102C200020E4AE014F5F5F4F62EE75E08FE298E007
:102C30000E94C80A882379F3CE010196FFDE811134
:102C4000EACF80E1E3E3F8E0DF011D928A95E9F73E
:102C50004F0100E010E0712C8EEC282E81E0382E20
:102C60005E01B1E4AB0EB11C60960FAF60971F938D
:102C70000F93809131081F928F933F922F92BF92B2
:102C8000AF920E94D72510924508B5018FE298E0D7
:102C90000E945D0920E137E240E450E0BE016F5F31
:102CA0007F4F8FE298E00E94AC090FB6F894DEBF28
:102CB0000FBECDBF181619060CF041C0CE0101960B
:102CC000BDDE81113CC09E012F5F3F4F690168EE60
:102CD00075E0C6010E943A257C01892B39F1670114
:102CE00033E0C30ED11CC6011BDD60969FAD60971B
:102CF0008913EDCF6701A5E0CA0ED11C2601B1E111
:102D0000EB0EF11C3401D2018C91803261F4C201CE
:102D1000019606DDF30181933F01F3E04F0E511C54
:102D20004E145F0481F777247394D1CF005E1F4F58
:102D3000B4E08B0E911C0038110509F095CF772077
:102D400041F082E090E09093440880934308109211
:102D50003208872DC15BDF4F0FB6F894DEBF0FBE80
:102D6000CDBFDF91CF911F910F91FF90EF90DF903A
:102D7000CF90BF90AF909F908F907F906F905F901B
:102D80004F903F902F9008958F929F92AF92BF9255
:102D90000F931F93CF93DF93CDB7DEB7A1970FB6F5
:102DA000F894DEBF0FBECDBF19A2423008F44AE04E
:102DB0008E010F5D1F4F842E912CA12CB12CA501EB
:102DC00094010E948D21E62FB901CA010150110919
:102DD000EA3014F4E05D01C0E95CD801EC93232BE8
:102DE000242B252B61F7C80163DEA1960FB6F8945A
:102DF000DEBF0FBECDBFDF91CF911F910F91BF906E
:102E0000AF909F908F900895E0910C07F0910D077F
:102E10000190F081E02D682F8CE097E0099448CE76
:102E2000AF92BF92DF92EF92FF920F931F93CF93D7
:102E3000DF93CDB7DEB7C054D1090FB6F894DEBF2B
:102E40000FBECDBFD82E8B011F928F93809131087A
:102E50001F928F938EEC91E09F938F939E012F5F33
:102E60003F4F79013F932F930E94D7251092450839
:102E7000B7018FE298E00E945D0920ED37E040E461
:102E800050E0B7018FE298E00E94AC090FB6F894C9
:102E9000DEBF0FBECDBF181619063CF08091320878
:102EA0008F5F8093320880E0A1C0C701C7DD811128
:102EB000F5CF570168EE75E0C5010E943A257C0107
:102EC000892B61F35701F3E0AF0EB11CC50128DC7B
:102ED0008D11F0CF10923208570125E0A20EB11CDF
:102EE000F7018581803231F7C70106964D2D50E0FC
:102EF000FA013497E036F10508F071C0E45CFF4F49
:102F00000C94CB213FDCBC0176956795769567954F
:102F100069C006DCF3E08F9FB001112463C000DCC0
:102F2000282F30E0B90150C0FBDB24E6829FC001AE
:102F300011246FEF70E003C025DC64E670E00E94AE
:102F4000792150C0EDDB8695282F30E0B90160541F
:102F5000710948C017DC41C015DC68EE73E0EFCFA3
:102F600011DC64E170E0EBCFDBDB282F30E0B9014E
:102F70006D57710937C0D4DB90E08058910944E661
:102F8000489F9001499F300D112437FF02C02158FE
:102F90003F4FB901660F672F661F770B23C0F2DB27
:102FA000A0E0B0E0BC01CD0179568109910920E88B
:102FB00030E040E050E00E94AF21B90113C0E2DBF5
:102FC0006AE070E00E947921685271090BC0DADB77
:102FD0009C01A8ECB0E00E94352BBC0103C0A0DB33
:102FE000682F70E0F8017183608381E0C05CDF4F7F
:102FF0000FB6F894DEBF0FBECDBFDF91CF911F910A
:103000000F91FF90EF90DF90BF90AF900895CF9316
:10301000DF93FC0144815581608171818CE097E0F0
:103020000E945801EC018DEB93E042DD8C0F9D1F57
:10303000DF91CF9108957F928F929F92AF92BF922E
:10304000CF92DF92EF92FF920F931F93CF93DF9374
:10305000CDB7DEB7C255D1090FB6F894DEBF0FBEAB
:10306000CDBF782E7B010E9476069F938F937F932E
:103070006F931F927F928091AC078F938091AB07E3
:103080008F938EEB91E09F938F938E010F5F1F4F75
:103090001F930F930E94D7250FB6F894DEBF0FBE83
:1030A000CDBFE114F10421F0B701C8010E940E2543
:1030B00083E0882E98EBA92E91E0B92E6E0191E461
:1030C000C90ED11CF80101900020E9F73197AF013A
:1030D000401B510B21E0B80189EA97E0A2D8892B67
:1030E00019F487EF95E031C048E853E1BE016F5A0B
:1030F0007F4F89EA97E00E9468107C01009719F4DD
:103100008AE096E022C01092B1070E941906982E1C
:10311000811105C083E196E082DEC70116C01F92CF
:103120007F92BF92AF92DF92CF920E94D725B601D5
:10313000C7010E943A250F900F900F900F900F90AB
:103140000F90892B41F486E296E0C4DC8A948110CA
:10315000B9CF912C0AC081E0781207C0C7010E9444
:1031600077259093AC078093AB07892DCE5ADF4F1C
:103170000FB6F894DEBF0FBECDBFDF91CF911F9188
:103180000F91FF90EF90DF90CF90BF90AF909F9006
:103190008F907F900895CF92DF92EF920F931F93BD
:1031A000CF93DF9300D0CDB7DEB78C016A013A83AD
:1031B00029836115710579F0DC01ED91FC91369759
:1031C00080819181800F911FDC01ED91FC91008C39
:1031D000F18DE02D0995F801138A0190F081E02D21
:1031E000369780819181800F911FDC01ED91FC91D8
:1031F000B8016D5E7F4F048CF58DE02DEE24E394D5
:103200008E010F5F1F4F960140E650E0099591E057
:10321000811101C090E0892F0F900F90DF91CF9125
:103220001F910F91EF90DF90CF9008958FEA91E07A
:103230009093300880932F0889E292E09093AA0738
:103240008093A90786EB97E02FCBCF93DF93CDB781
:10325000DEB7A5970FB6F894DEBF0FBECDBF78944A
:1032600084B5826084BD84B5816084BD85B582608B
:1032700085BD85B5816085BD80916E00816080933C
:103280006E001092810080918100826080938100A5
:1032900080918100816080938100809180008160B5
:1032A000809380008091B10084608093B100809110
:1032B000B00081608093B00080917A008460809338
:1032C0007A0080917A00826080937A0080917A00FF
:1032D000816080937A0080917A00806880937A0080
:1032E0001092C10068EE73E080E090E00E942E062C
:1032F000E0911C07F0911D0782E08083E0911807A0
:10330000F09119071082E0911A07F0911B0780E1F4
:10331000808310922407E0912007F091210786E036
:103320008083E0911E07F0911F0780818061808378
:10333000E0911E07F0911F07808188608083E091F3
:103340001E07F0911F07808180688083E0911E072F
:10335000F0911F0780818F7D808361E084E00E946F
:10336000860561E084E00E9457050E94600B60E0E2
:1033700084E00E94570524E6822E912CA12CB12CCA
:103380009E012F5F3F4F79016E0131E2C30ED11CC8
:1033900033E0332E3C0C80915F0886FD4FC060E027
:1033A00084E00E94570580915F0884FF17C060E0A9
:1033B00070E082E040DE89EA97E00E949B108EE395
:1033C00093E02DDD89EA97E00E944C1087E493E0BA
:1033D00081DB80915F088F7E80935F088091320847
:1033E000843020F01092AC071092AB0780915F08F8
:1033F00082FF06C040E050E0BA018FE298E05BD562
:1034000080915F08897C80935F088BE493E062DBA6
:10341000BADB811103C08EE2F7DCFACF83E593E0DB
:1034200059DB61E084E00E9457050E94600B88230D
:1034300009F4B5CF60E084E00E9457058091B107A0
:103440008431C0F061E084E00E94570589EA97E08A
:103450000E949B1089EA97E00E944C1080915F08BF
:103460008F7E80935F080E94600B60E084E00E9482
:1034700057055BC20E947606AB01BC018FE498E061
:103480000E94A4026091AD077091AE078091AF07D2
:103490009091B007A501940140D761307105810575
:1034A000910541F440E050E062E870E08FE498E07C
:1034B0000E94CB0480915F0881FFB8C0B7018DE006
:1034C000AFDC882309F441C00E9476062B013C0141
:1034D00009811A818091370690913806A0913906AA
:1034E000B0913A06A3019201281B390B4A0B5B0BE2
:1034F000A0913B06B0913C06A00FB11F52D720E22D
:103500003CE140E050E009D780913E0690913F06B3
:10351000A0914006B0914106820F931FA41FB51FD2
:1035200080933E0690933F06A0934006B0934106D9
:1035300040923706509238066092390670923A06E9
:1035400010933C0600933B0602C00FEF1FEF0F3FA6
:103550008FEF180709F46AC0A8016DE071E08FE4ED
:1035600098E00E94CB0420913E0630913F064091A6
:1035700040065091410660E370E08FE498E00E94BD
:1035800053048CE089A384E08AA381E18BA38601A4
:10359000D8012D908D01BE016C5D7F4F822D40DCE6
:1035A000882349F04CA15DA1622D70E071608FE429
:1035B00098E00E94CB043012EBCF80913D0631E0C1
:1035C000380F30933D0622E3622F87D691112EC02B
:1035D00085E0E6E0F1E0D70101900D928A95E1F7F0
:1035E000832F7BD6F701E80FF11D10811F37B8F448
:1035F000EFEFE10F8E2F877020E830E002C03595A5
:1036000027958A95E2F7C901F0E093E0F595E795F3
:103610009A95E1F7ED5CF74F9081892339F0BE016F
:103620006C5D7F4F812FFCDB811182C180915F082F
:1036300082FF87C086E1D7011D928A95E9F7B7011D
:103640008FE298E08FD3882309F47BC069817A8167
:103650008B819C81611571058105910509F471C00B
:103660004D805E806F8078842091350630913606DB
:103670002415350509F465C020E137E240E050E04B
:103680004CD6122FA301920160E170E08FE498E024
:103690000E94530480913406811761F029813A8198
:1036A0004B815C8161E170E08FE498E00E945304FB
:1036B0001093340629853A854B855C856AE070E075
:1036C0008FE498E00E94A7032D853E854F85588999
:1036D0006BE070E08FE498E00E94A70349895A8963
:1036E0006CE070E08FE498E00E94CB044B8950E0DE
:1036F0006DE070E08FE498E00E94CB044C8950E0CC
:103700006FE070E08FE498E00E94CB048D819E8191
:1037100090933606809335068AE593E080DB6D81D1
:103720007E818F8198854AE02FDB8FE593E077DB00
:103730006C8970E080E090E04AE026DB8DEB93E05E
:10374000B7D91092450800E117E220E2A70165E62B
:1037500073E08FE298E00E94C80A882329F0CE0126
:1037600005960E94742503C060E070E0CB0120E064
:1037700030E048EC52E40E943D2AF8D6AB0164E206
:1037800070E08FE498E00E94CB046091AD077091E7
:10379000AE078091AF079091B007A5019401BDD508
:1037A000633671058105910509F04AC08BE693E007
:1037B00036DB0E9476069F938F937F936F931F92C1
:1037C00083E08F938091AC078F938091AB078F93A9
:1037D000A8E3B1E0BF93AF93FF92EF920E94D72589
:1037E0009AA389A321E0AC01B70189EA97E00E947E
:1037F00011110FB6F894DEBF0FBECDBF892B19F49F
:1038000086E793E00BC048E853E1B60189EA97E008
:103810000E946810009721F481E893E05BD90AC008
:103820000E941906882331F08AE893E053D9109258
:10383000B1076EC08091B1078F5F8093B10768C0F8
:103840008091550890915608892B09F461C061E078
:1038500084E00E9457058BE5D7DA6091AD0770913F
:10386000AE078091AF079091B0074AE08DDA8DE8FE
:1038700093E0D5DA40915B0850915C0860915D0857
:1038800070915E08FB01E40FF51F319780818C3247
:1038900011F44150510921E089EA97E00E94111189
:1038A000BC01892B31F48091B1078F5F8093B10700
:1038B00018C01092B1078091AD079091AE07A0910A
:1038C000AF07B091B0070196A11DB11D8093AD0760
:1038D0009093AE07A093AF07B093B00716161706E4
:1038E0008CF180E993E0F6D860E084E00E9457050F
:1038F0008091B107833060F089EA97E00E949B10C5
:1039000041E95FE167E973E089EA97E00E945914B1
:1039100080913208843048F00DD935D9811105C025
:1039200080915F08897B80935F080E94550233CDA8
:103930004CA15DA1612F70E071608FE498E00E945E
:10394000CB0474CE072E000C880B990B4AE01CDACE
:103950008AEA93E0BFD810925C0810925B0810923C
:10396000560810925508C0CFDC01ED91FC91008CF7
:10397000F18DE02D099428E16115710509F43CC031
:103980006830710520F06850710989E003C061500A
:10399000710986E0982F987011F498E001C098E2C0
:1039A0008770892B0FB6F894A895209360000FBEFE
:1039B00080936000A895809160008064809360008F
:1039C00083B7817F846083BF83B7816083BF88951D
:1039D00083B78E7F83BF0FB6F894A895809160005F
:1039E000886180936000109260000FBE809160003B
:1039F0008F7B80936000C0CF08952F923F924F92AB
:103A00005F926F927F928F929F92AF92BF92CF926E
:103A1000DF92EF92FF920F931F93CF93DF93CDB777
:103A2000DEB729970FB6F894DEBF0FBECDBF1C01DD
:103A30006B012A013901E9820E9476064B015C0183
:103A4000198618869201205131093B832A83C301CC
:103A5000A0E0B0E08C839D83AE83BF83A885B98549
:103A6000EA81FB81AE17BF0754F0BD01C6010E9479
:103A7000E91328853985281B390B39872887D10117
:103A8000ED91FC910680F781E02D62E370E0C101C9
:103A90000995688479846C0C7D1CD101ED91FC91B1
:103AA000A20128853985421B530B415051090688D4
:103AB000F789E02D24E630E0B301C10109957C01CE
:103AC000181619060CF03DC044E050E061EB73E0BD
:103AD000C3017DD7892BB9F545E050E061EE74E074
:103AE0008885998506968C0D9D1D71D7892B59F176
:103AF00034E0E31AF108688579856C5F7F4F6C0DBF
:103B00007D1DA701C30179D7488559854E0D5F1DDD
:103B100059874887FA01EC0DFD1D10827801712C40
:103B2000B9817B1681F0D7016D917D917D017394F0
:103B300061157105A9F3C6019DD7892B89F3872DDE
:103B40001AC0019691F00E947606DC01CB0188191B
:103B50009909AA09BB092C813D814E815F81821799
:103B60009307A407B50708F479CFE885F985EC0D2C
:103B7000FD1D108280E029960FB6F894DEBF0FBEBF
:103B8000CDBFDF91CF911F910F91FF90EF90DF900C
:103B9000CF90BF90AF909F908F907F906F905F90ED
:103BA0004F903F902F90089580E090E00C942E0667
:103BB000CF93DF93EC0182E08E8BCE010E945D09F2
:103BC000E881F9810680F781E02D6AE070E0CE019E
:103BD000DF91CF91099421E0FC01268B0C945D09C3
:103BE000FC01168A62ED73E00C945D09EF92FF927E
:103BF0000F931F93CF93DF9300D000D0CDB7DEB7E4
:103C00007C018B01FC01168A68ED73E02B833C83F9
:103C100049835A830E945D092B813C8149815A81E5
:103C2000B801C7010F900F900F900F90DF91CF91C7
:103C30001F910F91FF90EF900C94AC090F931F937D
:103C4000CF93DF93CDB7DEB7C054D1090FB6F89448
:103C5000DEBF0FBECDBFFC01168A00E117E220E4F3
:103C6000AE014F5F5F4F6FED73E00E94C80AC05C0A
:103C7000DF4F0FB6F894DEBF0FBECDBFDF91CF91FF
:103C80001F910F9108950F931F93CF93DF93CDB79B
:103C9000DEB760970FB6F894DEBF0FBECDBFFC0154
:103CA000168A00E117E220E1AE014F5F5F4F69EE37
:103CB00073E00E94C80A60960FB6F894DEBF0FBE8C
:103CC000CDBFDF91CF911F910F910895CF92DF92D9
:103CD000EF92FF920F931F93CF93DF93CDB7DEB791
:103CE00060970FB6F894DEBF0FBECDBF7C017F9307
:103CF0006F935F934F9382E991E09F938F939E011F
:103D00002F5F3F4F69013F932F9351D7D7015696AD
:103D10001C9200E117E220E1A601B601C7010E9452
:103D2000C80A0FB6F894DEBF0FBECDBF882351F08E
:103D3000D701ED91FC91068CF78DE02DC701099517
:103D400081E001C080E060960FB6F894DEBF0FBE40
:103D5000CDBFDF91CF911F910F91FF90EF90DF903A
:103D6000CF9008954F925F926F927F92BF92CF92C1
:103D7000DF92EF92FF920F931F93CF93DF93CDB714
:103D8000DEB7C058D1090FB6F894DEBF0FBECDBF65
:103D90007B01FC01168A08EC10E020E8AE014F5FC1
:103DA0005F4F63EF73E00E94C80A882309F46DC077
:103DB00045E050E06AEF73E0CE01019608D6892B0A
:103DC00009F063C08E010A5F1F4FC801BB24B39482
:103DD000C12C24E6422E512C612C712CF801D1907B
:103DE0008F01DD2009F44BC0BB2009F44EC0FCE27A
:103DF000DF1631F02EE3D21619F0EDE0ED1574F375
:103E000093D62C2D30E02830310590F5F901EC5C8B
:103E1000FF4FC1C2611571058105910549F1F70197
:103E2000608371838283938324C0F70164837583E5
:103E3000868397831EC0F701608771878287938787
:103E400018C0F701648775878687978712C0A3011A
:103E5000920185D2F701318B208B0BC0F701628B69
:103E600008C0F701758B648B04C0F701638B01C038
:103E7000B12CC394FCE2DF1202C0C801AFCFBB205B
:103E800021F081E0F7E0FC1508F080E0C058DF4F3A
:103E90000FB6F894DEBF0FBECDBFDF91CF911F915B
:103EA0000F91FF90EF90DF90CF90BF907F906F9039
:103EB0005F904F9008958F929F92AF92BF92CF9252
:103EC000DF92EF92FF920F931F93CF93DF93CDB7C3
:103ED000DEB7C058D1090FB6F894DEBF0FBECDBF14
:103EE0007C014A015B01FC01168A178ACE0101960A
:103EF0006C01452B462B472B09F450C000E117E21B
:103F000020E8AC0160E074E0C7010E94C80A81119A
:103F100002C0B12C45C0BF92AF929F928F9288E8A9
:103F200091E09F938F93DF92CF9241D600E117E209
:103F300020E8A601B601C7010E94C80A0E947606C1
:103F40004B015C0164E670E080E090E00E942E0688
:103F50000FB6F894DEBF0FBECDBFF701168A08EC8E
:103F600010E020E8A60169E074E0C7010E94C80AD9
:103F700090E08330910544F0EFEFFFEFEC0FFD1F71
:103F8000E80FF91F108202C0892BA9F060E174E0EC
:103F9000C60170D5892B79F081E01BC0BB24B39496
:103FA00000E117E220E8A60164E174E0C7010E9485
:103FB000C80A8B2D0EC00E947606DC01CB01881941
:103FC0009909AA09BB09883E9340A105B10528F2C9
:103FD000A0CFC058DF4F0FB6F894DEBF0FBECDBFE5
:103FE000DF91CF911F910F91FF90EF90DF90CF90D5
:103FF000BF90AF909F908F900895DF92EF92FF92C5
:104000000F931F93CF93DF93CDB7DEB7A0970FB673
:10401000F894DEBF0FBECDBF7C0180917A008F7710
:1040200080937A00F701168A60E086E00E94860598
:1040300061E087E00E94860561E087E00E94570505
:104040001FB7F89480914D06811127C0ECEEF1E086
:104050008491E0E0F2E09491E82FF0E0EE0FFF1F92
:10406000E258FE4FA591B491EC91E92321F461E06F
:104070008AE00E94570561E08AE00E9486058CB5BF
:1040800080618CBD8CB580648CBD61E08DE00E9448
:10409000860561E08BE00E94860580914D068F5F6A
:1040A00080934D061FBF8CB58C7F81608CBD8DB514
:1040B0008E7F8DBD64E670E080E090E00E942E0669
:1040C000F701168A83E0D82E04EF11E020E2AE015A
:1040D0004F5F5F4F6EE174E0C7010E94C80A8823FA
:1040E00099F063E274E0CE010196C4D4009761F0C8
:1040F000FC01238520538185880F8056982F990FC6
:10410000990F890F820F21F4DA94D110DDCF80E06E
:10411000A0960FB6F894DEBF0FBECDBFDF91CF9152
:104120001F910F91FF90EF90DF9008950F931F93D1
:10413000CF93DF93CDB7DEB760970FB6F894DEBFAD
:104140000FBECDBF00E117E220E1AE014F5F5F4F30
:104150006BE274E00E94C80A60960FB6F894DEBF66
:104160000FBECDBFDF91CF911F910F9108950F9397
:104170001F93CF93DF93E0E0F7E01382128288EE83
:1041800093E0A0E0B0E084839583A683B78325ED18
:1041900031E031832083E5E6F8E020E520831182D9
:1041A000ECE0F7E01382128284839583A683B783C1
:1041B00087EE91E09183808385EC90E095878487FA
:1041C00084EC90E09787868780EC90E0918B808BE1
:1041D00081EC90E0938B828B82EC90E0958B848BCA
:1041E00086EC90E0978B868B118E128E138E148E38
:1041F000C9EAD7E00FE218E085E193E0D8018D939A
:104200009C9389E292E0998388831B821A821C82A4
:104210001D821E821F82188619861A861B861C869E
:104220006FEB73E086EB97E00E9405051B8A109206
:104230001C0810922E0881E08093310810923208F9
:10424000109244081092430885EA92E0998388838B
:1042500081EE92E0F8019183808381E292E0909375
:1042600048088093470886E0E9E4F8E0DF011D9202
:104270008A95E9F71092510810925208109253084B
:10428000109254081092560810925508109258082F
:104290001092570889EF91E09093500880934F084F
:1042A00010925A081092590810925C0810925B08FC
:1042B00010925E0810925D0810925F0810926008DC
:1042C00010926108109262081092630810926408BC
:1042D000DF91CF911F910F910895991B79E004C050
:1042E000991F961708F0961B881F7A95C9F7809535
:1042F0000895AA1BBB1B51E107C0AA1FBB1FA6172D
:10430000B70710F0A61BB70B881F991F5A95A9F77E
:1043100080959095BC01CD010895A1E21A2EAA1BAB
:10432000BB1BFD010DC0AA1FBB1FEE1FFF1FA21765
:10433000B307E407F50720F0A21BB30BE40BF50B62
:10434000661F771F881F991F1A9469F760957095EB
:10435000809590959B01AC01BD01CF010895052E7C
:1043600097FB16F400940FD057FD05D0D6DF07FC5D
:1043700002D046F408C050954095309521953F4FA6
:104380004F4F5F4F089590958095709561957F4F41
:104390008F4F9F4F0895EE0FFF1F0590F491E02D72
:1043A0000994B7FF0C94F42A0E94F42A821B930B01
:1043B00008955058BB27AA2713D00C94BA2A0E94FC
:1043C000AC2A38F00E94B32A20F039F49F3F19F448
:1043D00026F40C94A92A0EF4E095E7FB0C94A32A8A
:1043E000E92F0E94CB2A58F3BA1762077307840794
:1043F000950720F079F4A6F50C94ED2A0EF4E095DB
:104400000B2EBA2FA02D0B01B90190010C01CA018E
:10441000A0011124FF27591B99F0593F50F4503E39
:1044200068F11A16F040A22F232F342F4427585F2B
:10443000F3CF469537952795A795F0405395C9F743
:104440007EF41F16BA0B620B730B840BBAF09150FB
:10445000A1F0FF0FBB1F661F771F881FC2F70EC09A
:10446000BA0F621F731F841F48F48795779567956D
:10447000B795F7959E3F08F0B0CF9395880F08F059
:104480009927EE0F97958795089512D00C94BA2A24
:104490000E94B32A58F00E94AC2A40F029F45F3FF2
:1044A00029F00C94A32A51110C94EE2A0C94A92AF9
:1044B0000E94CB2A68F39923B1F3552391F3951BFE
:1044C000550BBB27AA2762177307840738F09F5F35
:1044D0005F4F220F331F441FAA1FA9F335D00E2EA2
:1044E0003AF0E0E832D091505040E695001CCAF70F
:1044F0002BD0FE2F29D0660F771F881FBB1F2617D2
:1045000037074807AB07B0E809F0BB0B802DBF01A8
:10451000FF2793585F4F3AF09E3F510578F00C9477
:10452000A32A0C94EE2A5F3FE4F3983ED4F38695D9
:1045300077956795B795F7959F5FC9F7880F911D98
:104540009695879597F90895E1E0660F771F881F84
:10455000BB1F621773078407BA0720F0621B730B37
:10456000840BBA0BEE1F88F7E095089505D0689488
:10457000B1110C94EE2A08950E94D32A88F09F5717
:1045800098F0B92F9927B751B0F0E1F0660F771F77
:10459000881F991F1AF0BA95C9F714C0B13091F06D
:1045A0000E94ED2AB1E008950C94ED2A672F782F30
:1045B0008827B85F39F0B93FCCF386957795679532
:1045C000B395D9F73EF490958095709561957F4F9E
:1045D0008F4F9F4F08952DD708F48FEF089529D757
:1045E000880B990B0895CF93DF938230910510F4D7
:1045F00082E090E0E0916908F0916A0820E030E004
:10460000C0E0D0E0309711F140815181481759073F
:10461000C0F04817590761F482819381209719F0FF
:104620009B838A832BC090936A088093690826C075
:104630002115310519F04217530718F49A01BE01EC
:10464000DF01EF010280F381E02DDCCF2115310580
:1046500009F1281B390B2430310590F412968D9105
:104660009C9113976115710521F0FB01938382835F
:1046700004C090936A0880936908FD01329644C093
:10468000FD01E20FF31F81939193225031092D9385
:104690003C933AC02091670830916808232B41F47D
:1046A000209102013091030130936808209367083C
:1046B00020910001309101012115310541F42DB700
:1046C0003EB74091040150910501241B350BE09148
:1046D0006708F0916808E217F307A0F42E1B3F0B60
:1046E0002817390778F0AC014E5F5F4F2417350764
:1046F00048F04E0F5F1F50936808409367088193FE
:10470000919302C0E0E0F0E0CF01DF91CF910895F6
:104710000F931F93CF93DF93009709F48CC0FC0194
:104720003297138212820091690810916A0801156C
:10473000110581F420813181820F931F2091670838
:10474000309168082817390779F5F0936808E093E5
:10475000670871C0D80140E050E0AE17BF0750F4C1
:1047600012962D913C911397AD012115310509F158
:10477000D901F3CF9D01DA013383228360817181F6
:10478000860F971F8217930769F4EC0128813981FE
:10479000260F371F2E5F3F4F318320838A819B81F5
:1047A00093838283452B29F4F0936A08E093690888
:1047B00042C01396FC93EE931297ED0149915991E3
:1047C0009E01240F351FE217F30771F48081918158
:1047D000840F951F029611969C938E9382819381EC
:1047E00013969C938E931297E0E0F0E0D801129616
:1047F0008D919C911397009719F0F8018C01F6CFD9
:104800008D919C9198012E5F3F4F820F931F2091B5
:104810006708309168082817390769F4309729F438
:1048200010926A081092690802C0138212821093D3
:10483000680800936708DF91CF911F910F91089549
:10484000A0E0B0E0E5E2F4E2DDC6EC01009719F487
:10485000CB01C9DEB4C0FC01E60FF71F9C0122505A
:104860003109E217F30708F4A8C0D9010D911C9192
:10487000119706171707A8F00530110508F49BC01B
:10488000C80104978617970708F495C002501109CC
:10489000061B170B019311936D937C93CF0138DFA7
:1048A0008AC05B01A01AB10A4C01800E911EA09132
:1048B0006908B0916A0840E050E0E12CF12C1097B3
:1048C00009F44AC0A815B905D1F56D907C901197EF
:1048D000630182E0C80ED11CCA14DB0480F1A3017D
:1048E0004A195B096A0182E0C80ED11C1296BC907D
:1048F00012971396AC91B5E0CB16D10440F0B2827A
:10490000A38351834083D9016D937C930AC00E5FCA
:104910001F4FC301800F911FF90191838083EB2DFD
:10492000FA2FE114F10431F0D7011396FC93EE93C2
:10493000129741C0F0936A08E09369083CC08D91DA
:104940009C9111974817590708F4AC017D01129604
:104950000D90BC91A02DB3CF80916708909168080D
:1049600088159905E1F446175707C8F480910001AE
:1049700090910101009741F48DB79EB740910401D9
:1049800050910501841B950BE817F907B0F4F093DB
:104990006808E0936708F901718360830CC0CB015C
:1049A00022DE7C01009749F0A801BE011DD0CE0196
:1049B000AFDEC70104C0CE0102C080E090E0CDB7F9
:1049C000DEB7EEE03BC681E090E0F8945DC6FB0107
:1049D000DC0104C08D910190801921F441505040B8
:1049E000C8F7881B990B0895FB01DC0102C00190F8
:1049F0000D9241505040D8F708956817790768F430
:104A0000FB01DC01E40FF51FA40FB51F02C00290EB
:104A10000E9241505040D8F70895E6CFFB01DC01DB
:104A20000D900020E9F7119701900D920020E1F719
:104A30000895FC018191861721F08823D9F79927E1
:104A400008953197CF010895FB01DC0101900D928B
:104A50000020E1F70895FB01DC014150504048F08F
:104A600001900D920020C9F701C01D9241505040A5
:104A7000E0F70895FB0151915523A9F0BF01DC0136
:104A80004D9145174111E1F759F4CD0101900020F6
:104A900049F04D9140154111C9F3FB014111EFCF90
:104AA00081E090E001970895AEE0B0E0E9E5F5E23D
:104AB000B3C50D891E8986E08C831A8309838FEF25
:104AC0009FE79E838D83AE01475E5F4F6F89788D30
:104AD000CE0101968CD02F813885F801E20FF31FAB
:104AE00010822E96E4E0B4C56627772743C2FC0106
:104AF00088279927E89421912032E9F3293010F092
:104B00002E30C8F32B3239F02D3231F4689403C0C3
:104B100046D0820F911D219120532A30C8F31EF4F4
:104B2000909581959F4F08951F93FC0199278827A1
:104B3000BC01E89411911032E9F3193010F01E30E5
:104B4000C8F31B3249F01D3241F4689405C012D0FD
:104B5000610F711D811D911D119110531A30B8F311
:104B60003EF490958095709561957F4F8F4F9F4F44
:104B70001F910895592F482F372F262F660F771F23
:104B8000881F991F660F771F881F991F620F731F59
:104B9000841F951F660F771F881F991F08957AE05D
:104BA000979F902D879F802D910D11240895AEE041
:104BB000B0E0ECEDF5E230C50D891E898EE08C8306
:104BC0001A8309838FEF9FE79E838D83AE01475E33
:104BD0005F4F6F89788DCE01019609D02F8138857E
:104BE000F801E20FF31F10822E96E4E031C5ACE02D
:104BF000B0E0ECEFF5E202C57C016B018A01FC013B
:104C000017821682838181FFB0C1CE0101964C01CB
:104C1000F7019381F60193FD859193FF81916F01D7
:104C2000882309F49EC1853239F493FD859193FF61
:104C300081916F01853221F4B70190E023D3E8CF51
:104C4000512C312C20E02032A0F48B3269F030F46A
:104C5000803259F0833269F420612CC08D3239F0F2
:104C6000803339F4216026C02260246023C028608C
:104C700021C027FD27C030ED380F3A3078F426FFE9
:104C800006C0FAE05F9E300D1124532E13C08AE057
:104C9000389E300D1124332E20620CC08E3221F448
:104CA00026FD5FC1206406C08C3611F4206802C066
:104CB000883641F4F60193FD859193FF81916F0150
:104CC0008111C1CF982F9F7D9554933028F40C5FAC
:104CD0001F4FFFE3F9830DC0833631F0833771F046
:104CE000833509F057C021C0F801808189830E5FA8
:104CF0001F4F44244394512C540114C03801F2E056
:104D00006F0E711CF801A080B18026FF03C0652DD5
:104D100070E002C06FEF7FEFC5012C87A8D22C0195
:104D200083012C852F77222E16C03801F2E06F0EFA
:104D3000711CF801A080B18026FF03C0652D70E0D2
:104D400002C06FEF7FEFC5012C8786D22C012C8526
:104D50002068222E830123FC19C0832D90E0481681
:104D60005906A0F4B70180E290E08CD23A94F5CFD6
:104D7000F50127FC859127FE81915F01B70190E045
:104D800081D231103A94F1E04F1A51084114510484
:104D900079F7DEC0843611F0893631F5F80127FF46
:104DA00007C060817181828193810C5F1F4F08C0B1
:104DB00060817181072E000C880B990B0E5F1F4FCD
:104DC0002F76722E97FF09C090958095709561950A
:104DD0007F4F8F4F9F4F2068722E2AE030E0A40152
:104DE00089D2A82EA81843C0853729F42F7EB22E69
:104DF0002AE030E025C0F22FF97FBF2E8F36C1F0B8
:104E000018F4883579F0ADC0803719F0883721F073
:104E1000A8C02F2F2061B22EB4FE0DC08B2D846050
:104E2000B82E09C024FF0AC09F2F9660B92E06C075
:104E300028E030E005C020E130E002C020E132E0AF
:104E4000F801B7FE07C060817181828193810C5F98
:104E50001F4F06C06081718180E090E00E5F1F4FA0
:104E6000A40148D2A82EA818FB2DFF777F2E76FE2E
:104E70000BC0372D3E7FA51450F474FE0AC072FC9F
:104E800008C0372D3E7E05C0BA2C372D03C0BA2C82
:104E900001C0B52C34FF0DC0FE01EA0DF11D80816B
:104EA000803311F4397E09C032FF06C0B394B39445
:104EB00004C0832F867809F0B39433FD12C030FF0D
:104EC00006C05A2CB31418F4530C5B18B32CB3144B
:104ED00060F4B70180E290E03C87D4D1B3943C8584
:104EE000F6CFB31410F43B1801C0312C34FF11C0BD
:104EF000B70180E390E03C87C5D13C8532FF16C006
:104F000031FD03C088E790E002C088E590E0B7017A
:104F10000CC0832F867851F031FF02C08BE201C0B4
:104F200080E237FD8DE2B70190E0ACD1A51430F4FA
:104F3000B70180E390E0A6D15A94F8CFAA94F40187
:104F4000EA0DF11D8081B70190E09CD1A110F6CF50
:104F5000332009F45DCEB70180E290E093D13A941A
:104F6000F7CFF7018681978102C08FEF9FEF2C96D4
:104F7000E2E160C3A0E0B0E0EFEBF7E243C3EC0195
:104F80007B016115710519F0DB018D939C938E01F6
:104F90000F5F1F4F7880872D90E03ED1892B11F055
:104FA000E801F5CFBDE27B1205C00F5F1F4F79808E
:104FB000C1E008C0EBE27E1204C08E010E5F1F4FFD
:104FC0007980C0E06801F1E0CF1AD10843E050E0F9
:104FD00066E272E0C60128D1892BE9F4680122E07B
:104FE000C20ED11C45E050E061E272E0C6011CD166
:104FF000892B21F4680187E0C80ED11CE114F1046B
:1050000019F0D701CD92DC92C111F9C060E070E0D7
:1050100080E89FE7FDC043E050E06EE172E0C6012A
:1050200003D1892B51F4E114F10409F4EDC00E5FB2
:105030001F4FF70111830083E7C0680160E070E053
:10504000CB0100E010E0F601D0EDD70DDA3050F5DD
:105050002C2F2260622E2C2F2870C2FF05C0211138
:1050600027C00F5F1F4F24C0222311F001501109E8
:10507000A5E0B0E09B01AC01B7D24B015C01880C0C
:10508000991CAA1CBB1CC501B4016D0F711D811DAB
:10509000911D6839A9E97A078A07A9E19A0740F0C2
:1050A000C66005C0DE3F51F4C3FD44C0C8606C2E2D
:1050B000BFEFCB1ADB0A7080C62DC5CF2D2F2F7DF9
:1050C0002531C1F540814D3211F4C06106C04B322B
:1050D00021F0319621E030E006C03296D6011196DB
:1050E0004C9122E030E0A0EDA40FAA3018F0E21BB2
:1050F000F30B20C040E050E04038BCE05B075CF4BC
:105100009A01220F331F220F331F420F531F440FE8
:10511000551F4A0F511D3196DF0111972C91A0EDBB
:10512000A20FAA3048F3C4FF03C05195419551091D
:10513000040F151FC1FF07C0E114F10421F03197DE
:10514000D701ED93FC9338D1C370C33019F06B01D4
:105150007C0106C06B017C01F7FAF094F7F8F0943B
:1051600020E030E0A901C701B60122D1882309F46B
:1051700043C017FF06C0119501951109CDE3D2E098
:1051800002C0C5E5D2E05E01B8E1AB1AB108460144
:10519000BE2DAF2D90E2E92EF12C0E151F057CF0EF
:1051A000FE012591359145915491B4018B2F9A2F91
:1051B00064D14B01B82FA92F0E191F09EECF2497E8
:1051C000F594E794CA15DB0541F76401EB2EFA2E3E
:1051D0008E2D880F8F2D881F8F3F41F020E030E00B
:1051E000A901C701B601E4D0811106C082E290E0B6
:1051F00090936C0880936B08C701B60109C060E00A
:1052000070E080E89FEF04C060E070E080EC9FE712
:10521000CDB7DEB7EEE012C2911192C1803219F023
:1052200089508550D0F70895FB01DC014150504072
:1052300088F08D9181341CF08B350CF4805E659183
:1052400061341CF06B350CF4605E861B611171F3E8
:10525000990B0895881BFCCFFC01059061507040AC
:105260000110D8F7809590958E0F9F1F0895FC012F
:105270006150704001900110D8F7809590958E0F85
:105280009F1F08950F931F93CF93DF93FB012381FB
:1052900021FD03C08FEF9FEF28C022FF16C046817B
:1052A0005781248135814217530744F4A081B1818D
:1052B0009D012F5F3F4F318320838C93268137815F
:1052C0002F5F3F4F3783268310C0EB01092F182F24
:1052D0000084F185E02D0995892BE1F68E819F816F
:1052E00001969F838E83812F902FDF91CF911F9105
:1052F0000F910895FA01AA27283051F1203181F148
:10530000E8946F936E7F6E5F7F4F8F4F9F4FAF4FCD
:10531000B1E03ED0B4E03CD0670F781F891F9A1FE0
:10532000A11D680F791F8A1F911DA11D6A0F711D94
:10533000811D911DA11D20D009F468943F912AE0A0
:10534000269F11243019305D3193DEF6CF01089588
:10535000462F4770405D4193B3E00FD0C9F7F6CFB9
:10536000462F4F70405D4A3318F0495D31FD405281
:10537000419302D0A9F7EACFB4E0A6959795879517
:1053800077956795BA95C9F70097610571050895F6
:105390009B01AC010A2E06945795479537952795A2
:1053A000BA95C9F7620F731F841F951FA01D08953A
:1053B00040D008F481E00895E89409C097FB3EF4DA
:1053C00090958095709561957F4F8F4F9F4F992352
:1053D000A9F0F92F96E9BB279395F69587957795D0
:1053E0006795B795F111F8CFFAF4BB0F11F460FF90
:1053F0001BC06F5F7F4F8F4F9F4F16C0882311F0E8
:1054000096E911C0772321F09EE8872F762F05C0FB
:10541000662371F096E8862F70E060E02AF09A9596
:10542000660F771F881FDAF7880F9695879597F98B
:105430000895990F0008550FAA0BE0E8FEEF161625
:105440001706E807F907C0F012161306E407F50778
:1054500098F0621B730B840B950B39F40A2661F0EC
:10546000232B242B252B21F408950A2609F4A1408F
:10547000A6958FEF811D811D08950BD07BC06CD048
:1054800028F071D018F0952309F05DC062C0112496
:10549000A5C081D0A0F3959FD1F3950F50E0551F83
:1054A000629FF001729FBB27F00DB11D639FAA2779
:1054B000F00DB11DAA1F649F6627B00DA11D661FC8
:1054C000829F2227B00DA11D621F739FB00DA11DE9
:1054D000621F839FA00D611D221F749F3327A00DA3
:1054E000611D231F849F600D211D822F762F6A2F3F
:1054F00011249F5750408AF0E1F088234AF0EE0FC4
:10550000FF1FBB1F661F771F881F91505040A9F7D0
:105510009E3F510570F017C061C05F3FECF3983EAD
:10552000DCF3869577956795B795F795E7959F5F37
:10553000C1F7FE2B880F911D9695879597F90895D1
:1055400099278827089597F99F6780E870E060E0C1
:1055500008959FEF80EC089500240A94161617060C
:1055600018060906089500240A9412161306140654
:1055700005060895092E0394000C11F4882352F0B7
:10558000BB0F40F4BF2B11F460FF04C06F5F7F4F6F
:105590008F4F9F4F089557FD9058440F551F59F056
:1055A0005F3F71F04795880F97FB991F61F09F3F10
:1055B00079F087950895121613061406551FF2CF39
:1055C0004695F1DF08C0161617061806991FF1CF89
:1055D00086957105610508940895E894BB276627B0
:1055E0007727CB0197F9089540D0A59F900DB49FE0
:1055F000900DA49F800D911D112408952F923F922C
:105600004F925F926F927F928F929F92AF92BF92D2
:10561000CF92DF92EF92FF920F931F93CF93DF937E
:10562000CDB7DEB7CA1BDB0B0FB6F894DEBF0FBEDB
:10563000CDBF09942A88398848885F846E847D8428
:105640008C849B84AA84B984C884DF80EE80FD802A
:105650000C811B81AA81B981CE0FD11D0FB6F894A0
:10566000DEBF0FBECDBFED010895A29FB001B39F75
:10567000C001A39F700D811D1124911DB29F700D5B
:10568000811D1124911D089511E0CEE2D1E004C0E6
:10569000FE010E94CB212196CF32D107C9F7F894A1
:0256A000FFCF3A
:1056A20000006D0880000F0533465E244F424424FB
:1056B2004750532447534DC805CF05D505DF04ECA9
:1056C200055F04F10500000000000000000000007A
:1056D20000000000000000000000000000000000C8
:1056E20000000000000000000000000000FD1FD3C9
:1056F20002BB1CD41DF01D96205B1FB21EEB1D5E6B
:1057020002661EF61DD81DB41CFD1C431E1E1E86FD
:105712000000000000A3104C1059149B10111168D6
:105722001095071A058E07FE020000000000000017
:105732000000000000000000000000000000000067
:1057420000000000000000000000007AFF0000D509
:1057520002D30269066606D202D102FC02FC02D022
:1057620002CE02FC02FC02FC02FC02FC02FC02FC75
:10577200020000000059072A078401FE0622070ED4
:1057820007FF0600000000EE01580187013402B84D
:10579200019601AA0100000000BC02BA02B902CBC4
:1057A200048F0453041504A703A402A0029F0261FC
:1057B2000297021B03690268026702840300000069
:1057C200000B134D1200000000CC02CB02C902C82C
:1057D20002C502C202C0022405BE02FE0286000009
:1057E200000000A3104C1059149B10111168109561
:1057F200071A058E07FE02000000000000000000EC
:105802000000000000000000000000000000000096
:105812000000000000000000007AFF0000D502D363
:105822000269066606D202D102FC02FC02D002CE56
:1058320002FC02FC02FC02FC02FC02FC02FC0286EC
:105842000000000000A3104C1059149B10111168A5
:105852001095071A058E07FE0200000000000000E6
:105862000000000000000000000000000000000036
:10587200000000000000000000000000007AFF00AD
:1058820000FD1FD302BB1CD41DF01D96205B1FB26E
:105892001EEB1D5E02661EF61DD81DB41CFD1C43C8
:1058A2001E1E1EA5027501AF014D014D01E102E16F
:1058B2000200000000D502D30269066606D202D1B8
:1058C20002FC02FC02D002CE02FC02FC02FC02FC40
:1058D20002FC02FC02FC0253494D383030004E6596
:1058E20074776F726B3A004F4646005374616E6470
:1058F20062790057616B657570005554433A002018
:105902005341543A00415452560D0053796E636923
:105912006E672E2E2E0053796E63206572726F723F
:10592200006E6F207265706C79004F4B005D200035
:10593200556E73656E74006875622E667265656D6C
:1059420061746963732E636F6D00422073656E74B8
:10595200002447534D0053454E44204F4B0D0A003F
:1059620041542B43495047534D4C4F433D312C3109
:105972000D0041544C500D0041544752440D00411A
:105982005447534D5057520D004154434C524753C4
:105992004D0D0041544750530D00244750532C00E5
:1059A20041544750534F4E0D0041544752520D003F
:1059B2005324470041544750534F46460D0041542B
:1059C200490D004F4244554152540041540D006963
:1059D2006E7465726E616C0065787465726E616C6E
:1059E200004F42442E2E2E004E4F0043454C4C2871
:1059F20041504E3A00636F6E6E6563740029004138
:105A02005445300D002B435245473A20302C31008B
:105A120041542B435245473F0D002B4347415454B9
:105A22003A20310041542B43474154543F0D004129
:105A3200542B43494943520D0041542B434F505379
:105A42003F0D002C22004750532E2E2E004F4B2884
:105A52000049502E2E2E0041542B43494653520DDD
:105A62000041542B4353510D004353512E2E2E000F
:105A72006E616E00696E66006F7666006442004E6B
:105A82004F2044415441003433004454433A0030DF
:105A92003930320D0034392030320056494E3A0046
:105AA2004C4F47494E2E2E2E005345525645523AE0
:105AB20000464545442049443A0041542B4353543F
:105AC200543D222573220D0044454641554C545FF6
:105AD20056494E00524543562046524F4D3A0041D8
